{
  "_format": "hh-sol-artifact-1",
  "contractName": "Badge1155",
  "sourceName": "contracts/Badge1155.sol",
  "abi": [
    {
      "inputs": [
        {
          "internalType": "string",
          "name": "uri",
          "type": "string"
        },
        {
          "internalType": "address",
          "name": "admin",
          "type": "address"
        }
      ],
      "stateMutability": "nonpayable",
      "type": "constructor"
    },
    {
      "inputs": [],
      "name": "AccessControlBadConfirmation",
      "type": "error"
    },
    {
      "inputs": [
        {
          "internalType": "address",
          "name": "account",
          "type": "address"
        },
        {
          "internalType": "bytes32",
          "name": "neededRole",
          "type": "bytes32"
        }
      ],
      "name": "AccessControlUnauthorizedAccount",
      "type": "error"
    },
    {
      "inputs": [
        {
          "internalType": "address",
          "name": "sender",
          "type": "address"
        },
        {
          "internalType": "uint256",
          "name": "balance",
          "type": "uint256"
        },
        {
          "internalType": "uint256",
          "name": "needed",
          "type": "uint256"
        },
        {
          "internalType": "uint256",
          "name": "tokenId",
          "type": "uint256"
        }
      ],
      "name": "ERC1155InsufficientBalance",
      "type": "error"
    },
    {
      "inputs": [
        {
          "internalType": "address",
          "name": "approver",
          "type": "address"
        }
      ],
      "name": "ERC1155InvalidApprover",
      "type": "error"
    },
    {
      "inputs": [
        {
          "internalType": "uint256",
          "name": "idsLength",
          "type": "uint256"
        },
        {
          "internalType": "uint256",
          "name": "valuesLength",
          "type": "uint256"
        }
      ],
      "name": "ERC1155InvalidArrayLength",
      "type": "error"
    },
    {
      "inputs": [
        {
          "internalType": "address",
          "name": "operator",
          "type": "address"
        }
      ],
      "name": "ERC1155InvalidOperator",
      "type": "error"
    },
    {
      "inputs": [
        {
          "internalType": "address",
          "name": "receiver",
          "type": "address"
        }
      ],
      "name": "ERC1155InvalidReceiver",
      "type": "error"
    },
    {
      "inputs": [
        {
          "internalType": "address",
          "name": "sender",
          "type": "address"
        }
      ],
      "name": "ERC1155InvalidSender",
      "type": "error"
    },
    {
      "inputs": [
        {
          "internalType": "address",
          "name": "operator",
          "type": "address"
        },
        {
          "internalType": "address",
          "name": "owner",
          "type": "address"
        }
      ],
      "name": "ERC1155MissingApprovalForAll",
      "type": "error"
    },
    {
      "anonymous": false,
      "inputs": [
        {
          "indexed": true,
          "internalType": "address",
          "name": "account",
          "type": "address"
        },
        {
          "indexed": true,
          "internalType": "address",
          "name": "operator",
          "type": "address"
        },
        {
          "indexed": false,
          "internalType": "bool",
          "name": "approved",
          "type": "bool"
        }
      ],
      "name": "ApprovalForAll",
      "type": "event"
    },
    {
      "anonymous": false,
      "inputs": [
        {
          "indexed": true,
          "internalType": "address",
          "name": "to",
          "type": "address"
        },
        {
          "indexed": true,
          "internalType": "uint256",
          "name": "courseId",
          "type": "uint256"
        }
      ],
      "name": "BadgeMinted",
      "type": "event"
    },
    {
      "anonymous": false,
      "inputs": [
        {
          "indexed": true,
          "internalType": "bytes32",
          "name": "role",
          "type": "bytes32"
        },
        {
          "indexed": true,
          "internalType": "bytes32",
          "name": "previousAdminRole",
          "type": "bytes32"
        },
        {
          "indexed": true,
          "internalType": "bytes32",
          "name": "newAdminRole",
          "type": "bytes32"
        }
      ],
      "name": "RoleAdminChanged",
      "type": "event"
    },
    {
      "anonymous": false,
      "inputs": [
        {
          "indexed": true,
          "internalType": "bytes32",
          "name": "role",
          "type": "bytes32"
        },
        {
          "indexed": true,
          "internalType": "address",
          "name": "account",
          "type": "address"
        },
        {
          "indexed": true,
          "internalType": "address",
          "name": "sender",
          "type": "address"
        }
      ],
      "name": "RoleGranted",
      "type": "event"
    },
    {
      "anonymous": false,
      "inputs": [
        {
          "indexed": true,
          "internalType": "bytes32",
          "name": "role",
          "type": "bytes32"
        },
        {
          "indexed": true,
          "internalType": "address",
          "name": "account",
          "type": "address"
        },
        {
          "indexed": true,
          "internalType": "address",
          "name": "sender",
          "type": "address"
        }
      ],
      "name": "RoleRevoked",
      "type": "event"
    },
    {
      "anonymous": false,
      "inputs": [
        {
          "indexed": true,
          "internalType": "address",
          "name": "operator",
          "type": "address"
        },
        {
          "indexed": true,
          "internalType": "address",
          "name": "from",
          "type": "address"
        },
        {
          "indexed": true,
          "internalType": "address",
          "name": "to",
          "type": "address"
        },
        {
          "indexed": false,
          "internalType": "uint256[]",
          "name": "ids",
          "type": "uint256[]"
        },
        {
          "indexed": false,
          "internalType": "uint256[]",
          "name": "values",
          "type": "uint256[]"
        }
      ],
      "name": "TransferBatch",
      "type": "event"
    },
    {
      "anonymous": false,
      "inputs": [
        {
          "indexed": true,
          "internalType": "address",
          "name": "operator",
          "type": "address"
        },
        {
          "indexed": true,
          "internalType": "address",
          "name": "from",
          "type": "address"
        },
        {
          "indexed": true,
          "internalType": "address",
          "name": "to",
          "type": "address"
        },
        {
          "indexed": false,
          "internalType": "uint256",
          "name": "id",
          "type": "uint256"
        },
        {
          "indexed": false,
          "internalType": "uint256",
          "name": "value",
          "type": "uint256"
        }
      ],
      "name": "TransferSingle",
      "type": "event"
    },
    {
      "anonymous": false,
      "inputs": [
        {
          "indexed": false,
          "internalType": "string",
          "name": "value",
          "type": "string"
        },
        {
          "indexed": true,
          "internalType": "uint256",
          "name": "id",
          "type": "uint256"
        }
      ],
      "name": "URI",
      "type": "event"
    },
    {
      "inputs": [],
      "name": "DEFAULT_ADMIN_ROLE",
      "outputs": [
        {
          "internalType": "bytes32",
          "name": "",
          "type": "bytes32"
        }
      ],
      "stateMutability": "view",
      "type": "function"
    },
    {
      "inputs": [],
      "name": "MINTER_ROLE",
      "outputs": [
        {
          "internalType": "bytes32",
          "name": "",
          "type": "bytes32"
        }
      ],
      "stateMutability": "view",
      "type": "function"
    },
    {
      "inputs": [
        {
          "internalType": "address",
          "name": "account",
          "type": "address"
        },
        {
          "internalType": "uint256",
          "name": "id",
          "type": "uint256"
        }
      ],
      "name": "balanceOf",
      "outputs": [
        {
          "internalType": "uint256",
          "name": "",
          "type": "uint256"
        }
      ],
      "stateMutability": "view",
      "type": "function"
    },
    {
      "inputs": [
        {
          "internalType": "address[]",
          "name": "accounts",
          "type": "address[]"
        },
        {
          "internalType": "uint256[]",
          "name": "ids",
          "type": "uint256[]"
        }
      ],
      "name": "balanceOfBatch",
      "outputs": [
        {
          "internalType": "uint256[]",
          "name": "",
          "type": "uint256[]"
        }
      ],
      "stateMutability": "view",
      "type": "function"
    },
    {
      "inputs": [
        {
          "internalType": "bytes32",
          "name": "role",
          "type": "bytes32"
        }
      ],
      "name": "getRoleAdmin",
      "outputs": [
        {
          "internalType": "bytes32",
          "name": "",
          "type": "bytes32"
        }
      ],
      "stateMutability": "view",
      "type": "function"
    },
    {
      "inputs": [
        {
          "internalType": "bytes32",
          "name": "role",
          "type": "bytes32"
        },
        {
          "internalType": "address",
          "name": "account",
          "type": "address"
        }
      ],
      "name": "grantRole",
      "outputs": [],
      "stateMutability": "nonpayable",
      "type": "function"
    },
    {
      "inputs": [
        {
          "internalType": "bytes32",
          "name": "role",
          "type": "bytes32"
        },
        {
          "internalType": "address",
          "name": "account",
          "type": "address"
        }
      ],
      "name": "hasRole",
      "outputs": [
        {
          "internalType": "bool",
          "name": "",
          "type": "bool"
        }
      ],
      "stateMutability": "view",
      "type": "function"
    },
    {
      "inputs": [
        {
          "internalType": "address",
          "name": "account",
          "type": "address"
        },
        {
          "internalType": "address",
          "name": "operator",
          "type": "address"
        }
      ],
      "name": "isApprovedForAll",
      "outputs": [
        {
          "internalType": "bool",
          "name": "",
          "type": "bool"
        }
      ],
      "stateMutability": "view",
      "type": "function"
    },
    {
      "inputs": [
        {
          "internalType": "address[]",
          "name": "recipients",
          "type": "address[]"
        },
        {
          "internalType": "uint256",
          "name": "courseId",
          "type": "uint256"
        }
      ],
      "name": "mintBatch",
      "outputs": [],
      "stateMutability": "nonpayable",
      "type": "function"
    },
    {
      "inputs": [
        {
          "internalType": "address",
          "name": "to",
          "type": "address"
        },
        {
          "internalType": "uint256",
          "name": "courseId",
          "type": "uint256"
        }
      ],
      "name": "mintCompletion",
      "outputs": [],
      "stateMutability": "nonpayable",
      "type": "function"
    },
    {
      "inputs": [
        {
          "internalType": "bytes32",
          "name": "role",
          "type": "bytes32"
        },
        {
          "internalType": "address",
          "name": "callerConfirmation",
          "type": "address"
        }
      ],
      "name": "renounceRole",
      "outputs": [],
      "stateMutability": "nonpayable",
      "type": "function"
    },
    {
      "inputs": [
        {
          "internalType": "bytes32",
          "name": "role",
          "type": "bytes32"
        },
        {
          "internalType": "address",
          "name": "account",
          "type": "address"
        }
      ],
      "name": "revokeRole",
      "outputs": [],
      "stateMutability": "nonpayable",
      "type": "function"
    },
    {
      "inputs": [
        {
          "internalType": "address",
          "name": "",
          "type": "address"
        },
        {
          "internalType": "address",
          "name": "",
          "type": "address"
        },
        {
          "internalType": "uint256[]",
          "name": "",
          "type": "uint256[]"
        },
        {
          "internalType": "uint256[]",
          "name": "",
          "type": "uint256[]"
        },
        {
          "internalType": "bytes",
          "name": "",
          "type": "bytes"
        }
      ],
      "name": "safeBatchTransferFrom",
      "outputs": [],
      "stateMutability": "pure",
      "type": "function"
    },
    {
      "inputs": [
        {
          "internalType": "address",
          "name": "",
          "type": "address"
        },
        {
          "internalType": "address",
          "name": "",
          "type": "address"
        },
        {
          "internalType": "uint256",
          "name": "",
          "type": "uint256"
        },
        {
          "internalType": "uint256",
          "name": "",
          "type": "uint256"
        },
        {
          "internalType": "bytes",
          "name": "",
          "type": "bytes"
        }
      ],
      "name": "safeTransferFrom",
      "outputs": [],
      "stateMutability": "pure",
      "type": "function"
    },
    {
      "inputs": [
        {
          "internalType": "address",
          "name": "",
          "type": "address"
        },
        {
          "internalType": "bool",
          "name": "",
          "type": "bool"
        }
      ],
      "name": "setApprovalForAll",
      "outputs": [],
      "stateMutability": "pure",
      "type": "function"
    },
    {
      "inputs": [
        {
          "internalType": "string",
          "name": "newURI",
          "type": "string"
        }
      ],
      "name": "setURI",
      "outputs": [],
      "stateMutability": "nonpayable",
      "type": "function"
    },
    {
      "inputs": [
        {
          "internalType": "bytes4",
          "name": "interfaceId",
          "type": "bytes4"
        }
      ],
      "name": "supportsInterface",
      "outputs": [
        {
          "internalType": "bool",
          "name": "",
          "type": "bool"
        }
      ],
      "stateMutability": "view",
      "type": "function"
    },
    {
      "inputs": [
        {
          "internalType": "uint256",
          "name": "",
          "type": "uint256"
        }
      ],
      "name": "uri",
      "outputs": [
        {
          "internalType": "string",
          "name": "",
          "type": "string"
        }
      ],
      "stateMutability": "view",
      "type": "function"
    }
  ],
  "bytecode": "0x608060405234801561001057600080fd5b50604051611a71380380611a7183398101604081905261002f9161016a565b8161003981610078565b50610045600082610088565b506100707f9f2df0fed2c77648de5860a4cc508cd0818c85b8b8a1ab4ceeef8d981c8956a682610088565b50505061038e565b600261008482826102d0565b5050565b60008281526003602090815260408083206001600160a01b038516845290915281205460ff1661012e5760008381526003602090815260408083206001600160a01b03861684529091529020805460ff191660011790556100e63390565b6001600160a01b0316826001600160a01b0316847f2f8788117e7eff1d82e926ec794901d17c78024a50270940304540a733656f0d60405160405180910390a4506001610132565b5060005b92915050565b634e487b7160e01b600052604160045260246000fd5b80516001600160a01b038116811461016557600080fd5b919050565b6000806040838503121561017d57600080fd5b82516001600160401b0381111561019357600080fd5b8301601f810185136101a457600080fd5b80516001600160401b038111156101bd576101bd610138565b604051601f8201601f19908116603f011681016001600160401b03811182821017156101eb576101eb610138565b60405281815282820160200187101561020357600080fd5b60005b8281101561022257602081850181015183830182015201610206565b5060006020838301015280945050505061023e6020840161014e565b90509250929050565b600181811c9082168061025b57607f821691505b60208210810361027b57634e487b7160e01b600052602260045260246000fd5b50919050565b601f8211156102cb57806000526020600020601f840160051c810160208510156102a85750805b601f840160051c820191505b818110156102c857600081556001016102b4565b50505b505050565b81516001600160401b038111156102e9576102e9610138565b6102fd816102f78454610247565b84610281565b6020601f82116001811461033157600083156103195750848201515b600019600385901b1c1916600184901b1784556102c8565b600084815260208120601f198516915b828110156103615787850151825560209485019460019092019101610341565b508482101561037f5786840151600019600387901b60f8161c191681555b50505050600190811b01905550565b6116d48061039d6000396000f3fe608060405234801561001057600080fd5b50600436106101155760003560e01c806391d14854116100a2578063b6afc4dc11610071578063b6afc4dc14610255578063d539139314610268578063d547741f1461028f578063e985e9c5146102a2578063f242432a146102de57600080fd5b806391d14854146102145780639d866a7b14610227578063a217fddf1461023a578063a22cb4651461024257600080fd5b8063248a9ca3116100e9578063248a9ca3146101985780632eb2c2d6146101bb5780632f2ff15d146101ce57806336568abe146101e15780634e1273f4146101f457600080fd5b8062fdd58e1461011a57806301ffc9a71461014057806302fe5305146101635780630e89341c14610178575b600080fd5b61012d610128366004610e7b565b6102ec565b6040519081526020015b60405180910390f35b61015361014e366004610ebb565b610314565b6040519015158152602001610137565b610176610171366004610f80565b61031f565b005b61018b610186366004610fd0565b610337565b604051610137919061102f565b61012d6101a6366004610fd0565b60009081526003602052604090206001015490565b6101766101c93660046110f2565b6103cb565b6101766101dc3660046111a5565b610411565b6101766101ef3660046111a5565b61043c565b6102076102023660046111d1565b610474565b60405161013791906112d4565b6101536102223660046111a5565b610540565b610176610235366004610e7b565b61056b565b61012d600081565b6101766102503660046112e7565b6105ec565b610176610263366004611323565b610634565b61012d7f9f2df0fed2c77648de5860a4cc508cd0818c85b8b8a1ab4ceeef8d981c8956a681565b61017661029d3660046111a5565b610717565b6101536102b036600461139d565b6001600160a01b03918216600090815260016020908152604080832093909416825291909152205460ff1690565b6101766101c93660046113c7565b6000818152602081815260408083206001600160a01b03861684529091529020545b92915050565b600061030e8261073c565b600061032a81610761565b6103338261076e565b5050565b6060600280546103469061141f565b80601f01602080910402602001604051908101604052809291908181526020018280546103729061141f565b80156103bf5780601f10610394576101008083540402835291602001916103bf565b820191906000526020600020905b8154815290600101906020018083116103a257829003601f168201915b50505050509050919050565b60405162461bcd60e51b81526020600482015260166024820152754261646765206e6f6e2d7472616e7366657261626c6560501b60448201526064015b60405180910390fd5b60008281526003602052604090206001015461042c81610761565b610436838361077a565b50505050565b6001600160a01b03811633146104655760405163334bd91960e11b815260040160405180910390fd5b61046f828261080e565b505050565b606081518351146104a55781518351604051635b05999160e01b815260048101929092526024820152604401610408565b600083516001600160401b038111156104c0576104c0610edf565b6040519080825280602002602001820160405280156104e9578160200160208202803683370190505b50905060005b845181101561053857602080820286010151610513906020808402870101516102ec565b82828151811061052557610525611459565b60209081029190910101526001016104ef565b509392505050565b60009182526003602090815260408084206001600160a01b0393909316845291905290205460ff1690565b7f9f2df0fed2c77648de5860a4cc508cd0818c85b8b8a1ab4ceeef8d981c8956a661059581610761565b6105b1838360016040518060200160405280600081525061087b565b60405182906001600160a01b038516907fc5e5b314108c1f776c2302351b8278910ddb812b122b2717b1bc973146145e9a90600090a3505050565b60405162461bcd60e51b815260206004820152601860248201527f426164676520617070726f76616c732064697361626c656400000000000000006044820152606401610408565b7f9f2df0fed2c77648de5860a4cc508cd0818c85b8b8a1ab4ceeef8d981c8956a661065e81610761565b60005b83811015610710576106ab85858381811061067e5761067e611459565b9050602002016020810190610693919061146f565b8460016040518060200160405280600081525061087b565b828585838181106106be576106be611459565b90506020020160208101906106d3919061146f565b6001600160a01b03167fc5e5b314108c1f776c2302351b8278910ddb812b122b2717b1bc973146145e9a60405160405180910390a3600101610661565b5050505050565b60008281526003602052604090206001015461073281610761565b610436838361080e565b60006001600160e01b03198216637965db0b60e01b148061030e575061030e826108e0565b61076b8133610930565b50565b600261033382826114d1565b60006107868383610540565b6108065760008381526003602090815260408083206001600160a01b03861684529091529020805460ff191660011790556107be3390565b6001600160a01b0316826001600160a01b0316847f2f8788117e7eff1d82e926ec794901d17c78024a50270940304540a733656f0d60405160405180910390a450600161030e565b50600061030e565b600061081a8383610540565b156108065760008381526003602090815260408083206001600160a01b0386168085529252808320805460ff1916905551339286917ff6391f5c32d9c69d2a47ea670b442974b53935d1edc7fd64eb21e047a839171b9190a450600161030e565b6001600160a01b0384166108a557604051632bfa23e760e11b815260006004820152602401610408565b604080516001808252602082018690528183019081526060820185905260808201909252906108d8600087848487610969565b505050505050565b60006001600160e01b03198216636cdb3d1360e11b148061091157506001600160e01b031982166303a24d0760e21b145b8061030e57506301ffc9a760e01b6001600160e01b031983161461030e565b61093a8282610540565b6103335760405163e2517d3f60e01b81526001600160a01b038216600482015260248101839052604401610408565b610975858585856109bc565b6001600160a01b0384161561071057825133906001036109ae57602084810151908401516109a7838989858589610a35565b50506108d8565b6108d8818787878787610b62565b6001600160a01b038416158015906109dc57506001600160a01b03831615155b15610a295760405162461bcd60e51b815260206004820152601960248201527f4261646765206973206e6f6e2d7472616e7366657261626c65000000000000006044820152606401610408565b61043684848484610c4b565b6001600160a01b0384163b156108d85760405163f23a6e6160e01b81526001600160a01b0385169063f23a6e6190610a79908990899088908890889060040161158f565b6020604051808303816000875af1925050508015610ab4575060408051601f3d908101601f19168201909252610ab1918101906115d4565b60015b610b1d573d808015610ae2576040519150601f19603f3d011682016040523d82523d6000602084013e610ae7565b606091505b508051600003610b1557604051632bfa23e760e11b81526001600160a01b0386166004820152602401610408565b805181602001fd5b6001600160e01b0319811663f23a6e6160e01b14610b5957604051632bfa23e760e11b81526001600160a01b0386166004820152602401610408565b50505050505050565b6001600160a01b0384163b156108d85760405163bc197c8160e01b81526001600160a01b0385169063bc197c8190610ba690899089908890889088906004016115f1565b6020604051808303816000875af1925050508015610be1575060408051601f3d908101601f19168201909252610bde918101906115d4565b60015b610c0f573d808015610ae2576040519150601f19603f3d011682016040523d82523d6000602084013e610ae7565b6001600160e01b0319811663bc197c8160e01b14610b5957604051632bfa23e760e11b81526001600160a01b0386166004820152602401610408565b8051825114610c7a5781518151604051635b05999160e01b815260048101929092526024820152604401610408565b3360005b8351811015610d80576020818102858101820151908501909101516001600160a01b03881615610d31576000828152602081815260408083206001600160a01b038c16845290915290205481811015610d0a576040516303dee4c560e01b81526001600160a01b038a166004820152602481018290526044810183905260648101849052608401610408565b6000838152602081815260408083206001600160a01b038d16845290915290209082900390555b6001600160a01b03871615610d76576000828152602081815260408083206001600160a01b038b16845290915281208054839290610d7090849061164f565b90915550505b5050600101610c7e565b508251600103610e015760208301516000906020840151909150856001600160a01b0316876001600160a01b0316846001600160a01b03167fc3d58168c5ae7397731d063d5bbf3d657854427343f4c083240f7aacaa2d0f628585604051610df2929190918252602082015260400190565b60405180910390a45050610710565b836001600160a01b0316856001600160a01b0316826001600160a01b03167f4a39dc06d4c0dbc64b70af90fd698a233a518aa5d07e595d983b8c0526c8f7fb8686604051610e50929190611670565b60405180910390a45050505050565b80356001600160a01b0381168114610e7657600080fd5b919050565b60008060408385031215610e8e57600080fd5b610e9783610e5f565b946020939093013593505050565b6001600160e01b03198116811461076b57600080fd5b600060208284031215610ecd57600080fd5b8135610ed881610ea5565b9392505050565b634e487b7160e01b600052604160045260246000fd5b604051601f8201601f191681016001600160401b0381118282101715610f1d57610f1d610edf565b604052919050565b6000806001600160401b03841115610f3f57610f3f610edf565b50601f8301601f1916602001610f5481610ef5565b915050828152838383011115610f6957600080fd5b828260208301376000602084830101529392505050565b600060208284031215610f9257600080fd5b81356001600160401b03811115610fa857600080fd5b8201601f81018413610fb957600080fd5b610fc884823560208401610f25565b949350505050565b600060208284031215610fe257600080fd5b5035919050565b6000815180845260005b8181101561100f57602081850181015186830182015201610ff3565b506000602082860101526020601f19601f83011685010191505092915050565b602081526000610ed86020830184610fe9565b60006001600160401b0382111561105b5761105b610edf565b5060051b60200190565b600082601f83011261107657600080fd5b813561108961108482611042565b610ef5565b8082825260208201915060208360051b8601019250858311156110ab57600080fd5b602085015b838110156110c85780358352602092830192016110b0565b5095945050505050565b600082601f8301126110e357600080fd5b610ed883833560208501610f25565b600080600080600060a0868803121561110a57600080fd5b61111386610e5f565b945061112160208701610e5f565b935060408601356001600160401b0381111561113c57600080fd5b61114888828901611065565b93505060608601356001600160401b0381111561116457600080fd5b61117088828901611065565b92505060808601356001600160401b0381111561118c57600080fd5b611198888289016110d2565b9150509295509295909350565b600080604083850312156111b857600080fd5b823591506111c860208401610e5f565b90509250929050565b600080604083850312156111e457600080fd5b82356001600160401b038111156111fa57600080fd5b8301601f8101851361120b57600080fd5b803561121961108482611042565b8082825260208201915060208360051b85010192508783111561123b57600080fd5b6020840193505b828410156112645761125384610e5f565b825260209384019390910190611242565b945050505060208301356001600160401b0381111561128257600080fd5b61128e85828601611065565b9150509250929050565b600081518084526020840193506020830160005b828110156112ca5781518652602095860195909101906001016112ac565b5093949350505050565b602081526000610ed86020830184611298565b600080604083850312156112fa57600080fd5b61130383610e5f565b91506020830135801515811461131857600080fd5b809150509250929050565b60008060006040848603121561133857600080fd5b83356001600160401b0381111561134e57600080fd5b8401601f8101861361135f57600080fd5b80356001600160401b0381111561137557600080fd5b8660208260051b840101111561138a57600080fd5b6020918201979096509401359392505050565b600080604083850312156113b057600080fd5b6113b983610e5f565b91506111c860208401610e5f565b600080600080600060a086880312156113df57600080fd5b6113e886610e5f565b94506113f660208701610e5f565b9350604086013592506060860135915060808601356001600160401b0381111561118c57600080fd5b600181811c9082168061143357607f821691505b60208210810361145357634e487b7160e01b600052602260045260246000fd5b50919050565b634e487b7160e01b600052603260045260246000fd5b60006020828403121561148157600080fd5b610ed882610e5f565b601f82111561046f57806000526020600020601f840160051c810160208510156114b15750805b601f840160051c820191505b8181101561071057600081556001016114bd565b81516001600160401b038111156114ea576114ea610edf565b6114fe816114f8845461141f565b8461148a565b6020601f821160018114611532576000831561151a5750848201515b600019600385901b1c1916600184901b178455610710565b600084815260208120601f198516915b828110156115625787850151825560209485019460019092019101611542565b50848210156115805786840151600019600387901b60f8161c191681555b50505050600190811b01905550565b6001600160a01b03868116825285166020820152604081018490526060810183905260a0608082018190526000906115c990830184610fe9565b979650505050505050565b6000602082840312156115e657600080fd5b8151610ed881610ea5565b6001600160a01b0386811682528516602082015260a06040820181905260009061161d90830186611298565b828103606084015261162f8186611298565b905082810360808401526116438185610fe9565b98975050505050505050565b8082018082111561030e57634e487b7160e01b600052601160045260246000fd5b6040815260006116836040830185611298565b82810360208401526116958185611298565b9594505050505056fea26469706673582212203956c128d6698735de67335e78fe41cf83b77214b82a67720078490450d18b5c64736f6c634300081c0033",
  "linkReferences": {},
  "deployedLinkReferences": {}
}