{
  "_format": "hh-sol-artifact-1",
  "contractName": "Badge1155",
  "sourceName": "contracts/Badge1155.sol",
  "abi": [
    {
      "inputs": [
        {
          "internalType": "string",
          "name": "uri",
          "type": "string"
        },
        {
          "internalType": "address",
          "name": "admin",
          "type": "address"
        }
      ],
      "stateMutability": "nonpayable",
      "type": "constructor"
    },
    {
      "inputs": [],
      "name": "AccessControlBadConfirmation",
      "type": "error"
    },
    {
      "inputs": [
        {
          "internalType": "address",
          "name": "account",
          "type": "address"
        },
        {
          "internalType": "bytes32",
          "name": "neededRole",
          "type": "bytes32"
        }
      ],
      "name": "AccessControlUnauthorizedAccount",
      "type": "error"
    },
    {
      "inputs": [
        {
          "internalType": "address",
          "name": "sender",
          "type": "address"
        },
        {
          "internalType": "uint256",
          "name": "balance",
          "type": "uint256"
        },
        {
          "internalType": "uint256",
          "name": "needed",
          "type": "uint256"
        },
        {
          "internalType": "uint256",
          "name": "tokenId",
          "type": "uint256"
        }
      ],
      "name": "ERC1155InsufficientBalance",
      "type": "error"
    },
    {
      "inputs": [
        {
          "internalType": "address",
          "name": "approver",
          "type": "address"
        }
      ],
      "name": "ERC1155InvalidApprover",
      "type": "error"
    },
    {
      "inputs": [
        {
          "internalType": "uint256",
          "name": "idsLength",
          "type": "uint256"
        },
        {
          "internalType": "uint256",
          "name": "valuesLength",
          "type": "uint256"
        }
      ],
      "name": "ERC1155InvalidArrayLength",
      "type": "error"
    },
    {
      "inputs": [
        {
          "internalType": "address",
          "name": "operator",
          "type": "address"
        }
      ],
      "name": "ERC1155InvalidOperator",
      "type": "error"
    },
    {
      "inputs": [
        {
          "internalType": "address",
          "name": "receiver",
          "type": "address"
        }
      ],
      "name": "ERC1155InvalidReceiver",
      "type": "error"
    },
    {
      "inputs": [
        {
          "internalType": "address",
          "name": "sender",
          "type": "address"
        }
      ],
      "name": "ERC1155InvalidSender",
      "type": "error"
    },
    {
      "inputs": [
        {
          "internalType": "address",
          "name": "operator",
          "type": "address"
        },
        {
          "internalType": "address",
          "name": "owner",
          "type": "address"
        }
      ],
      "name": "ERC1155MissingApprovalForAll",
      "type": "error"
    },
    {
      "anonymous": false,
      "inputs": [
        {
          "indexed": true,
          "internalType": "address",
          "name": "account",
          "type": "address"
        },
        {
          "indexed": true,
          "internalType": "address",
          "name": "operator",
          "type": "address"
        },
        {
          "indexed": false,
          "internalType": "bool",
          "name": "approved",
          "type": "bool"
        }
      ],
      "name": "ApprovalForAll",
      "type": "event"
    },
    {
      "anonymous": false,
      "inputs": [
        {
          "indexed": true,
          "internalType": "address",
          "name": "to",
          "type": "address"
        },
        {
          "indexed": true,
          "internalType": "uint256",
          "name": "courseId",
          "type": "uint256"
        }
      ],
      "name": "BadgeMinted",
      "type": "event"
    },
    {
      "anonymous": false,
      "inputs": [
        {
          "indexed": true,
          "internalType": "bytes32",
          "name": "role",
          "type": "bytes32"
        },
        {
          "indexed": true,
          "internalType": "bytes32",
          "name": "previousAdminRole",
          "type": "bytes32"
        },
        {
          "indexed": true,
          "internalType": "bytes32",
          "name": "newAdminRole",
          "type": "bytes32"
        }
      ],
      "name": "RoleAdminChanged",
      "type": "event"
    },
    {
      "anonymous": false,
      "inputs": [
        {
          "indexed": true,
          "internalType": "bytes32",
          "name": "role",
          "type": "bytes32"
        },
        {
          "indexed": true,
          "internalType": "address",
          "name": "account",
          "type": "address"
        },
        {
          "indexed": true,
          "internalType": "address",
          "name": "sender",
          "type": "address"
        }
      ],
      "name": "RoleGranted",
      "type": "event"
    },
    {
      "anonymous": false,
      "inputs": [
        {
          "indexed": true,
          "internalType": "bytes32",
          "name": "role",
          "type": "bytes32"
        },
        {
          "indexed": true,
          "internalType": "address",
          "name": "account",
          "type": "address"
        },
        {
          "indexed": true,
          "internalType": "address",
          "name": "sender",
          "type": "address"
        }
      ],
      "name": "RoleRevoked",
      "type": "event"
    },
    {
      "anonymous": false,
      "inputs": [
        {
          "indexed": true,
          "internalType": "address",
          "name": "operator",
          "type": "address"
        },
        {
          "indexed": true,
          "internalType": "address",
          "name": "from",
          "type": "address"
        },
        {
          "indexed": true,
          "internalType": "address",
          "name": "to",
          "type": "address"
        },
        {
          "indexed": false,
          "internalType": "uint256[]",
          "name": "ids",
          "type": "uint256[]"
        },
        {
          "indexed": false,
          "internalType": "uint256[]",
          "name": "values",
          "type": "uint256[]"
        }
      ],
      "name": "TransferBatch",
      "type": "event"
    },
    {
      "anonymous": false,
      "inputs": [
        {
          "indexed": true,
          "internalType": "address",
          "name": "operator",
          "type": "address"
        },
        {
          "indexed": true,
          "internalType": "address",
          "name": "from",
          "type": "address"
        },
        {
          "indexed": true,
          "internalType": "address",
          "name": "to",
          "type": "address"
        },
        {
          "indexed": false,
          "internalType": "uint256",
          "name": "id",
          "type": "uint256"
        },
        {
          "indexed": false,
          "internalType": "uint256",
          "name": "value",
          "type": "uint256"
        }
      ],
      "name": "TransferSingle",
      "type": "event"
    },
    {
      "anonymous": false,
      "inputs": [
        {
          "indexed": false,
          "internalType": "string",
          "name": "value",
          "type": "string"
        },
        {
          "indexed": true,
          "internalType": "uint256",
          "name": "id",
          "type": "uint256"
        }
      ],
      "name": "URI",
      "type": "event"
    },
    {
      "inputs": [],
      "name": "DEFAULT_ADMIN_ROLE",
      "outputs": [
        {
          "internalType": "bytes32",
          "name": "",
          "type": "bytes32"
        }
      ],
      "stateMutability": "view",
      "type": "function"
    },
    {
      "inputs": [],
      "name": "MINTER_ROLE",
      "outputs": [
        {
          "internalType": "bytes32",
          "name": "",
          "type": "bytes32"
        }
      ],
      "stateMutability": "view",
      "type": "function"
    },
    {
      "inputs": [
        {
          "internalType": "address",
          "name": "account",
          "type": "address"
        },
        {
          "internalType": "uint256",
          "name": "id",
          "type": "uint256"
        }
      ],
      "name": "balanceOf",
      "outputs": [
        {
          "internalType": "uint256",
          "name": "",
          "type": "uint256"
        }
      ],
      "stateMutability": "view",
      "type": "function"
    },
    {
      "inputs": [
        {
          "internalType": "address[]",
          "name": "accounts",
          "type": "address[]"
        },
        {
          "internalType": "uint256[]",
          "name": "ids",
          "type": "uint256[]"
        }
      ],
      "name": "balanceOfBatch",
      "outputs": [
        {
          "internalType": "uint256[]",
          "name": "",
          "type": "uint256[]"
        }
      ],
      "stateMutability": "view",
      "type": "function"
    },
    {
      "inputs": [
        {
          "internalType": "bytes32",
          "name": "role",
          "type": "bytes32"
        }
      ],
      "name": "getRoleAdmin",
      "outputs": [
        {
          "internalType": "bytes32",
          "name": "",
          "type": "bytes32"
        }
      ],
      "stateMutability": "view",
      "type": "function"
    },
    {
      "inputs": [
        {
          "internalType": "bytes32",
          "name": "role",
          "type": "bytes32"
        },
        {
          "internalType": "address",
          "name": "account",
          "type": "address"
        }
      ],
      "name": "grantRole",
      "outputs": [],
      "stateMutability": "nonpayable",
      "type": "function"
    },
    {
      "inputs": [
        {
          "internalType": "bytes32",
          "name": "role",
          "type": "bytes32"
        },
        {
          "internalType": "address",
          "name": "account",
          "type": "address"
        }
      ],
      "name": "hasRole",
      "outputs": [
        {
          "internalType": "bool",
          "name": "",
          "type": "bool"
        }
      ],
      "stateMutability": "view",
      "type": "function"
    },
    {
      "inputs": [
        {
          "internalType": "address",
          "name": "account",
          "type": "address"
        },
        {
          "internalType": "address",
          "name": "operator",
          "type": "address"
        }
      ],
      "name": "isApprovedForAll",
      "outputs": [
        {
          "internalType": "bool",
          "name": "",
          "type": "bool"
        }
      ],
      "stateMutability": "view",
      "type": "function"
    },
    {
      "inputs": [
        {
          "internalType": "address[]",
          "name": "recipients",
          "type": "address[]"
        },
        {
          "internalType": "uint256",
          "name": "courseId",
          "type": "uint256"
        }
      ],
      "name": "mintBatch",
      "outputs": [],
      "stateMutability": "nonpayable",
      "type": "function"
    },
    {
      "inputs": [
        {
          "internalType": "address",
          "name": "to",
          "type": "address"
        },
        {
          "internalType": "uint256",
          "name": "courseId",
          "type": "uint256"
        }
      ],
      "name": "mintCompletion",
      "outputs": [],
      "stateMutability": "nonpayable",
      "type": "function"
    },
    {
      "inputs": [
        {
          "internalType": "bytes32",
          "name": "role",
          "type": "bytes32"
        },
        {
          "internalType": "address",
          "name": "callerConfirmation",
          "type": "address"
        }
      ],
      "name": "renounceRole",
      "outputs": [],
      "stateMutability": "nonpayable",
      "type": "function"
    },
    {
      "inputs": [
        {
          "internalType": "bytes32",
          "name": "role",
          "type": "bytes32"
        },
        {
          "internalType": "address",
          "name": "account",
          "type": "address"
        }
      ],
      "name": "revokeRole",
      "outputs": [],
      "stateMutability": "nonpayable",
      "type": "function"
    },
    {
      "inputs": [
        {
          "internalType": "address",
          "name": "",
          "type": "address"
        },
        {
          "internalType": "address",
          "name": "",
          "type": "address"
        },
        {
          "internalType": "uint256[]",
          "name": "",
          "type": "uint256[]"
        },
        {
          "internalType": "uint256[]",
          "name": "",
          "type": "uint256[]"
        },
        {
          "internalType": "bytes",
          "name": "",
          "type": "bytes"
        }
      ],
      "name": "safeBatchTransferFrom",
      "outputs": [],
      "stateMutability": "pure",
      "type": "function"
    },
    {
      "inputs": [
        {
          "internalType": "address",
          "name": "",
          "type": "address"
        },
        {
          "internalType": "address",
          "name": "",
          "type": "address"
        },
        {
          "internalType": "uint256",
          "name": "",
          "type": "uint256"
        },
        {
          "internalType": "uint256",
          "name": "",
          "type": "uint256"
        },
        {
          "internalType": "bytes",
          "name": "",
          "type": "bytes"
        }
      ],
      "name": "safeTransferFrom",
      "outputs": [],
      "stateMutability": "pure",
      "type": "function"
    },
    {
      "inputs": [
        {
          "internalType": "address",
          "name": "",
          "type": "address"
        },
        {
          "internalType": "bool",
          "name": "",
          "type": "bool"
        }
      ],
      "name": "setApprovalForAll",
      "outputs": [],
      "stateMutability": "pure",
      "type": "function"
    },
    {
      "inputs": [
        {
          "internalType": "string",
          "name": "newURI",
          "type": "string"
        }
      ],
      "name": "setURI",
      "outputs": [],
      "stateMutability": "nonpayable",
      "type": "function"
    },
    {
      "inputs": [
        {
          "internalType": "bytes4",
          "name": "interfaceId",
          "type": "bytes4"
        }
      ],
      "name": "supportsInterface",
      "outputs": [
        {
          "internalType": "bool",
          "name": "",
          "type": "bool"
        }
      ],
      "stateMutability": "view",
      "type": "function"
    },
    {
      "inputs": [
        {
          "internalType": "uint256",
          "name": "",
          "type": "uint256"
        }
      ],
      "name": "uri",
      "outputs": [
        {
          "internalType": "string",
          "name": "",
          "type": "string"
        }
      ],
      "stateMutability": "view",
      "type": "function"
    }
  ],
  "bytecode": "0x608060405234801561001057600080fd5b50604051611a75380380611a7583398101604081905261002f9161016a565b8161003981610078565b50610045600082610088565b506100707f9f2df0fed2c77648de5860a4cc508cd0818c85b8b8a1ab4ceeef8d981c8956a682610088565b50505061038e565b600261008482826102cf565b5050565b60008281526003602090815260408083206001600160a01b038516845290915281205460ff1661012e5760008381526003602090815260408083206001600160a01b03861684529091529020805460ff191660011790556100e63390565b6001600160a01b0316826001600160a01b0316847f2f8788117e7eff1d82e926ec794901d17c78024a50270940304540a733656f0d60405160405180910390a4506001610132565b5060005b92915050565b634e487b7160e01b600052604160045260246000fd5b80516001600160a01b038116811461016557600080fd5b919050565b6000806040838503121561017d57600080fd5b82516001600160401b038082111561019457600080fd5b818501915085601f8301126101a857600080fd5b8151818111156101ba576101ba610138565b604051601f8201601f19908116603f011681019083821181831017156101e2576101e2610138565b816040528281526020935088848487010111156101fe57600080fd5b600091505b828210156102205784820184015181830185015290830190610203565b600084848301015280965050505061023981860161014e565b925050509250929050565b600181811c9082168061025857607f821691505b60208210810361027857634e487b7160e01b600052602260045260246000fd5b50919050565b601f8211156102ca576000816000526020600020601f850160051c810160208610156102a75750805b601f850160051c820191505b818110156102c6578281556001016102b3565b5050505b505050565b81516001600160401b038111156102e8576102e8610138565b6102fc816102f68454610244565b8461027e565b602080601f83116001811461033157600084156103195750858301515b600019600386901b1c1916600185901b1785556102c6565b600085815260208120601f198616915b8281101561036057888601518255948401946001909101908401610341565b508582101561037e5787850151600019600388901b60f8161c191681555b5050505050600190811b01905550565b6116d88061039d6000396000f3fe608060405234801561001057600080fd5b50600436106101155760003560e01c806391d14854116100a2578063b6afc4dc11610071578063b6afc4dc14610255578063d539139314610268578063d547741f1461028f578063e985e9c5146102a2578063f242432a146102de57600080fd5b806391d14854146102145780639d866a7b14610227578063a217fddf1461023a578063a22cb4651461024257600080fd5b8063248a9ca3116100e9578063248a9ca3146101985780632eb2c2d6146101bb5780632f2ff15d146101ce57806336568abe146101e15780634e1273f4146101f457600080fd5b8062fdd58e1461011a57806301ffc9a71461014057806302fe5305146101635780630e89341c14610178575b600080fd5b61012d610128366004610e7c565b6102ec565b6040519081526020015b60405180910390f35b61015361014e366004610ebc565b610314565b6040519015158152602001610137565b610176610171366004610f7f565b61031f565b005b61018b610186366004610fd0565b610337565b604051610137919061102f565b61012d6101a6366004610fd0565b60009081526003602052604090206001015490565b6101766101c93660046110f5565b6103cb565b6101766101dc36600461119f565b610411565b6101766101ef36600461119f565b61043c565b6102076102023660046111cb565b610474565b60405161013791906112c7565b61015361022236600461119f565b610541565b610176610235366004610e7c565b61056c565b61012d600081565b6101766102503660046112da565b6105ed565b610176610263366004611316565b610635565b61012d7f9f2df0fed2c77648de5860a4cc508cd0818c85b8b8a1ab4ceeef8d981c8956a681565b61017661029d36600461119f565b610718565b6101536102b0366004611391565b6001600160a01b03918216600090815260016020908152604080832093909416825291909152205460ff1690565b6101766101c93660046113bb565b6000818152602081815260408083206001600160a01b03861684529091529020545b92915050565b600061030e8261073d565b600061032a81610762565b6103338261076f565b5050565b60606002805461034690611420565b80601f016020809104026020016040519081016040528092919081815260200182805461037290611420565b80156103bf5780601f10610394576101008083540402835291602001916103bf565b820191906000526020600020905b8154815290600101906020018083116103a257829003601f168201915b50505050509050919050565b60405162461bcd60e51b81526020600482015260166024820152754261646765206e6f6e2d7472616e7366657261626c6560501b60448201526064015b60405180910390fd5b60008281526003602052604090206001015461042c81610762565b610436838361077b565b50505050565b6001600160a01b03811633146104655760405163334bd91960e11b815260040160405180910390fd5b61046f828261080f565b505050565b606081518351146104a55781518351604051635b05999160e01b815260048101929092526024820152604401610408565b6000835167ffffffffffffffff8111156104c1576104c1610ee0565b6040519080825280602002602001820160405280156104ea578160200160208202803683370190505b50905060005b845181101561053957602080820286010151610514906020808402870101516102ec565b8282815181106105265761052661145a565b60209081029190910101526001016104f0565b509392505050565b60009182526003602090815260408084206001600160a01b0393909316845291905290205460ff1690565b7f9f2df0fed2c77648de5860a4cc508cd0818c85b8b8a1ab4ceeef8d981c8956a661059681610762565b6105b2838360016040518060200160405280600081525061087c565b60405182906001600160a01b038516907fc5e5b314108c1f776c2302351b8278910ddb812b122b2717b1bc973146145e9a90600090a3505050565b60405162461bcd60e51b815260206004820152601860248201527f426164676520617070726f76616c732064697361626c656400000000000000006044820152606401610408565b7f9f2df0fed2c77648de5860a4cc508cd0818c85b8b8a1ab4ceeef8d981c8956a661065f81610762565b60005b83811015610711576106ac85858381811061067f5761067f61145a565b90506020020160208101906106949190611470565b8460016040518060200160405280600081525061087c565b828585838181106106bf576106bf61145a565b90506020020160208101906106d49190611470565b6001600160a01b03167fc5e5b314108c1f776c2302351b8278910ddb812b122b2717b1bc973146145e9a60405160405180910390a3600101610662565b5050505050565b60008281526003602052604090206001015461073381610762565b610436838361080f565b60006001600160e01b03198216637965db0b60e01b148061030e575061030e826108e1565b61076c8133610931565b50565b600261033382826114d3565b60006107878383610541565b6108075760008381526003602090815260408083206001600160a01b03861684529091529020805460ff191660011790556107bf3390565b6001600160a01b0316826001600160a01b0316847f2f8788117e7eff1d82e926ec794901d17c78024a50270940304540a733656f0d60405160405180910390a450600161030e565b50600061030e565b600061081b8383610541565b156108075760008381526003602090815260408083206001600160a01b0386168085529252808320805460ff1916905551339286917ff6391f5c32d9c69d2a47ea670b442974b53935d1edc7fd64eb21e047a839171b9190a450600161030e565b6001600160a01b0384166108a657604051632bfa23e760e11b815260006004820152602401610408565b604080516001808252602082018690528183019081526060820185905260808201909252906108d960008784848761096a565b505050505050565b60006001600160e01b03198216636cdb3d1360e11b148061091257506001600160e01b031982166303a24d0760e21b145b8061030e57506301ffc9a760e01b6001600160e01b031983161461030e565b61093b8282610541565b6103335760405163e2517d3f60e01b81526001600160a01b038216600482015260248101839052604401610408565b610976858585856109bd565b6001600160a01b0384161561071157825133906001036109af57602084810151908401516109a8838989858589610a36565b50506108d9565b6108d9818787878787610b63565b6001600160a01b038416158015906109dd57506001600160a01b03831615155b15610a2a5760405162461bcd60e51b815260206004820152601960248201527f4261646765206973206e6f6e2d7472616e7366657261626c65000000000000006044820152606401610408565b61043684848484610c4c565b6001600160a01b0384163b156108d95760405163f23a6e6160e01b81526001600160a01b0385169063f23a6e6190610a7a9089908990889088908890600401611593565b6020604051808303816000875af1925050508015610ab5575060408051601f3d908101601f19168201909252610ab2918101906115d8565b60015b610b1e573d808015610ae3576040519150601f19603f3d011682016040523d82523d6000602084013e610ae8565b606091505b508051600003610b1657604051632bfa23e760e11b81526001600160a01b0386166004820152602401610408565b805181602001fd5b6001600160e01b0319811663f23a6e6160e01b14610b5a57604051632bfa23e760e11b81526001600160a01b0386166004820152602401610408565b50505050505050565b6001600160a01b0384163b156108d95760405163bc197c8160e01b81526001600160a01b0385169063bc197c8190610ba790899089908890889088906004016115f5565b6020604051808303816000875af1925050508015610be2575060408051601f3d908101601f19168201909252610bdf918101906115d8565b60015b610c10573d808015610ae3576040519150601f19603f3d011682016040523d82523d6000602084013e610ae8565b6001600160e01b0319811663bc197c8160e01b14610b5a57604051632bfa23e760e11b81526001600160a01b0386166004820152602401610408565b8051825114610c7b5781518151604051635b05999160e01b815260048101929092526024820152604401610408565b3360005b8351811015610d81576020818102858101820151908501909101516001600160a01b03881615610d32576000828152602081815260408083206001600160a01b038c16845290915290205481811015610d0b576040516303dee4c560e01b81526001600160a01b038a166004820152602481018290526044810183905260648101849052608401610408565b6000838152602081815260408083206001600160a01b038d16845290915290209082900390555b6001600160a01b03871615610d77576000828152602081815260408083206001600160a01b038b16845290915281208054839290610d71908490611653565b90915550505b5050600101610c7f565b508251600103610e025760208301516000906020840151909150856001600160a01b0316876001600160a01b0316846001600160a01b03167fc3d58168c5ae7397731d063d5bbf3d657854427343f4c083240f7aacaa2d0f628585604051610df3929190918252602082015260400190565b60405180910390a45050610711565b836001600160a01b0316856001600160a01b0316826001600160a01b03167f4a39dc06d4c0dbc64b70af90fd698a233a518aa5d07e595d983b8c0526c8f7fb8686604051610e51929190611674565b60405180910390a45050505050565b80356001600160a01b0381168114610e7757600080fd5b919050565b60008060408385031215610e8f57600080fd5b610e9883610e60565b946020939093013593505050565b6001600160e01b03198116811461076c57600080fd5b600060208284031215610ece57600080fd5b8135610ed981610ea6565b9392505050565b634e487b7160e01b600052604160045260246000fd5b604051601f8201601f1916810167ffffffffffffffff81118282101715610f1f57610f1f610ee0565b604052919050565b600067ffffffffffffffff831115610f4157610f41610ee0565b610f54601f8401601f1916602001610ef6565b9050828152838383011115610f6857600080fd5b828260208301376000602084830101529392505050565b600060208284031215610f9157600080fd5b813567ffffffffffffffff811115610fa857600080fd5b8201601f81018413610fb957600080fd5b610fc884823560208401610f27565b949350505050565b600060208284031215610fe257600080fd5b5035919050565b6000815180845260005b8181101561100f57602081850181015186830182015201610ff3565b506000602082860101526020601f19601f83011685010191505092915050565b602081526000610ed96020830184610fe9565b600067ffffffffffffffff82111561105c5761105c610ee0565b5060051b60200190565b600082601f83011261107757600080fd5b8135602061108c61108783611042565b610ef6565b8083825260208201915060208460051b8701019350868411156110ae57600080fd5b602086015b848110156110ca57803583529183019183016110b3565b509695505050505050565b600082601f8301126110e657600080fd5b610ed983833560208501610f27565b600080600080600060a0868803121561110d57600080fd5b61111686610e60565b945061112460208701610e60565b9350604086013567ffffffffffffffff8082111561114157600080fd5b61114d89838a01611066565b9450606088013591508082111561116357600080fd5b61116f89838a01611066565b9350608088013591508082111561118557600080fd5b50611192888289016110d5565b9150509295509295909350565b600080604083850312156111b257600080fd5b823591506111c260208401610e60565b90509250929050565b600080604083850312156111de57600080fd5b823567ffffffffffffffff808211156111f657600080fd5b818501915085601f83011261120a57600080fd5b8135602061121a61108783611042565b82815260059290921b8401810191818101908984111561123957600080fd5b948201945b8386101561125e5761124f86610e60565b8252948201949082019061123e565b9650508601359250508082111561127457600080fd5b5061128185828601611066565b9150509250929050565b60008151808452602080850194506020840160005b838110156112bc578151875295820195908201906001016112a0565b509495945050505050565b602081526000610ed9602083018461128b565b600080604083850312156112ed57600080fd5b6112f683610e60565b91506020830135801515811461130b57600080fd5b809150509250929050565b60008060006040848603121561132b57600080fd5b833567ffffffffffffffff8082111561134357600080fd5b818601915086601f83011261135757600080fd5b81358181111561136657600080fd5b8760208260051b850101111561137b57600080fd5b6020928301989097509590910135949350505050565b600080604083850312156113a457600080fd5b6113ad83610e60565b91506111c260208401610e60565b600080600080600060a086880312156113d357600080fd5b6113dc86610e60565b94506113ea60208701610e60565b93506040860135925060608601359150608086013567ffffffffffffffff81111561141457600080fd5b611192888289016110d5565b600181811c9082168061143457607f821691505b60208210810361145457634e487b7160e01b600052602260045260246000fd5b50919050565b634e487b7160e01b600052603260045260246000fd5b60006020828403121561148257600080fd5b610ed982610e60565b601f82111561046f576000816000526020600020601f850160051c810160208610156114b45750805b601f850160051c820191505b818110156108d9578281556001016114c0565b815167ffffffffffffffff8111156114ed576114ed610ee0565b611501816114fb8454611420565b8461148b565b602080601f831160018114611536576000841561151e5750858301515b600019600386901b1c1916600185901b1785556108d9565b600085815260208120601f198616915b8281101561156557888601518255948401946001909101908401611546565b50858210156115835787850151600019600388901b60f8161c191681555b5050505050600190811b01905550565b6001600160a01b03868116825285166020820152604081018490526060810183905260a0608082018190526000906115cd90830184610fe9565b979650505050505050565b6000602082840312156115ea57600080fd5b8151610ed981610ea6565b6001600160a01b0386811682528516602082015260a0604082018190526000906116219083018661128b565b8281036060840152611633818661128b565b905082810360808401526116478185610fe9565b98975050505050505050565b8082018082111561030e57634e487b7160e01b600052601160045260246000fd5b604081526000611687604083018561128b565b8281036020840152611699818561128b565b9594505050505056fea2646970667358221220f59ad0f216ef7c9da88187c0dc603158269bec19d65d57213388d8a340227c6c64736f6c63430008190033",
  "linkReferences": {},
  "deployedLinkReferences": {}
}