{
  "_format": "hh-sol-artifact-1",
  "contractName": "MembershipPass1155",
  "sourceName": "contracts/MembershipPass1155.sol",
  "abi": [
    {
      "inputs": [
        {
          "internalType": "contract IERC20",
          "name": "usdcToken",
          "type": "address"
        },
        {
          "internalType": "string",
          "name": "uri",
          "type": "string"
        },
        {
          "internalType": "address",
          "name": "admin",
          "type": "address"
        }
      ],
      "stateMutability": "nonpayable",
      "type": "constructor"
    },
    {
      "inputs": [],
      "name": "AccessControlBadConfirmation",
      "type": "error"
    },
    {
      "inputs": [
        {
          "internalType": "address",
          "name": "account",
          "type": "address"
        },
        {
          "internalType": "bytes32",
          "name": "neededRole",
          "type": "bytes32"
        }
      ],
      "name": "AccessControlUnauthorizedAccount",
      "type": "error"
    },
    {
      "inputs": [
        {
          "internalType": "uint256",
          "name": "expected",
          "type": "uint256"
        },
        {
          "internalType": "uint256",
          "name": "provided",
          "type": "uint256"
        }
      ],
      "name": "AmountMismatch",
      "type": "error"
    },
    {
      "inputs": [
        {
          "internalType": "uint256",
          "name": "courseId",
          "type": "uint256"
        }
      ],
      "name": "CourseAlreadyExists",
      "type": "error"
    },
    {
      "inputs": [
        {
          "internalType": "uint256",
          "name": "courseId",
          "type": "uint256"
        }
      ],
      "name": "CourseNotFound",
      "type": "error"
    },
    {
      "inputs": [
        {
          "internalType": "address",
          "name": "sender",
          "type": "address"
        },
        {
          "internalType": "uint256",
          "name": "balance",
          "type": "uint256"
        },
        {
          "internalType": "uint256",
          "name": "needed",
          "type": "uint256"
        },
        {
          "internalType": "uint256",
          "name": "tokenId",
          "type": "uint256"
        }
      ],
      "name": "ERC1155InsufficientBalance",
      "type": "error"
    },
    {
      "inputs": [
        {
          "internalType": "address",
          "name": "approver",
          "type": "address"
        }
      ],
      "name": "ERC1155InvalidApprover",
      "type": "error"
    },
    {
      "inputs": [
        {
          "internalType": "uint256",
          "name": "idsLength",
          "type": "uint256"
        },
        {
          "internalType": "uint256",
          "name": "valuesLength",
          "type": "uint256"
        }
      ],
      "name": "ERC1155InvalidArrayLength",
      "type": "error"
    },
    {
      "inputs": [
        {
          "internalType": "address",
          "name": "operator",
          "type": "address"
        }
      ],
      "name": "ERC1155InvalidOperator",
      "type": "error"
    },
    {
      "inputs": [
        {
          "internalType": "address",
          "name": "receiver",
          "type": "address"
        }
      ],
      "name": "ERC1155InvalidReceiver",
      "type": "error"
    },
    {
      "inputs": [
        {
          "internalType": "address",
          "name": "sender",
          "type": "address"
        }
      ],
      "name": "ERC1155InvalidSender",
      "type": "error"
    },
    {
      "inputs": [
        {
          "internalType": "address",
          "name": "operator",
          "type": "address"
        },
        {
          "internalType": "address",
          "name": "owner",
          "type": "address"
        }
      ],
      "name": "ERC1155MissingApprovalForAll",
      "type": "error"
    },
    {
      "inputs": [],
      "name": "EnforcedPause",
      "type": "error"
    },
    {
      "inputs": [],
      "name": "ExpectedPause",
      "type": "error"
    },
    {
      "inputs": [],
      "name": "InvalidDuration",
      "type": "error"
    },
    {
      "inputs": [],
      "name": "InvalidSplitter",
      "type": "error"
    },
    {
      "inputs": [
        {
          "internalType": "uint256",
          "name": "courseId",
          "type": "uint256"
        },
        {
          "internalType": "address",
          "name": "account",
          "type": "address"
        }
      ],
      "name": "NotCourseCreator",
      "type": "error"
    },
    {
      "inputs": [
        {
          "internalType": "uint256",
          "name": "courseId",
          "type": "uint256"
        },
        {
          "internalType": "address",
          "name": "account",
          "type": "address"
        },
        {
          "internalType": "uint64",
          "name": "expiredAt",
          "type": "uint64"
        }
      ],
      "name": "PassExpired",
      "type": "error"
    },
    {
      "inputs": [],
      "name": "ReentrancyGuardReentrantCall",
      "type": "error"
    },
    {
      "inputs": [
        {
          "internalType": "uint256",
          "name": "courseId",
          "type": "uint256"
        },
        {
          "internalType": "address",
          "name": "account",
          "type": "address"
        }
      ],
      "name": "RenewalNotAllowed",
      "type": "error"
    },
    {
      "inputs": [
        {
          "internalType": "uint256",
          "name": "courseId",
          "type": "uint256"
        },
        {
          "internalType": "address",
          "name": "account",
          "type": "address"
        },
        {
          "internalType": "uint64",
          "name": "availableAt",
          "type": "uint64"
        }
      ],
      "name": "TransferCooldownActive",
      "type": "error"
    },
    {
      "inputs": [
        {
          "internalType": "address",
          "name": "caller",
          "type": "address"
        }
      ],
      "name": "TransferRestricted",
      "type": "error"
    },
    {
      "anonymous": false,
      "inputs": [
        {
          "indexed": true,
          "internalType": "address",
          "name": "account",
          "type": "address"
        },
        {
          "indexed": true,
          "internalType": "address",
          "name": "operator",
          "type": "address"
        },
        {
          "indexed": false,
          "internalType": "bool",
          "name": "approved",
          "type": "bool"
        }
      ],
      "name": "ApprovalForAll",
      "type": "event"
    },
    {
      "anonymous": false,
      "inputs": [
        {
          "indexed": true,
          "internalType": "uint256",
          "name": "courseId",
          "type": "uint256"
        },
        {
          "indexed": false,
          "internalType": "uint64",
          "name": "duration",
          "type": "uint64"
        },
        {
          "indexed": false,
          "internalType": "uint64",
          "name": "transferCooldown",
          "type": "uint64"
        }
      ],
      "name": "CourseConfigUpdated",
      "type": "event"
    },
    {
      "anonymous": false,
      "inputs": [
        {
          "indexed": true,
          "internalType": "uint256",
          "name": "courseId",
          "type": "uint256"
        },
        {
          "indexed": false,
          "internalType": "uint256",
          "name": "priceUSDC",
          "type": "uint256"
        },
        {
          "indexed": true,
          "internalType": "address",
          "name": "splitter",
          "type": "address"
        },
        {
          "indexed": true,
          "internalType": "address",
          "name": "creator",
          "type": "address"
        },
        {
          "indexed": false,
          "internalType": "uint64",
          "name": "duration",
          "type": "uint64"
        },
        {
          "indexed": false,
          "internalType": "uint64",
          "name": "transferCooldown",
          "type": "uint64"
        }
      ],
      "name": "CourseCreated",
      "type": "event"
    },
    {
      "anonymous": false,
      "inputs": [
        {
          "indexed": true,
          "internalType": "uint256",
          "name": "courseId",
          "type": "uint256"
        },
        {
          "indexed": false,
          "internalType": "uint256",
          "name": "oldPrice",
          "type": "uint256"
        },
        {
          "indexed": false,
          "internalType": "uint256",
          "name": "newPrice",
          "type": "uint256"
        }
      ],
      "name": "CoursePriceUpdated",
      "type": "event"
    },
    {
      "anonymous": false,
      "inputs": [
        {
          "indexed": true,
          "internalType": "uint256",
          "name": "courseId",
          "type": "uint256"
        },
        {
          "indexed": false,
          "internalType": "address",
          "name": "oldSplitter",
          "type": "address"
        },
        {
          "indexed": false,
          "internalType": "address",
          "name": "newSplitter",
          "type": "address"
        }
      ],
      "name": "CourseSplitterUpdated",
      "type": "event"
    },
    {
      "anonymous": false,
      "inputs": [
        {
          "indexed": true,
          "internalType": "uint256",
          "name": "courseId",
          "type": "uint256"
        },
        {
          "indexed": true,
          "internalType": "address",
          "name": "buyer",
          "type": "address"
        },
        {
          "indexed": false,
          "internalType": "uint256",
          "name": "amountPaid",
          "type": "uint256"
        },
        {
          "indexed": false,
          "internalType": "uint64",
          "name": "expiresAt",
          "type": "uint64"
        }
      ],
      "name": "PassMinted",
      "type": "event"
    },
    {
      "anonymous": false,
      "inputs": [
        {
          "indexed": true,
          "internalType": "uint256",
          "name": "courseId",
          "type": "uint256"
        },
        {
          "indexed": true,
          "internalType": "address",
          "name": "account",
          "type": "address"
        },
        {
          "indexed": false,
          "internalType": "uint256",
          "name": "amountPaid",
          "type": "uint256"
        },
        {
          "indexed": false,
          "internalType": "uint64",
          "name": "previousExpiry",
          "type": "uint64"
        },
        {
          "indexed": false,
          "internalType": "uint64",
          "name": "newExpiry",
          "type": "uint64"
        }
      ],
      "name": "PassRenewed",
      "type": "event"
    },
    {
      "anonymous": false,
      "inputs": [
        {
          "indexed": true,
          "internalType": "uint256",
          "name": "courseId",
          "type": "uint256"
        },
        {
          "indexed": true,
          "internalType": "address",
          "name": "account",
          "type": "address"
        },
        {
          "indexed": false,
          "internalType": "uint64",
          "name": "expiresAt",
          "type": "uint64"
        },
        {
          "indexed": false,
          "internalType": "uint64",
          "name": "cooldownEndsAt",
          "type": "uint64"
        }
      ],
      "name": "PassStateUpdated",
      "type": "event"
    },
    {
      "anonymous": false,
      "inputs": [
        {
          "indexed": false,
          "internalType": "address",
          "name": "account",
          "type": "address"
        }
      ],
      "name": "Paused",
      "type": "event"
    },
    {
      "anonymous": false,
      "inputs": [
        {
          "indexed": true,
          "internalType": "bytes32",
          "name": "role",
          "type": "bytes32"
        },
        {
          "indexed": true,
          "internalType": "bytes32",
          "name": "previousAdminRole",
          "type": "bytes32"
        },
        {
          "indexed": true,
          "internalType": "bytes32",
          "name": "newAdminRole",
          "type": "bytes32"
        }
      ],
      "name": "RoleAdminChanged",
      "type": "event"
    },
    {
      "anonymous": false,
      "inputs": [
        {
          "indexed": true,
          "internalType": "bytes32",
          "name": "role",
          "type": "bytes32"
        },
        {
          "indexed": true,
          "internalType": "address",
          "name": "account",
          "type": "address"
        },
        {
          "indexed": true,
          "internalType": "address",
          "name": "sender",
          "type": "address"
        }
      ],
      "name": "RoleGranted",
      "type": "event"
    },
    {
      "anonymous": false,
      "inputs": [
        {
          "indexed": true,
          "internalType": "bytes32",
          "name": "role",
          "type": "bytes32"
        },
        {
          "indexed": true,
          "internalType": "address",
          "name": "account",
          "type": "address"
        },
        {
          "indexed": true,
          "internalType": "address",
          "name": "sender",
          "type": "address"
        }
      ],
      "name": "RoleRevoked",
      "type": "event"
    },
    {
      "anonymous": false,
      "inputs": [
        {
          "indexed": true,
          "internalType": "address",
          "name": "operator",
          "type": "address"
        },
        {
          "indexed": true,
          "internalType": "address",
          "name": "from",
          "type": "address"
        },
        {
          "indexed": true,
          "internalType": "address",
          "name": "to",
          "type": "address"
        },
        {
          "indexed": false,
          "internalType": "uint256[]",
          "name": "ids",
          "type": "uint256[]"
        },
        {
          "indexed": false,
          "internalType": "uint256[]",
          "name": "values",
          "type": "uint256[]"
        }
      ],
      "name": "TransferBatch",
      "type": "event"
    },
    {
      "anonymous": false,
      "inputs": [
        {
          "indexed": true,
          "internalType": "address",
          "name": "operator",
          "type": "address"
        },
        {
          "indexed": true,
          "internalType": "address",
          "name": "from",
          "type": "address"
        },
        {
          "indexed": true,
          "internalType": "address",
          "name": "to",
          "type": "address"
        },
        {
          "indexed": false,
          "internalType": "uint256",
          "name": "id",
          "type": "uint256"
        },
        {
          "indexed": false,
          "internalType": "uint256",
          "name": "value",
          "type": "uint256"
        }
      ],
      "name": "TransferSingle",
      "type": "event"
    },
    {
      "anonymous": false,
      "inputs": [
        {
          "indexed": false,
          "internalType": "string",
          "name": "value",
          "type": "string"
        },
        {
          "indexed": true,
          "internalType": "uint256",
          "name": "id",
          "type": "uint256"
        }
      ],
      "name": "URI",
      "type": "event"
    },
    {
      "anonymous": false,
      "inputs": [
        {
          "indexed": false,
          "internalType": "address",
          "name": "account",
          "type": "address"
        }
      ],
      "name": "Unpaused",
      "type": "event"
    },
    {
      "inputs": [],
      "name": "ADMIN_ROLE",
      "outputs": [
        {
          "internalType": "bytes32",
          "name": "",
          "type": "bytes32"
        }
      ],
      "stateMutability": "view",
      "type": "function"
    },
    {
      "inputs": [],
      "name": "CREATOR_ROLE",
      "outputs": [
        {
          "internalType": "bytes32",
          "name": "",
          "type": "bytes32"
        }
      ],
      "stateMutability": "view",
      "type": "function"
    },
    {
      "inputs": [],
      "name": "DEFAULT_ADMIN_ROLE",
      "outputs": [
        {
          "internalType": "bytes32",
          "name": "",
          "type": "bytes32"
        }
      ],
      "stateMutability": "view",
      "type": "function"
    },
    {
      "inputs": [],
      "name": "MARKETPLACE_ROLE",
      "outputs": [
        {
          "internalType": "bytes32",
          "name": "",
          "type": "bytes32"
        }
      ],
      "stateMutability": "view",
      "type": "function"
    },
    {
      "inputs": [],
      "name": "REGISTRAR_ROLE",
      "outputs": [
        {
          "internalType": "bytes32",
          "name": "",
          "type": "bytes32"
        }
      ],
      "stateMutability": "view",
      "type": "function"
    },
    {
      "inputs": [
        {
          "internalType": "address",
          "name": "account",
          "type": "address"
        },
        {
          "internalType": "uint256",
          "name": "id",
          "type": "uint256"
        }
      ],
      "name": "balanceOf",
      "outputs": [
        {
          "internalType": "uint256",
          "name": "",
          "type": "uint256"
        }
      ],
      "stateMutability": "view",
      "type": "function"
    },
    {
      "inputs": [
        {
          "internalType": "address[]",
          "name": "accounts",
          "type": "address[]"
        },
        {
          "internalType": "uint256[]",
          "name": "ids",
          "type": "uint256[]"
        }
      ],
      "name": "balanceOfBatch",
      "outputs": [
        {
          "internalType": "uint256[]",
          "name": "",
          "type": "uint256[]"
        }
      ],
      "stateMutability": "view",
      "type": "function"
    },
    {
      "inputs": [
        {
          "internalType": "uint256",
          "name": "courseId",
          "type": "uint256"
        },
        {
          "internalType": "address",
          "name": "account",
          "type": "address"
        }
      ],
      "name": "canTransfer",
      "outputs": [
        {
          "internalType": "bool",
          "name": "eligible",
          "type": "bool"
        },
        {
          "internalType": "uint64",
          "name": "availableAt",
          "type": "uint64"
        },
        {
          "internalType": "uint64",
          "name": "expiresAt",
          "type": "uint64"
        }
      ],
      "stateMutability": "view",
      "type": "function"
    },
    {
      "inputs": [
        {
          "internalType": "uint256",
          "name": "courseId",
          "type": "uint256"
        },
        {
          "internalType": "uint256",
          "name": "priceUSDC",
          "type": "uint256"
        },
        {
          "internalType": "address",
          "name": "splitter",
          "type": "address"
        },
        {
          "internalType": "address",
          "name": "creator",
          "type": "address"
        },
        {
          "internalType": "uint64",
          "name": "duration",
          "type": "uint64"
        },
        {
          "internalType": "uint64",
          "name": "transferCooldown",
          "type": "uint64"
        }
      ],
      "name": "createCourse",
      "outputs": [],
      "stateMutability": "nonpayable",
      "type": "function"
    },
    {
      "inputs": [
        {
          "internalType": "uint256",
          "name": "id",
          "type": "uint256"
        }
      ],
      "name": "exists",
      "outputs": [
        {
          "internalType": "bool",
          "name": "",
          "type": "bool"
        }
      ],
      "stateMutability": "view",
      "type": "function"
    },
    {
      "inputs": [
        {
          "internalType": "uint256",
          "name": "courseId",
          "type": "uint256"
        },
        {
          "internalType": "address",
          "name": "account",
          "type": "address"
        },
        {
          "internalType": "uint256",
          "name": "amountPaid",
          "type": "uint256"
        },
        {
          "internalType": "uint64",
          "name": "additionalDuration",
          "type": "uint64"
        }
      ],
      "name": "extendPass",
      "outputs": [],
      "stateMutability": "nonpayable",
      "type": "function"
    },
    {
      "inputs": [
        {
          "internalType": "uint256",
          "name": "courseId",
          "type": "uint256"
        }
      ],
      "name": "getCourse",
      "outputs": [
        {
          "components": [
            {
              "internalType": "uint256",
              "name": "priceUSDC",
              "type": "uint256"
            },
            {
              "internalType": "address",
              "name": "splitter",
              "type": "address"
            },
            {
              "internalType": "address",
              "name": "creator",
              "type": "address"
            },
            {
              "internalType": "uint64",
              "name": "duration",
              "type": "uint64"
            },
            {
              "internalType": "uint64",
              "name": "transferCooldown",
              "type": "uint64"
            }
          ],
          "internalType": "struct MembershipPass1155.Course",
          "name": "",
          "type": "tuple"
        }
      ],
      "stateMutability": "view",
      "type": "function"
    },
    {
      "inputs": [
        {
          "internalType": "uint256",
          "name": "courseId",
          "type": "uint256"
        },
        {
          "internalType": "address",
          "name": "account",
          "type": "address"
        }
      ],
      "name": "getPassState",
      "outputs": [
        {
          "components": [
            {
              "internalType": "uint64",
              "name": "expiresAt",
              "type": "uint64"
            },
            {
              "internalType": "uint64",
              "name": "cooldownEndsAt",
              "type": "uint64"
            }
          ],
          "internalType": "struct MembershipPass1155.PassState",
          "name": "",
          "type": "tuple"
        }
      ],
      "stateMutability": "view",
      "type": "function"
    },
    {
      "inputs": [
        {
          "internalType": "bytes32",
          "name": "role",
          "type": "bytes32"
        }
      ],
      "name": "getRoleAdmin",
      "outputs": [
        {
          "internalType": "bytes32",
          "name": "",
          "type": "bytes32"
        }
      ],
      "stateMutability": "view",
      "type": "function"
    },
    {
      "inputs": [
        {
          "internalType": "bytes32",
          "name": "role",
          "type": "bytes32"
        },
        {
          "internalType": "address",
          "name": "account",
          "type": "address"
        }
      ],
      "name": "grantRole",
      "outputs": [],
      "stateMutability": "nonpayable",
      "type": "function"
    },
    {
      "inputs": [
        {
          "internalType": "address",
          "name": "account",
          "type": "address"
        },
        {
          "internalType": "uint256",
          "name": "courseId",
          "type": "uint256"
        }
      ],
      "name": "hasPass",
      "outputs": [
        {
          "internalType": "bool",
          "name": "",
          "type": "bool"
        }
      ],
      "stateMutability": "view",
      "type": "function"
    },
    {
      "inputs": [
        {
          "internalType": "bytes32",
          "name": "role",
          "type": "bytes32"
        },
        {
          "internalType": "address",
          "name": "account",
          "type": "address"
        }
      ],
      "name": "hasRole",
      "outputs": [
        {
          "internalType": "bool",
          "name": "",
          "type": "bool"
        }
      ],
      "stateMutability": "view",
      "type": "function"
    },
    {
      "inputs": [
        {
          "internalType": "address",
          "name": "account",
          "type": "address"
        },
        {
          "internalType": "address",
          "name": "operator",
          "type": "address"
        }
      ],
      "name": "isApprovedForAll",
      "outputs": [
        {
          "internalType": "bool",
          "name": "",
          "type": "bool"
        }
      ],
      "stateMutability": "view",
      "type": "function"
    },
    {
      "inputs": [
        {
          "internalType": "uint256",
          "name": "courseId",
          "type": "uint256"
        },
        {
          "internalType": "address",
          "name": "account",
          "type": "address"
        }
      ],
      "name": "isPassActive",
      "outputs": [
        {
          "internalType": "bool",
          "name": "",
          "type": "bool"
        }
      ],
      "stateMutability": "view",
      "type": "function"
    },
    {
      "inputs": [
        {
          "internalType": "address",
          "name": "to",
          "type": "address"
        },
        {
          "internalType": "uint256",
          "name": "courseId",
          "type": "uint256"
        },
        {
          "internalType": "uint256",
          "name": "amountPaid",
          "type": "uint256"
        }
      ],
      "name": "marketplaceMint",
      "outputs": [],
      "stateMutability": "nonpayable",
      "type": "function"
    },
    {
      "inputs": [],
      "name": "pause",
      "outputs": [],
      "stateMutability": "nonpayable",
      "type": "function"
    },
    {
      "inputs": [],
      "name": "paused",
      "outputs": [
        {
          "internalType": "bool",
          "name": "",
          "type": "bool"
        }
      ],
      "stateMutability": "view",
      "type": "function"
    },
    {
      "inputs": [
        {
          "internalType": "bytes32",
          "name": "role",
          "type": "bytes32"
        },
        {
          "internalType": "address",
          "name": "callerConfirmation",
          "type": "address"
        }
      ],
      "name": "renounceRole",
      "outputs": [],
      "stateMutability": "nonpayable",
      "type": "function"
    },
    {
      "inputs": [
        {
          "internalType": "bytes32",
          "name": "role",
          "type": "bytes32"
        },
        {
          "internalType": "address",
          "name": "account",
          "type": "address"
        }
      ],
      "name": "revokeRole",
      "outputs": [],
      "stateMutability": "nonpayable",
      "type": "function"
    },
    {
      "inputs": [
        {
          "internalType": "address",
          "name": "from",
          "type": "address"
        },
        {
          "internalType": "address",
          "name": "to",
          "type": "address"
        },
        {
          "internalType": "uint256[]",
          "name": "ids",
          "type": "uint256[]"
        },
        {
          "internalType": "uint256[]",
          "name": "values",
          "type": "uint256[]"
        },
        {
          "internalType": "bytes",
          "name": "data",
          "type": "bytes"
        }
      ],
      "name": "safeBatchTransferFrom",
      "outputs": [],
      "stateMutability": "nonpayable",
      "type": "function"
    },
    {
      "inputs": [
        {
          "internalType": "address",
          "name": "from",
          "type": "address"
        },
        {
          "internalType": "address",
          "name": "to",
          "type": "address"
        },
        {
          "internalType": "uint256",
          "name": "id",
          "type": "uint256"
        },
        {
          "internalType": "uint256",
          "name": "value",
          "type": "uint256"
        },
        {
          "internalType": "bytes",
          "name": "data",
          "type": "bytes"
        }
      ],
      "name": "safeTransferFrom",
      "outputs": [],
      "stateMutability": "nonpayable",
      "type": "function"
    },
    {
      "inputs": [
        {
          "internalType": "address",
          "name": "operator",
          "type": "address"
        },
        {
          "internalType": "bool",
          "name": "approved",
          "type": "bool"
        }
      ],
      "name": "setApprovalForAll",
      "outputs": [],
      "stateMutability": "nonpayable",
      "type": "function"
    },
    {
      "inputs": [
        {
          "internalType": "uint256",
          "name": "courseId",
          "type": "uint256"
        },
        {
          "internalType": "uint64",
          "name": "duration",
          "type": "uint64"
        },
        {
          "internalType": "uint64",
          "name": "transferCooldown",
          "type": "uint64"
        }
      ],
      "name": "setCourseConfig",
      "outputs": [],
      "stateMutability": "nonpayable",
      "type": "function"
    },
    {
      "inputs": [
        {
          "internalType": "uint256",
          "name": "courseId",
          "type": "uint256"
        },
        {
          "internalType": "uint256",
          "name": "newPriceUSDC",
          "type": "uint256"
        }
      ],
      "name": "setPrice",
      "outputs": [],
      "stateMutability": "nonpayable",
      "type": "function"
    },
    {
      "inputs": [
        {
          "internalType": "uint256",
          "name": "courseId",
          "type": "uint256"
        },
        {
          "internalType": "address",
          "name": "newSplitter",
          "type": "address"
        }
      ],
      "name": "setSplitter",
      "outputs": [],
      "stateMutability": "nonpayable",
      "type": "function"
    },
    {
      "inputs": [
        {
          "internalType": "string",
          "name": "newURI",
          "type": "string"
        }
      ],
      "name": "setURI",
      "outputs": [],
      "stateMutability": "nonpayable",
      "type": "function"
    },
    {
      "inputs": [
        {
          "internalType": "bytes4",
          "name": "interfaceId",
          "type": "bytes4"
        }
      ],
      "name": "supportsInterface",
      "outputs": [
        {
          "internalType": "bool",
          "name": "",
          "type": "bool"
        }
      ],
      "stateMutability": "view",
      "type": "function"
    },
    {
      "inputs": [],
      "name": "totalSupply",
      "outputs": [
        {
          "internalType": "uint256",
          "name": "",
          "type": "uint256"
        }
      ],
      "stateMutability": "view",
      "type": "function"
    },
    {
      "inputs": [
        {
          "internalType": "uint256",
          "name": "id",
          "type": "uint256"
        }
      ],
      "name": "totalSupply",
      "outputs": [
        {
          "internalType": "uint256",
          "name": "",
          "type": "uint256"
        }
      ],
      "stateMutability": "view",
      "type": "function"
    },
    {
      "inputs": [],
      "name": "unpause",
      "outputs": [],
      "stateMutability": "nonpayable",
      "type": "function"
    },
    {
      "inputs": [
        {
          "internalType": "uint256",
          "name": "",
          "type": "uint256"
        }
      ],
      "name": "uri",
      "outputs": [
        {
          "internalType": "string",
          "name": "",
          "type": "string"
        }
      ],
      "stateMutability": "view",
      "type": "function"
    },
    {
      "inputs": [],
      "name": "usdc",
      "outputs": [
        {
          "internalType": "contract IERC20",
          "name": "",
          "type": "address"
        }
      ],
      "stateMutability": "view",
      "type": "function"
    }
  ],
  "bytecode": "0x60a060405234801561001057600080fd5b5060405161334d38038061334d83398101604081905261002f916101d7565b81610039816100d9565b5060016007556001600160a01b03831661008d5760405162461bcd60e51b8152602060048201526011602482015270555344432061646472657373207a65726f60781b604482015260640160405180910390fd5b6001600160a01b0383166080526100a56000826100e9565b506100d07fa49807205ce4d355092ef5a8a18f56e8913cf4a201fbe287825b095693c21775826100e9565b5050505061040e565b60026100e58282610350565b5050565b60008281526005602090815260408083206001600160a01b038516845290915281205460ff1661018f5760008381526005602090815260408083206001600160a01b03861684529091529020805460ff191660011790556101473390565b6001600160a01b0316826001600160a01b0316847f2f8788117e7eff1d82e926ec794901d17c78024a50270940304540a733656f0d60405160405180910390a4506001610193565b5060005b92915050565b6001600160a01b03811681146101ae57600080fd5b50565b634e487b7160e01b600052604160045260246000fd5b80516101d281610199565b919050565b6000806000606084860312156101ec57600080fd5b83516101f781610199565b60208501519093506001600160401b0381111561021357600080fd5b8401601f8101861361022457600080fd5b80516001600160401b0381111561023d5761023d6101b1565b604051601f8201601f19908116603f011681016001600160401b038111828210171561026b5761026b6101b1565b60405281815282820160200188101561028357600080fd5b60005b828110156102a257602081850181015183830182015201610286565b506000602083830101528094505050506102be604085016101c7565b90509250925092565b600181811c908216806102db57607f821691505b6020821081036102fb57634e487b7160e01b600052602260045260246000fd5b50919050565b601f82111561034b57806000526020600020601f840160051c810160208510156103285750805b601f840160051c820191505b818110156103485760008155600101610334565b50505b505050565b81516001600160401b03811115610369576103696101b1565b61037d8161037784546102c7565b84610301565b6020601f8211600181146103b157600083156103995750848201515b600019600385901b1c1916600184901b178455610348565b600084815260208120601f198516915b828110156103e157878501518255602094850194600190920191016103c1565b50848210156103ff5786840151600019600387901b60f8161c191681555b50505050600190811b01905550565b608051612f2461042960003960006103d60152612f246000f3fe608060405234801561001057600080fd5b50600436106102265760003560e01c80635b64bd3011610130578063a217fddf116100b8578063d547741f1161007c578063d547741f1461060e578063e985e9c514610621578063f242432a14610634578063f68e955314610647578063f7d975771461066e57600080fd5b8063a217fddf146105ab578063a22cb465146105b3578063bd85b039146105c6578063c20728f8146105e6578063c3439f3f146105f957600080fd5b80638456cb59116100ff5780638456cb59146105435780638aeda25a1461054b5780638ec77e761461057257806391d14854146105855780639e9f0e931461059857600080fd5b80635b64bd30146104805780635c975abb1461051057806375b238fc1461051b57806384429c531461053057600080fd5b80632eb2c2d6116101b35780633f4ba83a116101825780633f4ba83a146104105780634e1273f4146104185780634f558e79146104385780634f7efa9c1461045a5780635330040f1461046d57600080fd5b80632eb2c2d6146103985780632f2ff15d146103ab57806336568abe146103be5780633e413bee146103d157600080fd5b80630e2f78ba116101fa5780630e2f78ba146103005780630e89341c1461033a57806318160ddd1461035a5780631e81756214610362578063248a9ca31461037557600080fd5b8062fdd58e1461022b57806301ffc9a71461025157806302fe5305146102745780630b91e28d14610289575b600080fd5b61023e6102393660046125d3565b610681565b6040519081526020015b60405180910390f35b61026461025f366004612613565b6106a9565b6040519015158152602001610248565b6102876102823660046126d1565b6106b4565b005b61029c610297366004612721565b6106d9565b6040516102489190600060a0820190508251825260018060a01b03602084015116602083015260018060a01b0360408401511660408301526001600160401b0360608401511660608301526001600160401b03608084015116608083015292915050565b61031361030e36600461273a565b61070d565b6040805193151584526001600160401b039283166020850152911690820152606001610248565b61034d610348366004612721565b6107df565b60405161024891906127ac565b60045461023e565b6102876103703660046127d6565b610873565b61023e610383366004612721565b60009081526005602052604090206001015490565b6102876103a63660046128cc565b610aad565b6102876103b936600461273a565b610b14565b6102876103cc36600461273a565b610b39565b6103f87f000000000000000000000000000000000000000000000000000000000000000081565b6040516001600160a01b039091168152602001610248565b610287610b71565b61042b61042636600461297f565b610b94565b6040516102489190612a82565b610264610446366004612721565b600090815260036020526040902054151590565b610287610468366004612a95565b610c60565b61026461047b36600461273a565b610d55565b6104e961048e36600461273a565b60408051808201825260008082526020918201819052938452600981528184206001600160a01b03939093168452918252918290208251808401909352546001600160401b038082168452600160401b909104169082015290565b6040805182516001600160401b039081168252602093840151169281019290925201610248565b60065460ff16610264565b61023e600080516020612ecf83398151915281565b61028761053e36600461273a565b610ddf565b610287610ee2565b61023e7f828634d95e775031b9ff576b159a8509d3053581a8c9c4d7d86899e0afcd882f81565b6102646105803660046125d3565b610f02565b61026461059336600461273a565b610f15565b6102876105a6366004612ac8565b610f40565b61023e600081565b6102876105c1366004612b2e565b6111ea565b61023e6105d4366004612721565b60009081526003602052604090205490565b6102876105f4366004612b6a565b6111f5565b61023e600080516020612eaf83398151915281565b61028761061c36600461273a565b611318565b61026461062f366004612ba6565b61133d565b610287610642366004612bd0565b61136b565b61023e7fedcc084d3dcd65a1f7f23c65c46722faca6953d28e43150a467cf43e5c30923881565b61028761067c366004612c28565b6113ca565b6000818152602081815260408083206001600160a01b03861684529091529020545b92915050565b60006106a38261147b565b600080516020612ecf8339815191526106cc816114a0565b6106d5826114aa565b5050565b6040805160a0810182526000808252602082018190529181018290526060810182905260808101919091526106a3826114b6565b60008281526009602090815260408083206001600160a01b038516845282528083208151808301909252546001600160401b03808216808452600160401b909204169282018390529083806107628789610681565b119050600082600001516001600160401b03166000148061079057504283600001516001600160401b031610155b9050600083602001516001600160401b0316600014806107bd57504284602001516001600160401b031611155b90508280156107c95750815b80156107d25750805b9650505050509250925092565b6060600280546107ee90612c4a565b80601f016020809104026020016040519081016040528092919081815260200182805461081a90612c4a565b80156108675780601f1061083c57610100808354040283529160200191610867565b820191906000526020600020905b81548152906001019060200180831161084a57829003601f168201915b50505050509050919050565b61087b611568565b610883611592565b600080516020612eaf83398151915261089b816114a0565b816001600160401b03166000036108c557604051637616640160e01b815260040160405180910390fd5b60006108d0866114b6565b8051909150158015906108e35750805184105b1561091357805160405163ce6b173b60e01b81526004810191909152602481018590526044015b60405180910390fd5b61091d8587610681565b60000361094f5760405163ad34f07b60e01b8152600481018790526001600160a01b038616602482015260440161090a565b60008681526009602090815260408083206001600160a01b03891684529091528120805490916001600160401b039091169042821161098e5742610990565b815b9050600061099e82886115b8565b845467ffffffffffffffff19166001600160401b03821617855590506109c3856115ea565b84546fffffffffffffffff00000000000000001916600160401b6001600160401b0392831602178555604080518a81528583166020820152918316908201526001600160a01b038a16908b907f51573726fe18c158eeed2386d035f788e81c93715351219f73a5493a293f8f449060600160405180910390a38354604080516001600160401b038085168252600160401b90930490921660208301526001600160a01b038b16918c917f6c9b5717d6d84a5cc938c626ff94c2e04f253f5b4f4534c2df896a1a8e2ffda5910160405180910390a3505050505050610aa76001600755565b50505050565b336001600160a01b0386168114801590610ace5750610acc868261133d565b155b15610aff5760405163711bec9160e11b81526001600160a01b0380831660048301528716602482015260440161090a565b610b0c8686868686611617565b505050505050565b600082815260056020526040902060010154610b2f816114a0565b610aa7838361167e565b6001600160a01b0381163314610b625760405163334bd91960e11b815260040160405180910390fd5b610b6c8282611712565b505050565b600080516020612ecf833981519152610b89816114a0565b610b9161177f565b50565b60608151835114610bc55781518351604051635b05999160e01b81526004810192909252602482015260440161090a565b600083516001600160401b03811115610be057610be0612630565b604051908082528060200260200182016040528015610c09578160200160208202803683370190505b50905060005b8451811015610c5857602080820286010151610c3390602080840287010151610681565b828281518110610c4557610c45612c84565b6020908102919091010152600101610c0f565b509392505050565b610c68611568565b610c70611592565b600080516020612eaf833981519152610c88816114a0565b6000610c93846114b6565b805190915015801590610ca65750805183105b15610cd157805160405163ce6b173b60e01b815260048101919091526024810184905260440161090a565b6000610cdc826117d1565b9050610cfa86866001604051806020016040528060008152506117fe565b604080518581526001600160401b03831660208201526001600160a01b0388169187917fbd1b09c41c4f6e036c7158ef71fed4b0a058cccfb14651698db7cbb1b88b2a07910160405180910390a3505050610b6c6001600755565b6000610d618284610681565b600003610d70575060006106a3565b60008381526009602090815260408083206001600160a01b038616845282528083208151808301909252546001600160401b03808216808452600160401b90920416928201929092529103610dc95760019150506106a3565b51426001600160401b0390911610159392505050565b610de7611592565b600082815260086020526040902060018101546001600160a01b0316610e235760405163071a106f60e11b81526004810184905260240161090a565b610e2d833361185b565b610e535760405163266b177160e01b81526004810184905233602482015260440161090a565b6001600160a01b038216610e7a5760405163eed7778f60e01b815260040160405180910390fd5b6001810180546001600160a01b038481166001600160a01b0319831681179093556040805191909216808252602082019390935285917f36297e9bd2a333d7a91dd9a853faeca26ea2cdf6c265d17f963acf30b65935fd91015b60405180910390a250505050565b600080516020612ecf833981519152610efa816114a0565b610b916118a0565b6000610f0e8284610d55565b9392505050565b60009182526005602090815260408084206001600160a01b0393909316845291905290205460ff1690565b610f48611592565b7fedcc084d3dcd65a1f7f23c65c46722faca6953d28e43150a467cf43e5c309238610f72816114a0565b6000878152600860205260409020600101546001600160a01b031615610fae57604051636f7e2eeb60e01b81526004810188905260240161090a565b6001600160a01b038516610fd55760405163eed7778f60e01b815260040160405180910390fd5b6001600160401b038381161480610ff457506001600160401b03828116145b1561101257604051637616640160e01b815260040160405180910390fd5b6040518060a00160405280878152602001866001600160a01b03168152602001856001600160a01b03168152602001846001600160401b03168152602001836001600160401b0316815250600860008981526020019081526020016000206000820151816000015560208201518160010160006101000a8154816001600160a01b0302191690836001600160a01b0316021790555060408201518160020160006101000a8154816001600160a01b0302191690836001600160a01b0316021790555060608201518160020160146101000a8154816001600160401b0302191690836001600160401b0316021790555060808201518160030160006101000a8154816001600160401b0302191690836001600160401b0316021790555090505060006001600160a01b0316846001600160a01b031614611177576111757f828634d95e775031b9ff576b159a8509d3053581a8c9c4d7d86899e0afcd882f8561167e565b505b836001600160a01b0316856001600160a01b0316887fa60ec735ac1d6aaa44f00a1d947cdabb91b1bc88ad363a91dcb1d4b9d96344ce8987876040516111d9939291909283526001600160401b03918216602084015216604082015260600190565b60405180910390a450505050505050565b6106d53383836118dd565b6111fd611592565b600080516020612ecf833981519152611215816114a0565b600084815260086020526040902060018101546001600160a01b03166112515760405163071a106f60e11b81526004810186905260240161090a565b6001600160401b03848116148061127057506001600160401b03838116145b1561128e57604051637616640160e01b815260040160405180910390fd5b60028101805467ffffffffffffffff60a01b1916600160a01b6001600160401b038781169182029290921790925560038301805467ffffffffffffffff1916918616918217905560408051928352602083019190915286917f7de2ba5d395df24f909b467e5f700a471d16fc3ce7f87889e15ae83b6eb31474910160405180910390a25050505050565b600082815260056020526040902060010154611333816114a0565b610aa78383611712565b6001600160a01b03918216600090815260016020908152604080832093909416825291909152205460ff1690565b336001600160a01b038616811480159061138c575061138a868261133d565b155b156113bd5760405163711bec9160e11b81526001600160a01b0380831660048301528716602482015260440161090a565b610b0c8686868686611973565b6113d2611592565b600082815260086020526040902060018101546001600160a01b031661140e5760405163071a106f60e11b81526004810184905260240161090a565b611418833361185b565b61143e5760405163266b177160e01b81526004810184905233602482015260440161090a565b8054828255604080518281526020810185905285917f94400b4ef307fffa575bb3402c4a7f580f0098387e8909e4cc269fedaef8a0379101610ed4565b60006001600160e01b03198216637965db0b60e01b14806106a357506106a382611a01565b610b918133611a51565b60026106d58282612ce1565b6040805160a081018252600080825260208201819052918101829052606081018290526080810191909152600082815260086020908152604091829020825160a0810184528154815260018201546001600160a01b03908116938201849052600283015490811694820194909452600160a01b9093046001600160401b0390811660608501526003909101541660808301526106a35760405163071a106f60e11b81526004810184905260240161090a565b60026007540361158b57604051633ee5aeb560e01b815260040160405180910390fd5b6002600755565b60065460ff16156115b65760405163d93c066560e01b815260040160405180910390fd5b565b60008282016001600160401b038085169082161015610f0e57604051637616640160e01b815260040160405180910390fd5b600081608001516001600160401b031660000361160957506000919050565b6106a34283608001516115b8565b6001600160a01b03841661164157604051632bfa23e760e11b81526000600482015260240161090a565b6001600160a01b03851661166a57604051626a0d4560e21b81526000600482015260240161090a565b6116778585858585611a8a565b5050505050565b600061168a8383610f15565b61170a5760008381526005602090815260408083206001600160a01b03861684529091529020805460ff191660011790556116c23390565b6001600160a01b0316826001600160a01b0316847f2f8788117e7eff1d82e926ec794901d17c78024a50270940304540a733656f0d60405160405180910390a45060016106a3565b5060006106a3565b600061171e8383610f15565b1561170a5760008381526005602090815260408083206001600160a01b0386168085529252808320805460ff1916905551339286917ff6391f5c32d9c69d2a47ea670b442974b53935d1edc7fd64eb21e047a839171b9190a45060016106a3565b611787611add565b6006805460ff191690557f5db9ee0a495bf2e6ff9c91a7834c1ba4fdd244a5e8aa4e537bd38aeae4b073aa335b6040516001600160a01b03909116815260200160405180910390a1565b600081606001516001600160401b03166000036117f057506000919050565b6106a34283606001516115b8565b6001600160a01b03841661182857604051632bfa23e760e11b81526000600482015260240161090a565b60408051600180825260208201869052818301908152606082018590526080820190925290610b0c600087848487611a8a565b6000611875600080516020612ecf83398151915283610f15565b80610f0e575050600091825260086020526040909120600201546001600160a01b0391821691161490565b6118a8611592565b6006805460ff191660011790557f62e78cea01bee320cd4e420270b5ea74000d11b0c9f74754ebdbfc544b05a2586117b43390565b6001600160a01b0382166119065760405162ced3e160e81b81526000600482015260240161090a565b6001600160a01b03838116600081815260016020908152604080832094871680845294825291829020805460ff191686151590811790915591519182527f17307eab39ab6107e8899845ad3d59bd9653f200f220920489ca2b5937696c31910160405180910390a3505050565b6001600160a01b03841661199d57604051632bfa23e760e11b81526000600482015260240161090a565b6001600160a01b0385166119c657604051626a0d4560e21b81526000600482015260240161090a565b604080516001808252602082018690528183019081526060820185905260808201909252906119f88787848487611a8a565b50505050505050565b60006001600160e01b03198216636cdb3d1360e11b1480611a3257506001600160e01b031982166303a24d0760e21b145b806106a357506301ffc9a760e01b6001600160e01b03198316146106a3565b611a5b8282610f15565b6106d55760405163e2517d3f60e01b81526001600160a01b03821660048201526024810183905260440161090a565b611a9685858585611b00565b6001600160a01b038416156116775782513390600103611acf5760208481015190840151611ac8838989858589611c93565b5050610b0c565b610b0c818787878787611db7565b60065460ff166115b657604051638dfc202b60e01b815260040160405180910390fd5b6001600160a01b03841615801590611b2057506001600160a01b03831615155b8015611b415750611b3f600080516020612eaf83398151915233610f15565b155b15611b6157604051630589788760e41b815233600482015260240161090a565b60005b8251811015611c86576000828281518110611b8157611b81612c84565b6020026020010151905060006001600160a01b0316866001600160a01b031603611bce57611bc9848381518110611bba57611bba612c84565b60200260200101518683611ea0565b611c7d565b6001600160a01b038516611c355760096000858481518110611bf257611bf2612c84565b602090810291909101810151825281810192909252604090810160009081206001600160a01b038a168252909252902080546001600160801b0319169055611c7d565b611c59848381518110611c4a57611c4a612c84565b60200260200101518783611fde565b611c7d848381518110611c6e57611c6e612c84565b6020026020010151878761215e565b50600101611b64565b50610aa7848484846122b7565b6001600160a01b0384163b15610b0c5760405163f23a6e6160e01b81526001600160a01b0385169063f23a6e6190611cd79089908990889088908890600401612d9f565b6020604051808303816000875af1925050508015611d12575060408051601f3d908101601f19168201909252611d0f91810190612de4565b60015b611d7b573d808015611d40576040519150601f19603f3d011682016040523d82523d6000602084013e611d45565b606091505b508051600003611d7357604051632bfa23e760e11b81526001600160a01b038616600482015260240161090a565b805181602001fd5b6001600160e01b0319811663f23a6e6160e01b146119f857604051632bfa23e760e11b81526001600160a01b038616600482015260240161090a565b6001600160a01b0384163b15610b0c5760405163bc197c8160e01b81526001600160a01b0385169063bc197c8190611dfb9089908990889088908890600401612e01565b6020604051808303816000875af1925050508015611e36575060408051601f3d908101601f19168201909252611e3391810190612de4565b60015b611e64573d808015611d40576040519150601f19603f3d011682016040523d82523d6000602084013e611d45565b6001600160e01b0319811663bc197c8160e01b146119f857604051632bfa23e760e11b81526001600160a01b038616600482015260240161090a565b80600114611efa5760405162461bcd60e51b815260206004820152602160248201527f4d656d62657273686970206d696e7473207265717569726520616d6f756e74206044820152603160f81b606482015260840161090a565b6000611f05846114b6565b90506000611f12826117d1565b90506000611f1f836115ea565b6040805180820182526001600160401b038086168252808416602080840191825260008c8152600982528581206001600160a01b038d1680835292528590209351845492518416600160401b026001600160801b03199093169316929092171790915590519192509087907f6c9b5717d6d84a5cc938c626ff94c2e04f253f5b4f4534c2df896a1a8e2ffda590611fce90869086906001600160401b0392831681529116602082015260400190565b60405180910390a3505050505050565b8060011461203c5760405162461bcd60e51b815260206004820152602560248201527f4d656d62657273686970207472616e7366657273207265717569726520616d6f604482015264756e74203160d81b606482015260840161090a565b6001600160a01b03821615610b6c5760008381526009602090815260408083206001600160a01b03861684528252918290208251808401909352546001600160401b03808216808552600160401b9092041691830191909152158015906120af57504281600001516001600160401b0316105b156120f157805160405163018f520b60e01b8152600481018690526001600160a01b03851660248201526001600160401b03909116604482015260640161090a565b60208101516001600160401b03161580159061211957504281602001516001600160401b0316115b15610aa7576020810151604051630b38c21360e21b8152600481018690526001600160a01b03851660248201526001600160401b03909116604482015260640161090a565b60008381526009602090815260408083206001600160a01b038616808552818452828520835180850190945280546001600160401b038082168652600160401b82041685870152918652919093526001600160801b0319909216909155906121c5856114b6565b9050600081608001516001600160401b03166000146121f1576121ec4283608001516115b8565b6121f4565b60005b83516040805180820182526001600160401b038084168252808516602080840191825260008d8152600982528581206001600160a01b038d1680835292528590209351845492518416600160401b026001600160801b0319909316931692909217179091559051929350909188907f6c9b5717d6d84a5cc938c626ff94c2e04f253f5b4f4534c2df896a1a8e2ffda5906122a690859087906001600160401b0392831681529116602082015260400190565b60405180910390a350505050505050565b6122c3848484846123a3565b6001600160a01b038416612343576000805b8351811015612329576020818102848101820151908601820151600090815260039092526040822080549192839261230e908490612e5f565b9091555061231e90508184612e5f565b9250506001016122d5565b50806004600082825461233c9190612e5f565b9091555050505b6001600160a01b038316610aa7576000805b8351811015612392576020818102848101820151908601820151600090815260039092526040909120805482900390559190910190600101612355565b506004805491909103905550505050565b80518251146123d25781518151604051635b05999160e01b81526004810192909252602482015260440161090a565b3360005b83518110156124d8576020818102858101820151908501909101516001600160a01b03881615612489576000828152602081815260408083206001600160a01b038c16845290915290205481811015612462576040516303dee4c560e01b81526001600160a01b038a16600482015260248101829052604481018390526064810184905260840161090a565b6000838152602081815260408083206001600160a01b038d16845290915290209082900390555b6001600160a01b038716156124ce576000828152602081815260408083206001600160a01b038b168452909152812080548392906124c8908490612e5f565b90915550505b50506001016123d6565b5082516001036125595760208301516000906020840151909150856001600160a01b0316876001600160a01b0316846001600160a01b03167fc3d58168c5ae7397731d063d5bbf3d657854427343f4c083240f7aacaa2d0f62858560405161254a929190918252602082015260400190565b60405180910390a45050611677565b836001600160a01b0316856001600160a01b0316826001600160a01b03167f4a39dc06d4c0dbc64b70af90fd698a233a518aa5d07e595d983b8c0526c8f7fb86866040516125a8929190612e80565b60405180910390a45050505050565b80356001600160a01b03811681146125ce57600080fd5b919050565b600080604083850312156125e657600080fd5b6125ef836125b7565b946020939093013593505050565b6001600160e01b031981168114610b9157600080fd5b60006020828403121561262557600080fd5b8135610f0e816125fd565b634e487b7160e01b600052604160045260246000fd5b604051601f8201601f191681016001600160401b038111828210171561266e5761266e612630565b604052919050565b6000806001600160401b0384111561269057612690612630565b50601f8301601f19166020016126a581612646565b9150508281528383830111156126ba57600080fd5b828260208301376000602084830101529392505050565b6000602082840312156126e357600080fd5b81356001600160401b038111156126f957600080fd5b8201601f8101841361270a57600080fd5b61271984823560208401612676565b949350505050565b60006020828403121561273357600080fd5b5035919050565b6000806040838503121561274d57600080fd5b8235915061275d602084016125b7565b90509250929050565b6000815180845260005b8181101561278c57602081850181015186830182015201612770565b506000602082860101526020601f19601f83011685010191505092915050565b602081526000610f0e6020830184612766565b80356001600160401b03811681146125ce57600080fd5b600080600080608085870312156127ec57600080fd5b843593506127fc602086016125b7565b925060408501359150612811606086016127bf565b905092959194509250565b60006001600160401b0382111561283557612835612630565b5060051b60200190565b600082601f83011261285057600080fd5b813561286361285e8261281c565b612646565b8082825260208201915060208360051b86010192508583111561288557600080fd5b602085015b838110156128a257803583526020928301920161288a565b5095945050505050565b600082601f8301126128bd57600080fd5b610f0e83833560208501612676565b600080600080600060a086880312156128e457600080fd5b6128ed866125b7565b94506128fb602087016125b7565b935060408601356001600160401b0381111561291657600080fd5b6129228882890161283f565b93505060608601356001600160401b0381111561293e57600080fd5b61294a8882890161283f565b92505060808601356001600160401b0381111561296657600080fd5b612972888289016128ac565b9150509295509295909350565b6000806040838503121561299257600080fd5b82356001600160401b038111156129a857600080fd5b8301601f810185136129b957600080fd5b80356129c761285e8261281c565b8082825260208201915060208360051b8501019250878311156129e957600080fd5b6020840193505b82841015612a1257612a01846125b7565b8252602093840193909101906129f0565b945050505060208301356001600160401b03811115612a3057600080fd5b612a3c8582860161283f565b9150509250929050565b600081518084526020840193506020830160005b82811015612a78578151865260209586019590910190600101612a5a565b5093949350505050565b602081526000610f0e6020830184612a46565b600080600060608486031215612aaa57600080fd5b612ab3846125b7565b95602085013595506040909401359392505050565b60008060008060008060c08789031215612ae157600080fd5b8635955060208701359450612af8604088016125b7565b9350612b06606088016125b7565b9250612b14608088016127bf565b9150612b2260a088016127bf565b90509295509295509295565b60008060408385031215612b4157600080fd5b612b4a836125b7565b915060208301358015158114612b5f57600080fd5b809150509250929050565b600080600060608486031215612b7f57600080fd5b83359250612b8f602085016127bf565b9150612b9d604085016127bf565b90509250925092565b60008060408385031215612bb957600080fd5b612bc2836125b7565b915061275d602084016125b7565b600080600080600060a08688031215612be857600080fd5b612bf1866125b7565b9450612bff602087016125b7565b9350604086013592506060860135915060808601356001600160401b0381111561296657600080fd5b60008060408385031215612c3b57600080fd5b50508035926020909101359150565b600181811c90821680612c5e57607f821691505b602082108103612c7e57634e487b7160e01b600052602260045260246000fd5b50919050565b634e487b7160e01b600052603260045260246000fd5b601f821115610b6c57806000526020600020601f840160051c81016020851015612cc15750805b601f840160051c820191505b818110156116775760008155600101612ccd565b81516001600160401b03811115612cfa57612cfa612630565b612d0e81612d088454612c4a565b84612c9a565b6020601f821160018114612d425760008315612d2a5750848201515b600019600385901b1c1916600184901b178455611677565b600084815260208120601f198516915b82811015612d725787850151825560209485019460019092019101612d52565b5084821015612d905786840151600019600387901b60f8161c191681555b50505050600190811b01905550565b6001600160a01b03868116825285166020820152604081018490526060810183905260a060808201819052600090612dd990830184612766565b979650505050505050565b600060208284031215612df657600080fd5b8151610f0e816125fd565b6001600160a01b0386811682528516602082015260a060408201819052600090612e2d90830186612a46565b8281036060840152612e3f8186612a46565b90508281036080840152612e538185612766565b98975050505050505050565b808201808211156106a357634e487b7160e01b600052601160045260246000fd5b604081526000612e936040830185612a46565b8281036020840152612ea58185612a46565b9594505050505056fe0ea61da3a8a09ad801432653699f8c1860b1ae9d2ea4a141fadfd63227717bc8a49807205ce4d355092ef5a8a18f56e8913cf4a201fbe287825b095693c21775a26469706673582212208a705180baa99ead88bc0174aaf779bd0a5ae4e9c779b403796c89c111078c2964736f6c634300081c0033",
  "linkReferences": {},
  "deployedLinkReferences": {}
}