{
  "_format": "hh-sol-artifact-1",
  "contractName": "MembershipPass1155",
  "sourceName": "contracts/MembershipPass1155.sol",
  "abi": [
    {
      "inputs": [
        {
          "internalType": "contract IERC20",
          "name": "usdcToken",
          "type": "address"
        },
        {
          "internalType": "string",
          "name": "uri",
          "type": "string"
        },
        {
          "internalType": "address",
          "name": "admin",
          "type": "address"
        }
      ],
      "stateMutability": "nonpayable",
      "type": "constructor"
    },
    {
      "inputs": [],
      "name": "AccessControlBadConfirmation",
      "type": "error"
    },
    {
      "inputs": [
        {
          "internalType": "address",
          "name": "account",
          "type": "address"
        },
        {
          "internalType": "bytes32",
          "name": "neededRole",
          "type": "bytes32"
        }
      ],
      "name": "AccessControlUnauthorizedAccount",
      "type": "error"
    },
    {
      "inputs": [
        {
          "internalType": "uint256",
          "name": "expected",
          "type": "uint256"
        },
        {
          "internalType": "uint256",
          "name": "provided",
          "type": "uint256"
        }
      ],
      "name": "AmountMismatch",
      "type": "error"
    },
    {
      "inputs": [
        {
          "internalType": "uint256",
          "name": "courseId",
          "type": "uint256"
        }
      ],
      "name": "CourseAlreadyExists",
      "type": "error"
    },
    {
      "inputs": [
        {
          "internalType": "uint256",
          "name": "courseId",
          "type": "uint256"
        }
      ],
      "name": "CourseNotFound",
      "type": "error"
    },
    {
      "inputs": [
        {
          "internalType": "address",
          "name": "sender",
          "type": "address"
        },
        {
          "internalType": "uint256",
          "name": "balance",
          "type": "uint256"
        },
        {
          "internalType": "uint256",
          "name": "needed",
          "type": "uint256"
        },
        {
          "internalType": "uint256",
          "name": "tokenId",
          "type": "uint256"
        }
      ],
      "name": "ERC1155InsufficientBalance",
      "type": "error"
    },
    {
      "inputs": [
        {
          "internalType": "address",
          "name": "approver",
          "type": "address"
        }
      ],
      "name": "ERC1155InvalidApprover",
      "type": "error"
    },
    {
      "inputs": [
        {
          "internalType": "uint256",
          "name": "idsLength",
          "type": "uint256"
        },
        {
          "internalType": "uint256",
          "name": "valuesLength",
          "type": "uint256"
        }
      ],
      "name": "ERC1155InvalidArrayLength",
      "type": "error"
    },
    {
      "inputs": [
        {
          "internalType": "address",
          "name": "operator",
          "type": "address"
        }
      ],
      "name": "ERC1155InvalidOperator",
      "type": "error"
    },
    {
      "inputs": [
        {
          "internalType": "address",
          "name": "receiver",
          "type": "address"
        }
      ],
      "name": "ERC1155InvalidReceiver",
      "type": "error"
    },
    {
      "inputs": [
        {
          "internalType": "address",
          "name": "sender",
          "type": "address"
        }
      ],
      "name": "ERC1155InvalidSender",
      "type": "error"
    },
    {
      "inputs": [
        {
          "internalType": "address",
          "name": "operator",
          "type": "address"
        },
        {
          "internalType": "address",
          "name": "owner",
          "type": "address"
        }
      ],
      "name": "ERC1155MissingApprovalForAll",
      "type": "error"
    },
    {
      "inputs": [],
      "name": "EnforcedPause",
      "type": "error"
    },
    {
      "inputs": [],
      "name": "ExpectedPause",
      "type": "error"
    },
    {
      "inputs": [],
      "name": "InvalidDuration",
      "type": "error"
    },
    {
      "inputs": [],
      "name": "InvalidSplitter",
      "type": "error"
    },
    {
      "inputs": [
        {
          "internalType": "uint256",
          "name": "courseId",
          "type": "uint256"
        },
        {
          "internalType": "address",
          "name": "account",
          "type": "address"
        }
      ],
      "name": "NotCourseCreator",
      "type": "error"
    },
    {
      "inputs": [
        {
          "internalType": "uint256",
          "name": "courseId",
          "type": "uint256"
        },
        {
          "internalType": "address",
          "name": "account",
          "type": "address"
        },
        {
          "internalType": "uint64",
          "name": "expiredAt",
          "type": "uint64"
        }
      ],
      "name": "PassExpired",
      "type": "error"
    },
    {
      "inputs": [],
      "name": "ReentrancyGuardReentrantCall",
      "type": "error"
    },
    {
      "inputs": [
        {
          "internalType": "uint256",
          "name": "courseId",
          "type": "uint256"
        },
        {
          "internalType": "address",
          "name": "account",
          "type": "address"
        }
      ],
      "name": "RenewalNotAllowed",
      "type": "error"
    },
    {
      "inputs": [
        {
          "internalType": "uint256",
          "name": "courseId",
          "type": "uint256"
        },
        {
          "internalType": "address",
          "name": "account",
          "type": "address"
        },
        {
          "internalType": "uint64",
          "name": "availableAt",
          "type": "uint64"
        }
      ],
      "name": "TransferCooldownActive",
      "type": "error"
    },
    {
      "inputs": [
        {
          "internalType": "address",
          "name": "caller",
          "type": "address"
        }
      ],
      "name": "TransferRestricted",
      "type": "error"
    },
    {
      "anonymous": false,
      "inputs": [
        {
          "indexed": true,
          "internalType": "address",
          "name": "account",
          "type": "address"
        },
        {
          "indexed": true,
          "internalType": "address",
          "name": "operator",
          "type": "address"
        },
        {
          "indexed": false,
          "internalType": "bool",
          "name": "approved",
          "type": "bool"
        }
      ],
      "name": "ApprovalForAll",
      "type": "event"
    },
    {
      "anonymous": false,
      "inputs": [
        {
          "indexed": true,
          "internalType": "uint256",
          "name": "courseId",
          "type": "uint256"
        },
        {
          "indexed": false,
          "internalType": "uint64",
          "name": "duration",
          "type": "uint64"
        },
        {
          "indexed": false,
          "internalType": "uint64",
          "name": "transferCooldown",
          "type": "uint64"
        }
      ],
      "name": "CourseConfigUpdated",
      "type": "event"
    },
    {
      "anonymous": false,
      "inputs": [
        {
          "indexed": true,
          "internalType": "uint256",
          "name": "courseId",
          "type": "uint256"
        },
        {
          "indexed": false,
          "internalType": "uint256",
          "name": "priceUSDC",
          "type": "uint256"
        },
        {
          "indexed": true,
          "internalType": "address",
          "name": "splitter",
          "type": "address"
        },
        {
          "indexed": true,
          "internalType": "address",
          "name": "creator",
          "type": "address"
        },
        {
          "indexed": false,
          "internalType": "uint64",
          "name": "duration",
          "type": "uint64"
        },
        {
          "indexed": false,
          "internalType": "uint64",
          "name": "transferCooldown",
          "type": "uint64"
        }
      ],
      "name": "CourseCreated",
      "type": "event"
    },
    {
      "anonymous": false,
      "inputs": [
        {
          "indexed": true,
          "internalType": "uint256",
          "name": "courseId",
          "type": "uint256"
        },
        {
          "indexed": false,
          "internalType": "uint256",
          "name": "oldPrice",
          "type": "uint256"
        },
        {
          "indexed": false,
          "internalType": "uint256",
          "name": "newPrice",
          "type": "uint256"
        }
      ],
      "name": "CoursePriceUpdated",
      "type": "event"
    },
    {
      "anonymous": false,
      "inputs": [
        {
          "indexed": true,
          "internalType": "uint256",
          "name": "courseId",
          "type": "uint256"
        },
        {
          "indexed": false,
          "internalType": "address",
          "name": "oldSplitter",
          "type": "address"
        },
        {
          "indexed": false,
          "internalType": "address",
          "name": "newSplitter",
          "type": "address"
        }
      ],
      "name": "CourseSplitterUpdated",
      "type": "event"
    },
    {
      "anonymous": false,
      "inputs": [
        {
          "indexed": true,
          "internalType": "uint256",
          "name": "courseId",
          "type": "uint256"
        },
        {
          "indexed": true,
          "internalType": "address",
          "name": "buyer",
          "type": "address"
        },
        {
          "indexed": false,
          "internalType": "uint256",
          "name": "amountPaid",
          "type": "uint256"
        },
        {
          "indexed": false,
          "internalType": "uint64",
          "name": "expiresAt",
          "type": "uint64"
        }
      ],
      "name": "PassMinted",
      "type": "event"
    },
    {
      "anonymous": false,
      "inputs": [
        {
          "indexed": true,
          "internalType": "uint256",
          "name": "courseId",
          "type": "uint256"
        },
        {
          "indexed": true,
          "internalType": "address",
          "name": "account",
          "type": "address"
        },
        {
          "indexed": false,
          "internalType": "uint256",
          "name": "amountPaid",
          "type": "uint256"
        },
        {
          "indexed": false,
          "internalType": "uint64",
          "name": "previousExpiry",
          "type": "uint64"
        },
        {
          "indexed": false,
          "internalType": "uint64",
          "name": "newExpiry",
          "type": "uint64"
        }
      ],
      "name": "PassRenewed",
      "type": "event"
    },
    {
      "anonymous": false,
      "inputs": [
        {
          "indexed": true,
          "internalType": "uint256",
          "name": "courseId",
          "type": "uint256"
        },
        {
          "indexed": true,
          "internalType": "address",
          "name": "account",
          "type": "address"
        },
        {
          "indexed": false,
          "internalType": "uint64",
          "name": "expiresAt",
          "type": "uint64"
        },
        {
          "indexed": false,
          "internalType": "uint64",
          "name": "cooldownEndsAt",
          "type": "uint64"
        }
      ],
      "name": "PassStateUpdated",
      "type": "event"
    },
    {
      "anonymous": false,
      "inputs": [
        {
          "indexed": false,
          "internalType": "address",
          "name": "account",
          "type": "address"
        }
      ],
      "name": "Paused",
      "type": "event"
    },
    {
      "anonymous": false,
      "inputs": [
        {
          "indexed": true,
          "internalType": "bytes32",
          "name": "role",
          "type": "bytes32"
        },
        {
          "indexed": true,
          "internalType": "bytes32",
          "name": "previousAdminRole",
          "type": "bytes32"
        },
        {
          "indexed": true,
          "internalType": "bytes32",
          "name": "newAdminRole",
          "type": "bytes32"
        }
      ],
      "name": "RoleAdminChanged",
      "type": "event"
    },
    {
      "anonymous": false,
      "inputs": [
        {
          "indexed": true,
          "internalType": "bytes32",
          "name": "role",
          "type": "bytes32"
        },
        {
          "indexed": true,
          "internalType": "address",
          "name": "account",
          "type": "address"
        },
        {
          "indexed": true,
          "internalType": "address",
          "name": "sender",
          "type": "address"
        }
      ],
      "name": "RoleGranted",
      "type": "event"
    },
    {
      "anonymous": false,
      "inputs": [
        {
          "indexed": true,
          "internalType": "bytes32",
          "name": "role",
          "type": "bytes32"
        },
        {
          "indexed": true,
          "internalType": "address",
          "name": "account",
          "type": "address"
        },
        {
          "indexed": true,
          "internalType": "address",
          "name": "sender",
          "type": "address"
        }
      ],
      "name": "RoleRevoked",
      "type": "event"
    },
    {
      "anonymous": false,
      "inputs": [
        {
          "indexed": true,
          "internalType": "address",
          "name": "operator",
          "type": "address"
        },
        {
          "indexed": true,
          "internalType": "address",
          "name": "from",
          "type": "address"
        },
        {
          "indexed": true,
          "internalType": "address",
          "name": "to",
          "type": "address"
        },
        {
          "indexed": false,
          "internalType": "uint256[]",
          "name": "ids",
          "type": "uint256[]"
        },
        {
          "indexed": false,
          "internalType": "uint256[]",
          "name": "values",
          "type": "uint256[]"
        }
      ],
      "name": "TransferBatch",
      "type": "event"
    },
    {
      "anonymous": false,
      "inputs": [
        {
          "indexed": true,
          "internalType": "address",
          "name": "operator",
          "type": "address"
        },
        {
          "indexed": true,
          "internalType": "address",
          "name": "from",
          "type": "address"
        },
        {
          "indexed": true,
          "internalType": "address",
          "name": "to",
          "type": "address"
        },
        {
          "indexed": false,
          "internalType": "uint256",
          "name": "id",
          "type": "uint256"
        },
        {
          "indexed": false,
          "internalType": "uint256",
          "name": "value",
          "type": "uint256"
        }
      ],
      "name": "TransferSingle",
      "type": "event"
    },
    {
      "anonymous": false,
      "inputs": [
        {
          "indexed": false,
          "internalType": "string",
          "name": "value",
          "type": "string"
        },
        {
          "indexed": true,
          "internalType": "uint256",
          "name": "id",
          "type": "uint256"
        }
      ],
      "name": "URI",
      "type": "event"
    },
    {
      "anonymous": false,
      "inputs": [
        {
          "indexed": false,
          "internalType": "address",
          "name": "account",
          "type": "address"
        }
      ],
      "name": "Unpaused",
      "type": "event"
    },
    {
      "inputs": [],
      "name": "ADMIN_ROLE",
      "outputs": [
        {
          "internalType": "bytes32",
          "name": "",
          "type": "bytes32"
        }
      ],
      "stateMutability": "view",
      "type": "function"
    },
    {
      "inputs": [],
      "name": "CREATOR_ROLE",
      "outputs": [
        {
          "internalType": "bytes32",
          "name": "",
          "type": "bytes32"
        }
      ],
      "stateMutability": "view",
      "type": "function"
    },
    {
      "inputs": [],
      "name": "DEFAULT_ADMIN_ROLE",
      "outputs": [
        {
          "internalType": "bytes32",
          "name": "",
          "type": "bytes32"
        }
      ],
      "stateMutability": "view",
      "type": "function"
    },
    {
      "inputs": [],
      "name": "MARKETPLACE_ROLE",
      "outputs": [
        {
          "internalType": "bytes32",
          "name": "",
          "type": "bytes32"
        }
      ],
      "stateMutability": "view",
      "type": "function"
    },
    {
      "inputs": [],
      "name": "REGISTRAR_ROLE",
      "outputs": [
        {
          "internalType": "bytes32",
          "name": "",
          "type": "bytes32"
        }
      ],
      "stateMutability": "view",
      "type": "function"
    },
    {
      "inputs": [
        {
          "internalType": "address",
          "name": "account",
          "type": "address"
        },
        {
          "internalType": "uint256",
          "name": "id",
          "type": "uint256"
        }
      ],
      "name": "balanceOf",
      "outputs": [
        {
          "internalType": "uint256",
          "name": "",
          "type": "uint256"
        }
      ],
      "stateMutability": "view",
      "type": "function"
    },
    {
      "inputs": [
        {
          "internalType": "address[]",
          "name": "accounts",
          "type": "address[]"
        },
        {
          "internalType": "uint256[]",
          "name": "ids",
          "type": "uint256[]"
        }
      ],
      "name": "balanceOfBatch",
      "outputs": [
        {
          "internalType": "uint256[]",
          "name": "",
          "type": "uint256[]"
        }
      ],
      "stateMutability": "view",
      "type": "function"
    },
    {
      "inputs": [
        {
          "internalType": "uint256",
          "name": "courseId",
          "type": "uint256"
        },
        {
          "internalType": "address",
          "name": "account",
          "type": "address"
        }
      ],
      "name": "canTransfer",
      "outputs": [
        {
          "internalType": "bool",
          "name": "eligible",
          "type": "bool"
        },
        {
          "internalType": "uint64",
          "name": "availableAt",
          "type": "uint64"
        },
        {
          "internalType": "uint64",
          "name": "expiresAt",
          "type": "uint64"
        }
      ],
      "stateMutability": "view",
      "type": "function"
    },
    {
      "inputs": [
        {
          "internalType": "uint256",
          "name": "courseId",
          "type": "uint256"
        },
        {
          "internalType": "uint256",
          "name": "priceUSDC",
          "type": "uint256"
        },
        {
          "internalType": "address",
          "name": "splitter",
          "type": "address"
        },
        {
          "internalType": "address",
          "name": "creator",
          "type": "address"
        },
        {
          "internalType": "uint64",
          "name": "duration",
          "type": "uint64"
        },
        {
          "internalType": "uint64",
          "name": "transferCooldown",
          "type": "uint64"
        }
      ],
      "name": "createCourse",
      "outputs": [],
      "stateMutability": "nonpayable",
      "type": "function"
    },
    {
      "inputs": [
        {
          "internalType": "uint256",
          "name": "id",
          "type": "uint256"
        }
      ],
      "name": "exists",
      "outputs": [
        {
          "internalType": "bool",
          "name": "",
          "type": "bool"
        }
      ],
      "stateMutability": "view",
      "type": "function"
    },
    {
      "inputs": [
        {
          "internalType": "uint256",
          "name": "courseId",
          "type": "uint256"
        },
        {
          "internalType": "address",
          "name": "account",
          "type": "address"
        },
        {
          "internalType": "uint256",
          "name": "amountPaid",
          "type": "uint256"
        },
        {
          "internalType": "uint64",
          "name": "additionalDuration",
          "type": "uint64"
        }
      ],
      "name": "extendPass",
      "outputs": [],
      "stateMutability": "nonpayable",
      "type": "function"
    },
    {
      "inputs": [
        {
          "internalType": "uint256",
          "name": "courseId",
          "type": "uint256"
        }
      ],
      "name": "getCourse",
      "outputs": [
        {
          "components": [
            {
              "internalType": "uint256",
              "name": "priceUSDC",
              "type": "uint256"
            },
            {
              "internalType": "address",
              "name": "splitter",
              "type": "address"
            },
            {
              "internalType": "address",
              "name": "creator",
              "type": "address"
            },
            {
              "internalType": "uint64",
              "name": "duration",
              "type": "uint64"
            },
            {
              "internalType": "uint64",
              "name": "transferCooldown",
              "type": "uint64"
            }
          ],
          "internalType": "struct MembershipPass1155.Course",
          "name": "",
          "type": "tuple"
        }
      ],
      "stateMutability": "view",
      "type": "function"
    },
    {
      "inputs": [
        {
          "internalType": "uint256",
          "name": "courseId",
          "type": "uint256"
        },
        {
          "internalType": "address",
          "name": "account",
          "type": "address"
        }
      ],
      "name": "getPassState",
      "outputs": [
        {
          "components": [
            {
              "internalType": "uint64",
              "name": "expiresAt",
              "type": "uint64"
            },
            {
              "internalType": "uint64",
              "name": "cooldownEndsAt",
              "type": "uint64"
            }
          ],
          "internalType": "struct MembershipPass1155.PassState",
          "name": "",
          "type": "tuple"
        }
      ],
      "stateMutability": "view",
      "type": "function"
    },
    {
      "inputs": [
        {
          "internalType": "bytes32",
          "name": "role",
          "type": "bytes32"
        }
      ],
      "name": "getRoleAdmin",
      "outputs": [
        {
          "internalType": "bytes32",
          "name": "",
          "type": "bytes32"
        }
      ],
      "stateMutability": "view",
      "type": "function"
    },
    {
      "inputs": [
        {
          "internalType": "bytes32",
          "name": "role",
          "type": "bytes32"
        },
        {
          "internalType": "address",
          "name": "account",
          "type": "address"
        }
      ],
      "name": "grantRole",
      "outputs": [],
      "stateMutability": "nonpayable",
      "type": "function"
    },
    {
      "inputs": [
        {
          "internalType": "address",
          "name": "account",
          "type": "address"
        },
        {
          "internalType": "uint256",
          "name": "courseId",
          "type": "uint256"
        }
      ],
      "name": "hasPass",
      "outputs": [
        {
          "internalType": "bool",
          "name": "",
          "type": "bool"
        }
      ],
      "stateMutability": "view",
      "type": "function"
    },
    {
      "inputs": [
        {
          "internalType": "bytes32",
          "name": "role",
          "type": "bytes32"
        },
        {
          "internalType": "address",
          "name": "account",
          "type": "address"
        }
      ],
      "name": "hasRole",
      "outputs": [
        {
          "internalType": "bool",
          "name": "",
          "type": "bool"
        }
      ],
      "stateMutability": "view",
      "type": "function"
    },
    {
      "inputs": [
        {
          "internalType": "address",
          "name": "account",
          "type": "address"
        },
        {
          "internalType": "address",
          "name": "operator",
          "type": "address"
        }
      ],
      "name": "isApprovedForAll",
      "outputs": [
        {
          "internalType": "bool",
          "name": "",
          "type": "bool"
        }
      ],
      "stateMutability": "view",
      "type": "function"
    },
    {
      "inputs": [
        {
          "internalType": "uint256",
          "name": "courseId",
          "type": "uint256"
        },
        {
          "internalType": "address",
          "name": "account",
          "type": "address"
        }
      ],
      "name": "isPassActive",
      "outputs": [
        {
          "internalType": "bool",
          "name": "",
          "type": "bool"
        }
      ],
      "stateMutability": "view",
      "type": "function"
    },
    {
      "inputs": [
        {
          "internalType": "address",
          "name": "to",
          "type": "address"
        },
        {
          "internalType": "uint256",
          "name": "courseId",
          "type": "uint256"
        },
        {
          "internalType": "uint256",
          "name": "amountPaid",
          "type": "uint256"
        }
      ],
      "name": "marketplaceMint",
      "outputs": [],
      "stateMutability": "nonpayable",
      "type": "function"
    },
    {
      "inputs": [],
      "name": "pause",
      "outputs": [],
      "stateMutability": "nonpayable",
      "type": "function"
    },
    {
      "inputs": [],
      "name": "paused",
      "outputs": [
        {
          "internalType": "bool",
          "name": "",
          "type": "bool"
        }
      ],
      "stateMutability": "view",
      "type": "function"
    },
    {
      "inputs": [
        {
          "internalType": "bytes32",
          "name": "role",
          "type": "bytes32"
        },
        {
          "internalType": "address",
          "name": "callerConfirmation",
          "type": "address"
        }
      ],
      "name": "renounceRole",
      "outputs": [],
      "stateMutability": "nonpayable",
      "type": "function"
    },
    {
      "inputs": [
        {
          "internalType": "bytes32",
          "name": "role",
          "type": "bytes32"
        },
        {
          "internalType": "address",
          "name": "account",
          "type": "address"
        }
      ],
      "name": "revokeRole",
      "outputs": [],
      "stateMutability": "nonpayable",
      "type": "function"
    },
    {
      "inputs": [
        {
          "internalType": "address",
          "name": "from",
          "type": "address"
        },
        {
          "internalType": "address",
          "name": "to",
          "type": "address"
        },
        {
          "internalType": "uint256[]",
          "name": "ids",
          "type": "uint256[]"
        },
        {
          "internalType": "uint256[]",
          "name": "values",
          "type": "uint256[]"
        },
        {
          "internalType": "bytes",
          "name": "data",
          "type": "bytes"
        }
      ],
      "name": "safeBatchTransferFrom",
      "outputs": [],
      "stateMutability": "nonpayable",
      "type": "function"
    },
    {
      "inputs": [
        {
          "internalType": "address",
          "name": "from",
          "type": "address"
        },
        {
          "internalType": "address",
          "name": "to",
          "type": "address"
        },
        {
          "internalType": "uint256",
          "name": "id",
          "type": "uint256"
        },
        {
          "internalType": "uint256",
          "name": "value",
          "type": "uint256"
        },
        {
          "internalType": "bytes",
          "name": "data",
          "type": "bytes"
        }
      ],
      "name": "safeTransferFrom",
      "outputs": [],
      "stateMutability": "nonpayable",
      "type": "function"
    },
    {
      "inputs": [
        {
          "internalType": "address",
          "name": "operator",
          "type": "address"
        },
        {
          "internalType": "bool",
          "name": "approved",
          "type": "bool"
        }
      ],
      "name": "setApprovalForAll",
      "outputs": [],
      "stateMutability": "nonpayable",
      "type": "function"
    },
    {
      "inputs": [
        {
          "internalType": "uint256",
          "name": "courseId",
          "type": "uint256"
        },
        {
          "internalType": "uint64",
          "name": "duration",
          "type": "uint64"
        },
        {
          "internalType": "uint64",
          "name": "transferCooldown",
          "type": "uint64"
        }
      ],
      "name": "setCourseConfig",
      "outputs": [],
      "stateMutability": "nonpayable",
      "type": "function"
    },
    {
      "inputs": [
        {
          "internalType": "uint256",
          "name": "courseId",
          "type": "uint256"
        },
        {
          "internalType": "uint256",
          "name": "newPriceUSDC",
          "type": "uint256"
        }
      ],
      "name": "setPrice",
      "outputs": [],
      "stateMutability": "nonpayable",
      "type": "function"
    },
    {
      "inputs": [
        {
          "internalType": "uint256",
          "name": "courseId",
          "type": "uint256"
        },
        {
          "internalType": "address",
          "name": "newSplitter",
          "type": "address"
        }
      ],
      "name": "setSplitter",
      "outputs": [],
      "stateMutability": "nonpayable",
      "type": "function"
    },
    {
      "inputs": [
        {
          "internalType": "string",
          "name": "newURI",
          "type": "string"
        }
      ],
      "name": "setURI",
      "outputs": [],
      "stateMutability": "nonpayable",
      "type": "function"
    },
    {
      "inputs": [
        {
          "internalType": "bytes4",
          "name": "interfaceId",
          "type": "bytes4"
        }
      ],
      "name": "supportsInterface",
      "outputs": [
        {
          "internalType": "bool",
          "name": "",
          "type": "bool"
        }
      ],
      "stateMutability": "view",
      "type": "function"
    },
    {
      "inputs": [],
      "name": "totalSupply",
      "outputs": [
        {
          "internalType": "uint256",
          "name": "",
          "type": "uint256"
        }
      ],
      "stateMutability": "view",
      "type": "function"
    },
    {
      "inputs": [
        {
          "internalType": "uint256",
          "name": "id",
          "type": "uint256"
        }
      ],
      "name": "totalSupply",
      "outputs": [
        {
          "internalType": "uint256",
          "name": "",
          "type": "uint256"
        }
      ],
      "stateMutability": "view",
      "type": "function"
    },
    {
      "inputs": [],
      "name": "unpause",
      "outputs": [],
      "stateMutability": "nonpayable",
      "type": "function"
    },
    {
      "inputs": [
        {
          "internalType": "uint256",
          "name": "",
          "type": "uint256"
        }
      ],
      "name": "uri",
      "outputs": [
        {
          "internalType": "string",
          "name": "",
          "type": "string"
        }
      ],
      "stateMutability": "view",
      "type": "function"
    },
    {
      "inputs": [],
      "name": "usdc",
      "outputs": [
        {
          "internalType": "contract IERC20",
          "name": "",
          "type": "address"
        }
      ],
      "stateMutability": "view",
      "type": "function"
    }
  ],
  "bytecode": "0x60a060405234801561001057600080fd5b5060405161333d38038061333d83398101604081905261002f916101d7565b81610039816100d9565b5060016007556001600160a01b03831661008d5760405162461bcd60e51b8152602060048201526011602482015270555344432061646472657373207a65726f60781b604482015260640160405180910390fd5b6001600160a01b0383166080526100a56000826100e9565b506100d07fa49807205ce4d355092ef5a8a18f56e8913cf4a201fbe287825b095693c21775826100e9565b5050505061040e565b60026100e5828261034f565b5050565b60008281526005602090815260408083206001600160a01b038516845290915281205460ff1661018f5760008381526005602090815260408083206001600160a01b03861684529091529020805460ff191660011790556101473390565b6001600160a01b0316826001600160a01b0316847f2f8788117e7eff1d82e926ec794901d17c78024a50270940304540a733656f0d60405160405180910390a4506001610193565b5060005b92915050565b6001600160a01b03811681146101ae57600080fd5b50565b634e487b7160e01b600052604160045260246000fd5b80516101d281610199565b919050565b6000806000606084860312156101ec57600080fd5b83516101f781610199565b602085810151919450906001600160401b038082111561021657600080fd5b818701915087601f83011261022a57600080fd5b81518181111561023c5761023c6101b1565b604051601f8201601f19908116603f01168101908382118183101715610264576102646101b1565b816040528281528a8684870101111561027c57600080fd5b600093505b8284101561029e5784840186015181850187015292850192610281565b60008684830101528097505050505050506102bb604085016101c7565b90509250925092565b600181811c908216806102d857607f821691505b6020821081036102f857634e487b7160e01b600052602260045260246000fd5b50919050565b601f82111561034a576000816000526020600020601f850160051c810160208610156103275750805b601f850160051c820191505b8181101561034657828155600101610333565b5050505b505050565b81516001600160401b03811115610368576103686101b1565b61037c8161037684546102c4565b846102fe565b602080601f8311600181146103b157600084156103995750858301515b600019600386901b1c1916600185901b178555610346565b600085815260208120601f198616915b828110156103e0578886015182559484019460019091019084016103c1565b50858210156103fe5787850151600019600388901b60f8161c191681555b5050505050600190811b01905550565b608051612f1461042960003960006103cc0152612f146000f3fe608060405234801561001057600080fd5b50600436106102265760003560e01c80635b64bd3011610130578063a217fddf116100b8578063d547741f1161007c578063d547741f14610604578063e985e9c514610617578063f242432a1461062a578063f68e95531461063d578063f7d975771461066457600080fd5b8063a217fddf146105a1578063a22cb465146105a9578063bd85b039146105bc578063c20728f8146105dc578063c3439f3f146105ef57600080fd5b80638456cb59116100ff5780638456cb59146105395780638aeda25a146105415780638ec77e761461056857806391d148541461057b5780639e9f0e931461058e57600080fd5b80635b64bd30146104765780635c975abb1461050657806375b238fc1461051157806384429c531461052657600080fd5b80632eb2c2d6116101b35780633f4ba83a116101825780633f4ba83a146104065780634e1273f41461040e5780634f558e791461042e5780634f7efa9c146104505780635330040f1461046357600080fd5b80632eb2c2d61461038e5780632f2ff15d146103a157806336568abe146103b45780633e413bee146103c757600080fd5b80630e2f78ba116101fa5780630e2f78ba146102f65780630e89341c1461033057806318160ddd146103505780631e81756214610358578063248a9ca31461036b57600080fd5b8062fdd58e1461022b57806301ffc9a71461025157806302fe5305146102745780630b91e28d14610289575b600080fd5b61023e6102393660046125c9565b610677565b6040519081526020015b60405180910390f35b61026461025f366004612609565b61069f565b6040519015158152602001610248565b6102876102823660046126c3565b6106aa565b005b61029c610297366004612713565b6106cf565b60408051825181526020808401516001600160a01b03908116918301919091528383015116918101919091526060808301516001600160401b0390811691830191909152608092830151169181019190915260a001610248565b61030961030436600461272c565b610703565b6040805193151584526001600160401b039283166020850152911690820152606001610248565b61034361033e366004612713565b6107d5565b604051610248919061279e565b60045461023e565b6102876103663660046127c8565b610869565b61023e610379366004612713565b60009081526005602052604090206001015490565b61028761039c3660046128c0565b610aa3565b6102876103af36600461272c565b610b0a565b6102876103c236600461272c565b610b2f565b6103ee7f000000000000000000000000000000000000000000000000000000000000000081565b6040516001600160a01b039091168152602001610248565b610287610b67565b61042161041c366004612969565b610b8a565b6040516102489190612a64565b61026461043c366004612713565b600090815260036020526040902054151590565b61028761045e366004612a77565b610c56565b61026461047136600461272c565b610d4b565b6104df61048436600461272c565b60408051808201825260008082526020918201819052938452600981528184206001600160a01b03939093168452918252918290208251808401909352546001600160401b038082168452600160401b909104169082015290565b6040805182516001600160401b039081168252602093840151169281019290925201610248565b60065460ff16610264565b61023e600080516020612ebf83398151915281565b61028761053436600461272c565b610dd5565b610287610ed8565b61023e7f828634d95e775031b9ff576b159a8509d3053581a8c9c4d7d86899e0afcd882f81565b6102646105763660046125c9565b610ef8565b61026461058936600461272c565b610f0b565b61028761059c366004612aaa565b610f36565b61023e600081565b6102876105b7366004612b10565b6111e0565b61023e6105ca366004612713565b60009081526003602052604090205490565b6102876105ea366004612b4c565b6111eb565b61023e600080516020612e9f83398151915281565b61028761061236600461272c565b61130e565b610264610625366004612b88565b611333565b610287610638366004612bb2565b611361565b61023e7fedcc084d3dcd65a1f7f23c65c46722faca6953d28e43150a467cf43e5c30923881565b610287610672366004612c16565b6113c0565b6000818152602081815260408083206001600160a01b03861684529091529020545b92915050565b600061069982611471565b600080516020612ebf8339815191526106c281611496565b6106cb826114a0565b5050565b6040805160a081018252600080825260208201819052918101829052606081018290526080810191909152610699826114ac565b60008281526009602090815260408083206001600160a01b038516845282528083208151808301909252546001600160401b03808216808452600160401b909204169282018390529083806107588789610677565b119050600082600001516001600160401b03166000148061078657504283600001516001600160401b031610155b9050600083602001516001600160401b0316600014806107b357504284602001516001600160401b031611155b90508280156107bf5750815b80156107c85750805b9650505050509250925092565b6060600280546107e490612c38565b80601f016020809104026020016040519081016040528092919081815260200182805461081090612c38565b801561085d5780601f106108325761010080835404028352916020019161085d565b820191906000526020600020905b81548152906001019060200180831161084057829003601f168201915b50505050509050919050565b61087161155e565b610879611588565b600080516020612e9f83398151915261089181611496565b816001600160401b03166000036108bb57604051637616640160e01b815260040160405180910390fd5b60006108c6866114ac565b8051909150158015906108d95750805184105b1561090957805160405163ce6b173b60e01b81526004810191909152602481018590526044015b60405180910390fd5b6109138587610677565b6000036109455760405163ad34f07b60e01b8152600481018790526001600160a01b0386166024820152604401610900565b60008681526009602090815260408083206001600160a01b03891684529091528120805490916001600160401b03909116904282116109845742610986565b815b9050600061099482886115ae565b845467ffffffffffffffff19166001600160401b03821617855590506109b9856115e0565b84546fffffffffffffffff00000000000000001916600160401b6001600160401b0392831602178555604080518a81528583166020820152918316908201526001600160a01b038a16908b907f51573726fe18c158eeed2386d035f788e81c93715351219f73a5493a293f8f449060600160405180910390a38354604080516001600160401b038085168252600160401b90930490921660208301526001600160a01b038b16918c917f6c9b5717d6d84a5cc938c626ff94c2e04f253f5b4f4534c2df896a1a8e2ffda5910160405180910390a3505050505050610a9d6001600755565b50505050565b336001600160a01b0386168114801590610ac45750610ac28682611333565b155b15610af55760405163711bec9160e11b81526001600160a01b03808316600483015287166024820152604401610900565b610b02868686868661160d565b505050505050565b600082815260056020526040902060010154610b2581611496565b610a9d8383611674565b6001600160a01b0381163314610b585760405163334bd91960e11b815260040160405180910390fd5b610b628282611708565b505050565b600080516020612ebf833981519152610b7f81611496565b610b87611775565b50565b60608151835114610bbb5781518351604051635b05999160e01b815260048101929092526024820152604401610900565b600083516001600160401b03811115610bd657610bd6612626565b604051908082528060200260200182016040528015610bff578160200160208202803683370190505b50905060005b8451811015610c4e57602080820286010151610c2990602080840287010151610677565b828281518110610c3b57610c3b612c72565b6020908102919091010152600101610c05565b509392505050565b610c5e61155e565b610c66611588565b600080516020612e9f833981519152610c7e81611496565b6000610c89846114ac565b805190915015801590610c9c5750805183105b15610cc757805160405163ce6b173b60e01b8152600481019190915260248101849052604401610900565b6000610cd2826117c7565b9050610cf086866001604051806020016040528060008152506117f4565b604080518581526001600160401b03831660208201526001600160a01b0388169187917fbd1b09c41c4f6e036c7158ef71fed4b0a058cccfb14651698db7cbb1b88b2a07910160405180910390a3505050610b626001600755565b6000610d578284610677565b600003610d6657506000610699565b60008381526009602090815260408083206001600160a01b038616845282528083208151808301909252546001600160401b03808216808452600160401b90920416928201929092529103610dbf576001915050610699565b51426001600160401b0390911610159392505050565b610ddd611588565b600082815260086020526040902060018101546001600160a01b0316610e195760405163071a106f60e11b815260048101849052602401610900565b610e238333611851565b610e495760405163266b177160e01b815260048101849052336024820152604401610900565b6001600160a01b038216610e705760405163eed7778f60e01b815260040160405180910390fd5b6001810180546001600160a01b038481166001600160a01b0319831681179093556040805191909216808252602082019390935285917f36297e9bd2a333d7a91dd9a853faeca26ea2cdf6c265d17f963acf30b65935fd91015b60405180910390a250505050565b600080516020612ebf833981519152610ef081611496565b610b87611896565b6000610f048284610d4b565b9392505050565b60009182526005602090815260408084206001600160a01b0393909316845291905290205460ff1690565b610f3e611588565b7fedcc084d3dcd65a1f7f23c65c46722faca6953d28e43150a467cf43e5c309238610f6881611496565b6000878152600860205260409020600101546001600160a01b031615610fa457604051636f7e2eeb60e01b815260048101889052602401610900565b6001600160a01b038516610fcb5760405163eed7778f60e01b815260040160405180910390fd5b6001600160401b038381161480610fea57506001600160401b03828116145b1561100857604051637616640160e01b815260040160405180910390fd5b6040518060a00160405280878152602001866001600160a01b03168152602001856001600160a01b03168152602001846001600160401b03168152602001836001600160401b0316815250600860008981526020019081526020016000206000820151816000015560208201518160010160006101000a8154816001600160a01b0302191690836001600160a01b0316021790555060408201518160020160006101000a8154816001600160a01b0302191690836001600160a01b0316021790555060608201518160020160146101000a8154816001600160401b0302191690836001600160401b0316021790555060808201518160030160006101000a8154816001600160401b0302191690836001600160401b0316021790555090505060006001600160a01b0316846001600160a01b03161461116d5761116b7f828634d95e775031b9ff576b159a8509d3053581a8c9c4d7d86899e0afcd882f85611674565b505b836001600160a01b0316856001600160a01b0316887fa60ec735ac1d6aaa44f00a1d947cdabb91b1bc88ad363a91dcb1d4b9d96344ce8987876040516111cf939291909283526001600160401b03918216602084015216604082015260600190565b60405180910390a450505050505050565b6106cb3383836118d3565b6111f3611588565b600080516020612ebf83398151915261120b81611496565b600084815260086020526040902060018101546001600160a01b03166112475760405163071a106f60e11b815260048101869052602401610900565b6001600160401b03848116148061126657506001600160401b03838116145b1561128457604051637616640160e01b815260040160405180910390fd5b60028101805467ffffffffffffffff60a01b1916600160a01b6001600160401b038781169182029290921790925560038301805467ffffffffffffffff1916918616918217905560408051928352602083019190915286917f7de2ba5d395df24f909b467e5f700a471d16fc3ce7f87889e15ae83b6eb31474910160405180910390a25050505050565b60008281526005602052604090206001015461132981611496565b610a9d8383611708565b6001600160a01b03918216600090815260016020908152604080832093909416825291909152205460ff1690565b336001600160a01b038616811480159061138257506113808682611333565b155b156113b35760405163711bec9160e11b81526001600160a01b03808316600483015287166024820152604401610900565b610b028686868686611969565b6113c8611588565b600082815260086020526040902060018101546001600160a01b03166114045760405163071a106f60e11b815260048101849052602401610900565b61140e8333611851565b6114345760405163266b177160e01b815260048101849052336024820152604401610900565b8054828255604080518281526020810185905285917f94400b4ef307fffa575bb3402c4a7f580f0098387e8909e4cc269fedaef8a0379101610eca565b60006001600160e01b03198216637965db0b60e01b14806106995750610699826119f7565b610b878133611a47565b60026106cb8282612cd0565b6040805160a081018252600080825260208201819052918101829052606081018290526080810191909152600082815260086020908152604091829020825160a0810184528154815260018201546001600160a01b03908116938201849052600283015490811694820194909452600160a01b9093046001600160401b0390811660608501526003909101541660808301526106995760405163071a106f60e11b815260048101849052602401610900565b60026007540361158157604051633ee5aeb560e01b815260040160405180910390fd5b6002600755565b60065460ff16156115ac5760405163d93c066560e01b815260040160405180910390fd5b565b60008282016001600160401b038085169082161015610f0457604051637616640160e01b815260040160405180910390fd5b600081608001516001600160401b03166000036115ff57506000919050565b6106994283608001516115ae565b6001600160a01b03841661163757604051632bfa23e760e11b815260006004820152602401610900565b6001600160a01b03851661166057604051626a0d4560e21b815260006004820152602401610900565b61166d8585858585611a80565b5050505050565b60006116808383610f0b565b6117005760008381526005602090815260408083206001600160a01b03861684529091529020805460ff191660011790556116b83390565b6001600160a01b0316826001600160a01b0316847f2f8788117e7eff1d82e926ec794901d17c78024a50270940304540a733656f0d60405160405180910390a4506001610699565b506000610699565b60006117148383610f0b565b156117005760008381526005602090815260408083206001600160a01b0386168085529252808320805460ff1916905551339286917ff6391f5c32d9c69d2a47ea670b442974b53935d1edc7fd64eb21e047a839171b9190a4506001610699565b61177d611ad3565b6006805460ff191690557f5db9ee0a495bf2e6ff9c91a7834c1ba4fdd244a5e8aa4e537bd38aeae4b073aa335b6040516001600160a01b03909116815260200160405180910390a1565b600081606001516001600160401b03166000036117e657506000919050565b6106994283606001516115ae565b6001600160a01b03841661181e57604051632bfa23e760e11b815260006004820152602401610900565b60408051600180825260208201869052818301908152606082018590526080820190925290610b02600087848487611a80565b600061186b600080516020612ebf83398151915283610f0b565b80610f04575050600091825260086020526040909120600201546001600160a01b0391821691161490565b61189e611588565b6006805460ff191660011790557f62e78cea01bee320cd4e420270b5ea74000d11b0c9f74754ebdbfc544b05a2586117aa3390565b6001600160a01b0382166118fc5760405162ced3e160e81b815260006004820152602401610900565b6001600160a01b03838116600081815260016020908152604080832094871680845294825291829020805460ff191686151590811790915591519182527f17307eab39ab6107e8899845ad3d59bd9653f200f220920489ca2b5937696c31910160405180910390a3505050565b6001600160a01b03841661199357604051632bfa23e760e11b815260006004820152602401610900565b6001600160a01b0385166119bc57604051626a0d4560e21b815260006004820152602401610900565b604080516001808252602082018690528183019081526060820185905260808201909252906119ee8787848487611a80565b50505050505050565b60006001600160e01b03198216636cdb3d1360e11b1480611a2857506001600160e01b031982166303a24d0760e21b145b8061069957506301ffc9a760e01b6001600160e01b0319831614610699565b611a518282610f0b565b6106cb5760405163e2517d3f60e01b81526001600160a01b038216600482015260248101839052604401610900565b611a8c85858585611af6565b6001600160a01b0384161561166d5782513390600103611ac55760208481015190840151611abe838989858589611c89565b5050610b02565b610b02818787878787611dad565b60065460ff166115ac57604051638dfc202b60e01b815260040160405180910390fd5b6001600160a01b03841615801590611b1657506001600160a01b03831615155b8015611b375750611b35600080516020612e9f83398151915233610f0b565b155b15611b5757604051630589788760e41b8152336004820152602401610900565b60005b8251811015611c7c576000828281518110611b7757611b77612c72565b6020026020010151905060006001600160a01b0316866001600160a01b031603611bc457611bbf848381518110611bb057611bb0612c72565b60200260200101518683611e96565b611c73565b6001600160a01b038516611c2b5760096000858481518110611be857611be8612c72565b602090810291909101810151825281810192909252604090810160009081206001600160a01b038a168252909252902080546001600160801b0319169055611c73565b611c4f848381518110611c4057611c40612c72565b60200260200101518783611fd4565b611c73848381518110611c6457611c64612c72565b60200260200101518787612154565b50600101611b5a565b50610a9d848484846122ad565b6001600160a01b0384163b15610b025760405163f23a6e6160e01b81526001600160a01b0385169063f23a6e6190611ccd9089908990889088908890600401612d8f565b6020604051808303816000875af1925050508015611d08575060408051601f3d908101601f19168201909252611d0591810190612dd4565b60015b611d71573d808015611d36576040519150601f19603f3d011682016040523d82523d6000602084013e611d3b565b606091505b508051600003611d6957604051632bfa23e760e11b81526001600160a01b0386166004820152602401610900565b805181602001fd5b6001600160e01b0319811663f23a6e6160e01b146119ee57604051632bfa23e760e11b81526001600160a01b0386166004820152602401610900565b6001600160a01b0384163b15610b025760405163bc197c8160e01b81526001600160a01b0385169063bc197c8190611df19089908990889088908890600401612df1565b6020604051808303816000875af1925050508015611e2c575060408051601f3d908101601f19168201909252611e2991810190612dd4565b60015b611e5a573d808015611d36576040519150601f19603f3d011682016040523d82523d6000602084013e611d3b565b6001600160e01b0319811663bc197c8160e01b146119ee57604051632bfa23e760e11b81526001600160a01b0386166004820152602401610900565b80600114611ef05760405162461bcd60e51b815260206004820152602160248201527f4d656d62657273686970206d696e7473207265717569726520616d6f756e74206044820152603160f81b6064820152608401610900565b6000611efb846114ac565b90506000611f08826117c7565b90506000611f15836115e0565b6040805180820182526001600160401b038086168252808416602080840191825260008c8152600982528581206001600160a01b038d1680835292528590209351845492518416600160401b026001600160801b03199093169316929092171790915590519192509087907f6c9b5717d6d84a5cc938c626ff94c2e04f253f5b4f4534c2df896a1a8e2ffda590611fc490869086906001600160401b0392831681529116602082015260400190565b60405180910390a3505050505050565b806001146120325760405162461bcd60e51b815260206004820152602560248201527f4d656d62657273686970207472616e7366657273207265717569726520616d6f604482015264756e74203160d81b6064820152608401610900565b6001600160a01b03821615610b625760008381526009602090815260408083206001600160a01b03861684528252918290208251808401909352546001600160401b03808216808552600160401b9092041691830191909152158015906120a557504281600001516001600160401b0316105b156120e757805160405163018f520b60e01b8152600481018690526001600160a01b03851660248201526001600160401b039091166044820152606401610900565b60208101516001600160401b03161580159061210f57504281602001516001600160401b0316115b15610a9d576020810151604051630b38c21360e21b8152600481018690526001600160a01b03851660248201526001600160401b039091166044820152606401610900565b60008381526009602090815260408083206001600160a01b038616808552818452828520835180850190945280546001600160401b038082168652600160401b82041685870152918652919093526001600160801b0319909216909155906121bb856114ac565b9050600081608001516001600160401b03166000146121e7576121e24283608001516115ae565b6121ea565b60005b83516040805180820182526001600160401b038084168252808516602080840191825260008d8152600982528581206001600160a01b038d1680835292528590209351845492518416600160401b026001600160801b0319909316931692909217179091559051929350909188907f6c9b5717d6d84a5cc938c626ff94c2e04f253f5b4f4534c2df896a1a8e2ffda59061229c90859087906001600160401b0392831681529116602082015260400190565b60405180910390a350505050505050565b6122b984848484612399565b6001600160a01b038416612339576000805b835181101561231f5760208181028481018201519086018201516000908152600390925260408220805491928392612304908490612e4f565b9091555061231490508184612e4f565b9250506001016122cb565b5080600460008282546123329190612e4f565b9091555050505b6001600160a01b038316610a9d576000805b835181101561238857602081810284810182015190860182015160009081526003909252604090912080548290039055919091019060010161234b565b506004805491909103905550505050565b80518251146123c85781518151604051635b05999160e01b815260048101929092526024820152604401610900565b3360005b83518110156124ce576020818102858101820151908501909101516001600160a01b0388161561247f576000828152602081815260408083206001600160a01b038c16845290915290205481811015612458576040516303dee4c560e01b81526001600160a01b038a166004820152602481018290526044810183905260648101849052608401610900565b6000838152602081815260408083206001600160a01b038d16845290915290209082900390555b6001600160a01b038716156124c4576000828152602081815260408083206001600160a01b038b168452909152812080548392906124be908490612e4f565b90915550505b50506001016123cc565b50825160010361254f5760208301516000906020840151909150856001600160a01b0316876001600160a01b0316846001600160a01b03167fc3d58168c5ae7397731d063d5bbf3d657854427343f4c083240f7aacaa2d0f628585604051612540929190918252602082015260400190565b60405180910390a4505061166d565b836001600160a01b0316856001600160a01b0316826001600160a01b03167f4a39dc06d4c0dbc64b70af90fd698a233a518aa5d07e595d983b8c0526c8f7fb868660405161259e929190612e70565b60405180910390a45050505050565b80356001600160a01b03811681146125c457600080fd5b919050565b600080604083850312156125dc57600080fd5b6125e5836125ad565b946020939093013593505050565b6001600160e01b031981168114610b8757600080fd5b60006020828403121561261b57600080fd5b8135610f04816125f3565b634e487b7160e01b600052604160045260246000fd5b604051601f8201601f191681016001600160401b038111828210171561266457612664612626565b604052919050565b60006001600160401b0383111561268557612685612626565b612698601f8401601f191660200161263c565b90508281528383830111156126ac57600080fd5b828260208301376000602084830101529392505050565b6000602082840312156126d557600080fd5b81356001600160401b038111156126eb57600080fd5b8201601f810184136126fc57600080fd5b61270b8482356020840161266c565b949350505050565b60006020828403121561272557600080fd5b5035919050565b6000806040838503121561273f57600080fd5b8235915061274f602084016125ad565b90509250929050565b6000815180845260005b8181101561277e57602081850181015186830182015201612762565b506000602082860101526020601f19601f83011685010191505092915050565b602081526000610f046020830184612758565b80356001600160401b03811681146125c457600080fd5b600080600080608085870312156127de57600080fd5b843593506127ee602086016125ad565b925060408501359150612803606086016127b1565b905092959194509250565b60006001600160401b0382111561282757612827612626565b5060051b60200190565b600082601f83011261284257600080fd5b813560206128576128528361280e565b61263c565b8083825260208201915060208460051b87010193508684111561287957600080fd5b602086015b84811015612895578035835291830191830161287e565b509695505050505050565b600082601f8301126128b157600080fd5b610f048383356020850161266c565b600080600080600060a086880312156128d857600080fd5b6128e1866125ad565b94506128ef602087016125ad565b935060408601356001600160401b038082111561290b57600080fd5b61291789838a01612831565b9450606088013591508082111561292d57600080fd5b61293989838a01612831565b9350608088013591508082111561294f57600080fd5b5061295c888289016128a0565b9150509295509295909350565b6000806040838503121561297c57600080fd5b82356001600160401b038082111561299357600080fd5b818501915085601f8301126129a757600080fd5b813560206129b76128528361280e565b82815260059290921b840181019181810190898411156129d657600080fd5b948201945b838610156129fb576129ec866125ad565b825294820194908201906129db565b96505086013592505080821115612a1157600080fd5b50612a1e85828601612831565b9150509250929050565b60008151808452602080850194506020840160005b83811015612a5957815187529582019590820190600101612a3d565b509495945050505050565b602081526000610f046020830184612a28565b600080600060608486031215612a8c57600080fd5b612a95846125ad565b95602085013595506040909401359392505050565b60008060008060008060c08789031215612ac357600080fd5b8635955060208701359450612ada604088016125ad565b9350612ae8606088016125ad565b9250612af6608088016127b1565b9150612b0460a088016127b1565b90509295509295509295565b60008060408385031215612b2357600080fd5b612b2c836125ad565b915060208301358015158114612b4157600080fd5b809150509250929050565b600080600060608486031215612b6157600080fd5b83359250612b71602085016127b1565b9150612b7f604085016127b1565b90509250925092565b60008060408385031215612b9b57600080fd5b612ba4836125ad565b915061274f602084016125ad565b600080600080600060a08688031215612bca57600080fd5b612bd3866125ad565b9450612be1602087016125ad565b9350604086013592506060860135915060808601356001600160401b03811115612c0a57600080fd5b61295c888289016128a0565b60008060408385031215612c2957600080fd5b50508035926020909101359150565b600181811c90821680612c4c57607f821691505b602082108103612c6c57634e487b7160e01b600052602260045260246000fd5b50919050565b634e487b7160e01b600052603260045260246000fd5b601f821115610b62576000816000526020600020601f850160051c81016020861015612cb15750805b601f850160051c820191505b81811015610b0257828155600101612cbd565b81516001600160401b03811115612ce957612ce9612626565b612cfd81612cf78454612c38565b84612c88565b602080601f831160018114612d325760008415612d1a5750858301515b600019600386901b1c1916600185901b178555610b02565b600085815260208120601f198616915b82811015612d6157888601518255948401946001909101908401612d42565b5085821015612d7f5787850151600019600388901b60f8161c191681555b5050505050600190811b01905550565b6001600160a01b03868116825285166020820152604081018490526060810183905260a060808201819052600090612dc990830184612758565b979650505050505050565b600060208284031215612de657600080fd5b8151610f04816125f3565b6001600160a01b0386811682528516602082015260a060408201819052600090612e1d90830186612a28565b8281036060840152612e2f8186612a28565b90508281036080840152612e438185612758565b98975050505050505050565b8082018082111561069957634e487b7160e01b600052601160045260246000fd5b604081526000612e836040830185612a28565b8281036020840152612e958185612a28565b9594505050505056fe0ea61da3a8a09ad801432653699f8c1860b1ae9d2ea4a141fadfd63227717bc8a49807205ce4d355092ef5a8a18f56e8913cf4a201fbe287825b095693c21775a264697066735822122034cdfc58b44c44bc82c3a3f3129161631116cc28cd70de49da5cca133cc6d64464736f6c63430008190033",
  "linkReferences": {},
  "deployedLinkReferences": {}
}