{
  "_format": "hh-sol-artifact-1",
  "contractName": "Registrar",
  "sourceName": "contracts/Registrar.sol",
  "abi": [
    {
      "inputs": [
        {
          "internalType": "contract IERC20",
          "name": "usdcToken",
          "type": "address"
        },
        {
          "internalType": "contract MembershipPass1155",
          "name": "membershipContract",
          "type": "address"
        },
        {
          "internalType": "address",
          "name": "admin",
          "type": "address"
        }
      ],
      "stateMutability": "nonpayable",
      "type": "constructor"
    },
    {
      "inputs": [],
      "name": "AccessControlBadConfirmation",
      "type": "error"
    },
    {
      "inputs": [
        {
          "internalType": "address",
          "name": "account",
          "type": "address"
        },
        {
          "internalType": "bytes32",
          "name": "neededRole",
          "type": "bytes32"
        }
      ],
      "name": "AccessControlUnauthorizedAccount",
      "type": "error"
    },
    {
      "anonymous": false,
      "inputs": [
        {
          "indexed": true,
          "internalType": "uint256",
          "name": "courseId",
          "type": "uint256"
        },
        {
          "indexed": true,
          "internalType": "address",
          "name": "splitter",
          "type": "address"
        },
        {
          "indexed": false,
          "internalType": "uint256",
          "name": "priceUSDC",
          "type": "uint256"
        },
        {
          "indexed": true,
          "internalType": "address",
          "name": "creator",
          "type": "address"
        },
        {
          "indexed": false,
          "internalType": "uint64",
          "name": "duration",
          "type": "uint64"
        },
        {
          "indexed": false,
          "internalType": "uint64",
          "name": "transferCooldown",
          "type": "uint64"
        }
      ],
      "name": "CourseRegistered",
      "type": "event"
    },
    {
      "anonymous": false,
      "inputs": [
        {
          "indexed": true,
          "internalType": "bytes32",
          "name": "role",
          "type": "bytes32"
        },
        {
          "indexed": true,
          "internalType": "bytes32",
          "name": "previousAdminRole",
          "type": "bytes32"
        },
        {
          "indexed": true,
          "internalType": "bytes32",
          "name": "newAdminRole",
          "type": "bytes32"
        }
      ],
      "name": "RoleAdminChanged",
      "type": "event"
    },
    {
      "anonymous": false,
      "inputs": [
        {
          "indexed": true,
          "internalType": "bytes32",
          "name": "role",
          "type": "bytes32"
        },
        {
          "indexed": true,
          "internalType": "address",
          "name": "account",
          "type": "address"
        },
        {
          "indexed": true,
          "internalType": "address",
          "name": "sender",
          "type": "address"
        }
      ],
      "name": "RoleGranted",
      "type": "event"
    },
    {
      "anonymous": false,
      "inputs": [
        {
          "indexed": true,
          "internalType": "bytes32",
          "name": "role",
          "type": "bytes32"
        },
        {
          "indexed": true,
          "internalType": "address",
          "name": "account",
          "type": "address"
        },
        {
          "indexed": true,
          "internalType": "address",
          "name": "sender",
          "type": "address"
        }
      ],
      "name": "RoleRevoked",
      "type": "event"
    },
    {
      "inputs": [],
      "name": "ADMIN_ROLE",
      "outputs": [
        {
          "internalType": "bytes32",
          "name": "",
          "type": "bytes32"
        }
      ],
      "stateMutability": "view",
      "type": "function"
    },
    {
      "inputs": [],
      "name": "DEFAULT_ADMIN_ROLE",
      "outputs": [
        {
          "internalType": "bytes32",
          "name": "",
          "type": "bytes32"
        }
      ],
      "stateMutability": "view",
      "type": "function"
    },
    {
      "inputs": [
        {
          "internalType": "bytes32",
          "name": "role",
          "type": "bytes32"
        }
      ],
      "name": "getRoleAdmin",
      "outputs": [
        {
          "internalType": "bytes32",
          "name": "",
          "type": "bytes32"
        }
      ],
      "stateMutability": "view",
      "type": "function"
    },
    {
      "inputs": [
        {
          "internalType": "bytes32",
          "name": "role",
          "type": "bytes32"
        },
        {
          "internalType": "address",
          "name": "account",
          "type": "address"
        }
      ],
      "name": "grantRole",
      "outputs": [],
      "stateMutability": "nonpayable",
      "type": "function"
    },
    {
      "inputs": [
        {
          "internalType": "bytes32",
          "name": "role",
          "type": "bytes32"
        },
        {
          "internalType": "address",
          "name": "account",
          "type": "address"
        }
      ],
      "name": "hasRole",
      "outputs": [
        {
          "internalType": "bool",
          "name": "",
          "type": "bool"
        }
      ],
      "stateMutability": "view",
      "type": "function"
    },
    {
      "inputs": [],
      "name": "marketplace",
      "outputs": [
        {
          "internalType": "address",
          "name": "",
          "type": "address"
        }
      ],
      "stateMutability": "view",
      "type": "function"
    },
    {
      "inputs": [],
      "name": "membership",
      "outputs": [
        {
          "internalType": "contract MembershipPass1155",
          "name": "",
          "type": "address"
        }
      ],
      "stateMutability": "view",
      "type": "function"
    },
    {
      "inputs": [
        {
          "internalType": "uint256",
          "name": "courseId",
          "type": "uint256"
        },
        {
          "internalType": "uint256",
          "name": "priceUSDC",
          "type": "uint256"
        },
        {
          "internalType": "address[]",
          "name": "recipients",
          "type": "address[]"
        },
        {
          "internalType": "uint32[]",
          "name": "sharesBps",
          "type": "uint32[]"
        },
        {
          "internalType": "uint64",
          "name": "duration",
          "type": "uint64"
        },
        {
          "internalType": "uint64",
          "name": "transferCooldown",
          "type": "uint64"
        }
      ],
      "name": "registerCourse",
      "outputs": [
        {
          "internalType": "address",
          "name": "splitterAddress",
          "type": "address"
        }
      ],
      "stateMutability": "nonpayable",
      "type": "function"
    },
    {
      "inputs": [
        {
          "internalType": "bytes32",
          "name": "role",
          "type": "bytes32"
        },
        {
          "internalType": "address",
          "name": "callerConfirmation",
          "type": "address"
        }
      ],
      "name": "renounceRole",
      "outputs": [],
      "stateMutability": "nonpayable",
      "type": "function"
    },
    {
      "inputs": [
        {
          "internalType": "bytes32",
          "name": "role",
          "type": "bytes32"
        },
        {
          "internalType": "address",
          "name": "account",
          "type": "address"
        }
      ],
      "name": "revokeRole",
      "outputs": [],
      "stateMutability": "nonpayable",
      "type": "function"
    },
    {
      "inputs": [
        {
          "internalType": "address",
          "name": "marketplaceAddress",
          "type": "address"
        }
      ],
      "name": "setMarketplace",
      "outputs": [],
      "stateMutability": "nonpayable",
      "type": "function"
    },
    {
      "inputs": [
        {
          "internalType": "bytes4",
          "name": "interfaceId",
          "type": "bytes4"
        }
      ],
      "name": "supportsInterface",
      "outputs": [
        {
          "internalType": "bool",
          "name": "",
          "type": "bool"
        }
      ],
      "stateMutability": "view",
      "type": "function"
    },
    {
      "inputs": [],
      "name": "usdc",
      "outputs": [
        {
          "internalType": "contract IERC20",
          "name": "",
          "type": "address"
        }
      ],
      "stateMutability": "view",
      "type": "function"
    }
  ],
  "bytecode": "0x60c060405234801561001057600080fd5b506040516119f93803806119f983398101604081905261002f916101ea565b6001600160a01b03831661007e5760405162461bcd60e51b8152602060048201526011602482015270555344432061646472657373207a65726f60781b60448201526064015b60405180910390fd5b6001600160a01b0382166100d45760405162461bcd60e51b815260206004820152601760248201527f4d656d626572736869702061646472657373207a65726f0000000000000000006044820152606401610075565b6001600160a01b03808416608052821660a0526100f2600082610126565b5061011d7fa49807205ce4d355092ef5a8a18f56e8913cf4a201fbe287825b095693c2177582610126565b50505050610237565b6000828152602081815260408083206001600160a01b038516845290915281205460ff166101c8576000838152602081815260408083206001600160a01b03861684529091529020805460ff191660011790556101803390565b6001600160a01b0316826001600160a01b0316847f2f8788117e7eff1d82e926ec794901d17c78024a50270940304540a733656f0d60405160405180910390a45060016101cc565b5060005b92915050565b6001600160a01b03811681146101e757600080fd5b50565b6000806000606084860312156101ff57600080fd5b835161020a816101d2565b602085015190935061021b816101d2565b604085015190925061022c816101d2565b809150509250925092565b60805160a051611788610271600039600081816101ee015281816103ff01526104c201526000818161015a01526103de01526117886000f3fe608060405234801561001057600080fd5b50600436106100cf5760003560e01c806375b238fc1161008c578063a2bf68b911610066578063a2bf68b9146101e9578063abc8c7af14610210578063d547741f14610223578063fc64b3f41461023657600080fd5b806375b238fc146101a757806391d14854146101ce578063a217fddf146101e157600080fd5b806301ffc9a7146100d4578063248a9ca3146100fc5780632f2ff15d1461012d57806336568abe146101425780633e413bee1461015557806373ad6c2d14610194575b600080fd5b6100e76100e23660046106db565b610249565b60405190151581526020015b60405180910390f35b61011f61010a36600461070c565b60009081526020819052604090206001015490565b6040519081526020016100f3565b61014061013b366004610741565b610280565b005b610140610150366004610741565b6102ab565b61017c7f000000000000000000000000000000000000000000000000000000000000000081565b6040516001600160a01b0390911681526020016100f3565b6101406101a236600461076d565b6102e3565b61011f7fa49807205ce4d355092ef5a8a18f56e8913cf4a201fbe287825b095693c2177581565b6100e76101dc366004610741565b61038b565b61011f600081565b61017c7f000000000000000000000000000000000000000000000000000000000000000081565b60015461017c906001600160a01b031681565b610140610231366004610741565b6103b4565b61017c6102443660046107ec565b6103d9565b60006001600160e01b03198216637965db0b60e01b148061027a57506301ffc9a760e01b6001600160e01b03198316145b92915050565b60008281526020819052604090206001015461029b81610587565b6102a58383610594565b50505050565b6001600160a01b03811633146102d45760405163334bd91960e11b815260040160405180910390fd5b6102de8282610626565b505050565b7fa49807205ce4d355092ef5a8a18f56e8913cf4a201fbe287825b095693c2177561030d81610587565b6001600160a01b0382166103685760405162461bcd60e51b815260206004820152601860248201527f4d61726b6574706c6163652061646472657373207a65726f000000000000000060448201526064015b60405180910390fd5b50600180546001600160a01b0319166001600160a01b0392909216919091179055565b6000918252602082815260408084206001600160a01b0393909316845291905290205460ff1690565b6000828152602081905260409020600101546103cf81610587565b6102a58383610626565b6000807f00000000000000000000000000000000000000000000000000000000000000007f0000000000000000000000000000000000000000000000000000000000000000600160009054906101000a90046001600160a01b03168a8a8a8a604051610444906106ce565b6104549796959493929190610890565b604051809103906000f080158015610470573d6000803e3d6000fd5b50604051639e9f0e9360e01b8152600481018c9052602481018b90526001600160a01b03808316604483015233606483015267ffffffffffffffff8088166084840152861660a48301529193508392507f000000000000000000000000000000000000000000000000000000000000000090911690639e9f0e939060c401600060405180830381600087803b15801561050857600080fd5b505af115801561051c573d6000803e3d6000fd5b5050604080518c815267ffffffffffffffff888116602083015287168183015290513393506001600160a01b03861692508d917fde46bb8bedc6ec491913f5522b49084191e1895d50eabc6eb07752ddd92a9b1d919081900360600190a45098975050505050505050565b6105918133610691565b50565b60006105a0838361038b565b61061e576000838152602081815260408083206001600160a01b03861684529091529020805460ff191660011790556105d63390565b6001600160a01b0316826001600160a01b0316847f2f8788117e7eff1d82e926ec794901d17c78024a50270940304540a733656f0d60405160405180910390a450600161027a565b50600061027a565b6000610632838361038b565b1561061e576000838152602081815260408083206001600160a01b0386168085529252808320805460ff1916905551339286917ff6391f5c32d9c69d2a47ea670b442974b53935d1edc7fd64eb21e047a839171b9190a450600161027a565b61069b828261038b565b6106ca5760405163e2517d3f60e01b81526001600160a01b03821660048201526024810183905260440161035f565b5050565b610e0c8061094783390190565b6000602082840312156106ed57600080fd5b81356001600160e01b03198116811461070557600080fd5b9392505050565b60006020828403121561071e57600080fd5b5035919050565b80356001600160a01b038116811461073c57600080fd5b919050565b6000806040838503121561075457600080fd5b8235915061076460208401610725565b90509250929050565b60006020828403121561077f57600080fd5b61070582610725565b60008083601f84011261079a57600080fd5b50813567ffffffffffffffff8111156107b257600080fd5b6020830191508360208260051b85010111156107cd57600080fd5b9250929050565b803567ffffffffffffffff8116811461073c57600080fd5b60008060008060008060008060c0898b03121561080857600080fd5b8835975060208901359650604089013567ffffffffffffffff8082111561082e57600080fd5b61083a8c838d01610788565b909850965060608b013591508082111561085357600080fd5b506108608b828c01610788565b9095509350610873905060808a016107d4565b915061088160a08a016107d4565b90509295985092959890939650565b6001600160a01b038881168252878116602080840191909152878216604084015260a0606084018190528301869052600091879160c08501845b898110156108ef57836108dc86610725565b16825293820193908201906001016108ca565b5085810360808701528681528101925086915060005b8681101561093557823563ffffffff811680821461092257600080fd5b8552509281019291810191600101610905565b50919b9a505050505050505050505056fe60e060405234801561001057600080fd5b50604051610e0c380380610e0c83398101604081905261002f9161047d565b60016000556001600160a01b0385166100835760405162461bcd60e51b8152602060048201526011602482015270555344432061646472657373207a65726f60781b60448201526064015b60405180910390fd5b6001600160a01b0384166100d95760405162461bcd60e51b815260206004820152601760248201527f4d656d626572736869702061646472657373207a65726f000000000000000000604482015260640161007a565b6001600160a01b03831661012f5760405162461bcd60e51b815260206004820152601860248201527f4d61726b6574706c6163652061646472657373207a65726f0000000000000000604482015260640161007a565b8151158061013f57508051825114155b1561015d57604051635d5eb16d60e11b815260040160405180910390fd5b6000805b83518110156101eb5760006001600160a01b03168482815181106101875761018761057d565b60200260200101516001600160a01b0316036101b6576040516308c9926560e31b815260040160405180910390fd5b8281815181106101c8576101c861057d565b602002602001015163ffffffff16826101e19190610593565b9150600101610161565b50612710811461020e57604051636edcc52360e01b815260040160405180910390fd5b6001600160a01b0380871660805285811660a052841660c052825161023a90600390602086019061025a565b50815161024e9060049060208501906102bf565b505050505050506105ba565b8280548282559060005260206000209081019282156102af579160200282015b828111156102af57825182546001600160a01b0319166001600160a01b0390911617825560209092019160019091019061027a565b506102bb929150610365565b5090565b828054828255906000526020600020906007016008900481019282156102af5791602002820160005b8382111561032c57835183826101000a81548163ffffffff021916908363ffffffff16021790555092602001926004016020816003010492830192600103026102e8565b801561035c5782816101000a81549063ffffffff021916905560040160208160030104928301926001030261032c565b50506102bb9291505b5b808211156102bb5760008155600101610366565b6001600160a01b038116811461038f57600080fd5b50565b634e487b7160e01b600052604160045260246000fd5b604051601f8201601f191681016001600160401b03811182821017156103d0576103d0610392565b604052919050565b60006001600160401b038211156103f1576103f1610392565b5060051b60200190565b600082601f83011261040c57600080fd5b8151602061042161041c836103d8565b6103a8565b8083825260208201915060208460051b87010193508684111561044357600080fd5b602086015b8481101561047257805163ffffffff811681146104655760008081fd5b8352918301918301610448565b509695505050505050565b600080600080600060a0868803121561049557600080fd5b85516104a08161037a565b809550506020808701516104b38161037a565b60408801519095506104c48161037a565b60608801519094506001600160401b03808211156104e157600080fd5b818901915089601f8301126104f557600080fd5b815161050361041c826103d8565b81815260059190911b8301840190848101908c83111561052257600080fd5b938501935b8285101561054957845161053a8161037a565b82529385019390850190610527565b60808c0151909750945050508083111561056257600080fd5b5050610570888289016103fb565b9150509295509295909350565b634e487b7160e01b600052603260045260246000fd5b808201808211156105b457634e487b7160e01b600052601160045260246000fd5b92915050565b60805160a05160c05161080e6105fe600039600081816101cf015261048001526000818161019f015261044e01526000818161012d0152610316015261080e6000f3fe608060405234801561001057600080fd5b50600436106100cf5760003560e01c8063a2bf68b91161008c578063c11d2d1811610066578063c11d2d18146101f1578063d1bc76a114610204578063d3cd52bc14610217578063e33b7de31461022057600080fd5b8063a2bf68b91461019a578063a3c2c462146101c1578063abc8c7af146101ca57600080fd5b80630750986b146100d4578063191655871461010157806322eabb8e146101165780633e413bee146101285780635eebea20146101675780639852595c1461017a575b600080fd5b6100e76100e23660046106c6565b610229565b60405163ffffffff90911681526020015b60405180910390f35b61011461010f3660046106fb565b610263565b005b6003545b6040519081526020016100f8565b61014f7f000000000000000000000000000000000000000000000000000000000000000081565b6040516001600160a01b0390911681526020016100f8565b61011a6101753660046106fb565b61038e565b61011a6101883660046106fb565b60056020526000908152604090205481565b61014f7f000000000000000000000000000000000000000000000000000000000000000081565b61011a60015481565b61014f7f000000000000000000000000000000000000000000000000000000000000000081565b6101146101ff36600461071d565b610443565b61014f6102123660046106c6565b610547565b6100e761271081565b61011a60025481565b6004818154811061023957600080fd5b9060005260206000209060089182820401919006600402915054906101000a900463ffffffff1681565b61026b610571565b60006102768261038e565b9050600081116102c25760405162461bcd60e51b81526020600482015260126024820152714e6f7468696e6720746f2072656c6561736560701b60448201526064015b60405180910390fd5b6001600160a01b038216600090815260056020526040812080548392906102ea90849061075d565b925050819055508060026000828254610303919061075d565b9091555061033d90506001600160a01b037f000000000000000000000000000000000000000000000000000000000000000016838361059b565b816001600160a01b03167fdf20fd1e76bc69d672e4814fafb2c449bba3a5369d8359adf9e05e6fde87b0568260405161037891815260200190565b60405180910390a25061038b6001600055565b50565b60008061039a836105f2565b905060001981036103ae5750600092915050565b6000600482815481106103c3576103c3610776565b90600052602060002090600891828204019190066004029054906101000a900463ffffffff1663ffffffff169050600061271063ffffffff168260015461040a919061078c565b61041491906107a3565b6001600160a01b03861660009081526005602052604090205490915061043a90826107c5565b95945050505050565b336001600160a01b037f00000000000000000000000000000000000000000000000000000000000000001614806104a25750336001600160a01b037f000000000000000000000000000000000000000000000000000000000000000016145b6104ee5760405162461bcd60e51b815260206004820152601e60248201527f4f6e6c79206d656d62657273686970206f72206d61726b6574706c616365000060448201526064016102b9565b8060016000828254610500919061075d565b90915550506040518181526001600160a01b038316907f6ef95f06320e7a25a04a175ca677b7052bdd97131872c2192525a629f51be7709060200160405180910390a25050565b6003818154811061055757600080fd5b6000918252602090912001546001600160a01b0316905081565b60026000540361059457604051633ee5aeb560e01b815260040160405180910390fd5b6002600055565b604080516001600160a01b038416602482015260448082018490528251808303909101815260649091019091526020810180516001600160e01b031663a9059cbb60e01b1790526105ed90849061064f565b505050565b6000805b60035481101561064557826001600160a01b03166003828154811061061d5761061d610776565b6000918252602090912001546001600160a01b03160361063d5792915050565b6001016105f6565b5060001992915050565b600080602060008451602086016000885af180610672576040513d6000823e3d81fd5b50506000513d9150811561068a578060011415610697565b6001600160a01b0384163b155b156106c057604051635274afe760e01b81526001600160a01b03851660048201526024016102b9565b50505050565b6000602082840312156106d857600080fd5b5035919050565b80356001600160a01b03811681146106f657600080fd5b919050565b60006020828403121561070d57600080fd5b610716826106df565b9392505050565b6000806040838503121561073057600080fd5b610739836106df565b946020939093013593505050565b634e487b7160e01b600052601160045260246000fd5b8082018082111561077057610770610747565b92915050565b634e487b7160e01b600052603260045260246000fd5b808202811582820484141761077057610770610747565b6000826107c057634e487b7160e01b600052601260045260246000fd5b500490565b818103818111156107705761077061074756fea26469706673582212204b9145d54c1fd3914bf37c5b4403153c1c73d9518b9a1dc88a2b5d79f87c7d6564736f6c63430008190033a264697066735822122033f492d71598e96ef4f62ce1871802a73d97f3456ee63003c1dccb8aa188095164736f6c63430008190033",
  "linkReferences": {},
  "deployedLinkReferences": {}
}