{
  "_format": "hh-sol-artifact-1",
  "contractName": "RevenueSplitRouter",
  "sourceName": "contracts/RevenueSplitRouter.sol",
  "abi": [
    {
      "inputs": [],
      "name": "InvalidAmount",
      "type": "error"
    },
    {
      "inputs": [],
      "name": "InvalidRecipients",
      "type": "error"
    },
    {
      "inputs": [],
      "name": "InvalidShares",
      "type": "error"
    },
    {
      "inputs": [
        {
          "internalType": "address",
          "name": "token",
          "type": "address"
        }
      ],
      "name": "SafeERC20FailedOperation",
      "type": "error"
    },
    {
      "anonymous": false,
      "inputs": [
        {
          "indexed": true,
          "internalType": "address",
          "name": "payer",
          "type": "address"
        },
        {
          "indexed": true,
          "internalType": "address",
          "name": "token",
          "type": "address"
        },
        {
          "indexed": false,
          "internalType": "uint256",
          "name": "amount",
          "type": "uint256"
        },
        {
          "indexed": false,
          "internalType": "address[]",
          "name": "recipients",
          "type": "address[]"
        },
        {
          "indexed": false,
          "internalType": "uint32[]",
          "name": "sharesBps",
          "type": "uint32[]"
        }
      ],
      "name": "RevenueSplit",
      "type": "event"
    },
    {
      "inputs": [],
      "name": "TOTAL_BPS",
      "outputs": [
        {
          "internalType": "uint32",
          "name": "",
          "type": "uint32"
        }
      ],
      "stateMutability": "view",
      "type": "function"
    },
    {
      "inputs": [
        {
          "internalType": "contract IERC20",
          "name": "token",
          "type": "address"
        },
        {
          "internalType": "address[]",
          "name": "recipients",
          "type": "address[]"
        },
        {
          "internalType": "uint32[]",
          "name": "sharesBps",
          "type": "uint32[]"
        },
        {
          "internalType": "uint256",
          "name": "amount",
          "type": "uint256"
        }
      ],
      "name": "splitTransfer",
      "outputs": [],
      "stateMutability": "nonpayable",
      "type": "function"
    }
  ],
  "bytecode": "0x6080604052348015600f57600080fd5b506106728061001f6000396000f3fe608060405234801561001057600080fd5b50600436106100365760003560e01c80634ad17baf1461003b578063d3cd52bc14610050575b600080fd5b61004e610049366004610430565b610072565b005b61005961271081565b60405163ffffffff909116815260200160405180910390f35b806000036100935760405163162908e360e11b815260040160405180910390fd5b8315806100a05750838214155b156100be57604051635d5eb16d60e11b815260040160405180910390fd5b6000805b8381101561015b5760008787838181106100de576100de6104bb565b90506020020160208101906100f391906104d1565b6001600160a01b03160361011a57604051635d5eb16d60e11b815260040160405180910390fd5b84848281811061012c5761012c6104bb565b9050602002016020810190610141919061050e565b6101519063ffffffff168361053f565b91506001016100c2565b50612710811461017e57604051636edcc52360e01b815260040160405180910390fd5b6101936001600160a01b0388163330856102b4565b8160005b868110156102565760006127108787848181106101b6576101b66104bb565b90506020020160208101906101cb919061050e565b6101db9063ffffffff1687610558565b6101e5919061056f565b90506101f2600189610591565b82036101ff57508161020c565b6102098184610591565b92505b801561024d5761024d898984818110610227576102276104bb565b905060200201602081019061023c91906104d1565b6001600160a01b038c169083610321565b50600101610197565b50876001600160a01b0316336001600160a01b03167f9d37cf9d2459cdd02406e2a7be25f662d9da1f8f6496c3aa43512c8ce287acd0858a8a8a8a6040516102a29594939291906105a4565b60405180910390a35050505050505050565b6040516001600160a01b03848116602483015283811660448301526064820183905261031b9186918216906323b872dd906084015b604051602081830303815290604052915060e01b6020820180516001600160e01b038381831617835250505050610357565b50505050565b6040516001600160a01b0383811660248301526044820183905261035291859182169063a9059cbb906064016102e9565b505050565b600080602060008451602086016000885af18061037a576040513d6000823e3d81fd5b50506000513d9150811561039257806001141561039f565b6001600160a01b0384163b155b1561031b57604051635274afe760e01b81526001600160a01b038516600482015260240160405180910390fd5b6001600160a01b03811681146103e157600080fd5b50565b60008083601f8401126103f657600080fd5b50813567ffffffffffffffff81111561040e57600080fd5b6020830191508360208260051b850101111561042957600080fd5b9250929050565b6000806000806000806080878903121561044957600080fd5b8635610454816103cc565b9550602087013567ffffffffffffffff8082111561047157600080fd5b61047d8a838b016103e4565b9097509550604089013591508082111561049657600080fd5b506104a389828a016103e4565b979a9699509497949695606090950135949350505050565b634e487b7160e01b600052603260045260246000fd5b6000602082840312156104e357600080fd5b81356104ee816103cc565b9392505050565b803563ffffffff8116811461050957600080fd5b919050565b60006020828403121561052057600080fd5b6104ee826104f5565b634e487b7160e01b600052601160045260246000fd5b8082018082111561055257610552610529565b92915050565b808202811582820484141761055257610552610529565b60008261058c57634e487b7160e01b600052601260045260246000fd5b500490565b8181038181111561055257610552610529565b85815260606020808301829052908201859052600090869060808401835b888110156105f05783356105d5816103cc565b6001600160a01b0316825292820192908201906001016105c2565b508481036040860152858152810191508560005b8681101561062d5763ffffffff61061a836104f5565b1684529282019290820190600101610604565b5091999850505050505050505056fea264697066735822122015ccbe920bc209aff5eaa0315490d5641f26841625c73415572119c8cd55c18464736f6c63430008190033",
  "linkReferences": {},
  "deployedLinkReferences": {}
}