{
  "_format": "hh-sol-artifact-1",
  "contractName": "RevenueSplitRouter",
  "sourceName": "contracts/RevenueSplitRouter.sol",
  "abi": [
    {
      "inputs": [],
      "name": "InvalidAmount",
      "type": "error"
    },
    {
      "inputs": [],
      "name": "InvalidRecipients",
      "type": "error"
    },
    {
      "inputs": [],
      "name": "InvalidShares",
      "type": "error"
    },
    {
      "inputs": [
        {
          "internalType": "address",
          "name": "token",
          "type": "address"
        }
      ],
      "name": "SafeERC20FailedOperation",
      "type": "error"
    },
    {
      "anonymous": false,
      "inputs": [
        {
          "indexed": true,
          "internalType": "address",
          "name": "payer",
          "type": "address"
        },
        {
          "indexed": true,
          "internalType": "address",
          "name": "token",
          "type": "address"
        },
        {
          "indexed": false,
          "internalType": "uint256",
          "name": "amount",
          "type": "uint256"
        },
        {
          "indexed": false,
          "internalType": "address[]",
          "name": "recipients",
          "type": "address[]"
        },
        {
          "indexed": false,
          "internalType": "uint32[]",
          "name": "sharesBps",
          "type": "uint32[]"
        }
      ],
      "name": "RevenueSplit",
      "type": "event"
    },
    {
      "inputs": [],
      "name": "TOTAL_BPS",
      "outputs": [
        {
          "internalType": "uint32",
          "name": "",
          "type": "uint32"
        }
      ],
      "stateMutability": "view",
      "type": "function"
    },
    {
      "inputs": [
        {
          "internalType": "contract IERC20",
          "name": "token",
          "type": "address"
        },
        {
          "internalType": "address[]",
          "name": "recipients",
          "type": "address[]"
        },
        {
          "internalType": "uint32[]",
          "name": "sharesBps",
          "type": "uint32[]"
        },
        {
          "internalType": "uint256",
          "name": "amount",
          "type": "uint256"
        }
      ],
      "name": "splitTransfer",
      "outputs": [],
      "stateMutability": "nonpayable",
      "type": "function"
    }
  ],
  "bytecode": "0x6080604052348015600f57600080fd5b506106788061001f6000396000f3fe608060405234801561001057600080fd5b50600436106100365760003560e01c80634ad17baf1461003b578063d3cd52bc14610050575b600080fd5b61004e610049366004610430565b610072565b005b61005961271081565b60405163ffffffff909116815260200160405180910390f35b806000036100935760405163162908e360e11b815260040160405180910390fd5b8315806100a05750838214155b156100be57604051635d5eb16d60e11b815260040160405180910390fd5b6000805b8381101561015b5760008787838181106100de576100de6104c0565b90506020020160208101906100f391906104d6565b6001600160a01b03160361011a57604051635d5eb16d60e11b815260040160405180910390fd5b84848281811061012c5761012c6104c0565b90506020020160208101906101419190610513565b6101519063ffffffff1683610544565b91506001016100c2565b50612710811461017e57604051636edcc52360e01b815260040160405180910390fd5b6101936001600160a01b0388163330856102b4565b8160005b868110156102565760006127108787848181106101b6576101b66104c0565b90506020020160208101906101cb9190610513565b6101db9063ffffffff168761055d565b6101e59190610574565b90506101f2600189610596565b82036101ff57508161020c565b6102098184610596565b92505b801561024d5761024d898984818110610227576102276104c0565b905060200201602081019061023c91906104d6565b6001600160a01b038c169083610321565b50600101610197565b50876001600160a01b0316336001600160a01b03167f9d37cf9d2459cdd02406e2a7be25f662d9da1f8f6496c3aa43512c8ce287acd0858a8a8a8a6040516102a29594939291906105a9565b60405180910390a35050505050505050565b6040516001600160a01b03848116602483015283811660448301526064820183905261031b9186918216906323b872dd906084015b604051602081830303815290604052915060e01b6020820180516001600160e01b038381831617835250505050610357565b50505050565b6040516001600160a01b0383811660248301526044820183905261035291859182169063a9059cbb906064016102e9565b505050565b600080602060008451602086016000885af18061037a576040513d6000823e3d81fd5b50506000513d9150811561039257806001141561039f565b6001600160a01b0384163b155b1561031b57604051635274afe760e01b81526001600160a01b038516600482015260240160405180910390fd5b6001600160a01b03811681146103e157600080fd5b50565b60008083601f8401126103f657600080fd5b50813567ffffffffffffffff81111561040e57600080fd5b6020830191508360208260051b850101111561042957600080fd5b9250929050565b6000806000806000806080878903121561044957600080fd5b8635610454816103cc565b9550602087013567ffffffffffffffff81111561047057600080fd5b61047c89828a016103e4565b909650945050604087013567ffffffffffffffff81111561049c57600080fd5b6104a889828a016103e4565b979a9699509497949695606090950135949350505050565b634e487b7160e01b600052603260045260246000fd5b6000602082840312156104e857600080fd5b81356104f3816103cc565b9392505050565b803563ffffffff8116811461050e57600080fd5b919050565b60006020828403121561052557600080fd5b6104f3826104fa565b634e487b7160e01b600052601160045260246000fd5b808201808211156105575761055761052e565b92915050565b80820281158282048414176105575761055761052e565b60008261059157634e487b7160e01b600052601260045260246000fd5b500490565b818103818111156105575761055761052e565b858152606060208201819052810184905260008560808301825b878110156105f35782356105d6816103cc565b6001600160a01b03168252602092830192909101906001016105c3565b50838103604085015284815260200190508460005b858110156106345763ffffffff61061e836104fa565b1683526020928301929190910190600101610608565b50909897505050505050505056fea2646970667358221220a720b5ea82b7a6928eb8de4b0668400e906db317769d5cd2ff4cbc6e7606da6c64736f6c634300081c0033",
  "linkReferences": {},
  "deployedLinkReferences": {}
}