{
  "_format": "hh-sol-artifact-1",
  "contractName": "SplitPayout",
  "sourceName": "contracts/helpers/SplitPayout.sol",
  "abi": [
    {
      "inputs": [
        {
          "internalType": "contract IERC20",
          "name": "usdcToken",
          "type": "address"
        },
        {
          "internalType": "address",
          "name": "membership_",
          "type": "address"
        },
        {
          "internalType": "address",
          "name": "marketplace_",
          "type": "address"
        },
        {
          "internalType": "address[]",
          "name": "_recipients",
          "type": "address[]"
        },
        {
          "internalType": "uint32[]",
          "name": "_sharesBps",
          "type": "uint32[]"
        }
      ],
      "stateMutability": "nonpayable",
      "type": "constructor"
    },
    {
      "inputs": [],
      "name": "InvalidRecipients",
      "type": "error"
    },
    {
      "inputs": [],
      "name": "InvalidShares",
      "type": "error"
    },
    {
      "inputs": [],
      "name": "ReentrancyGuardReentrantCall",
      "type": "error"
    },
    {
      "inputs": [
        {
          "internalType": "address",
          "name": "token",
          "type": "address"
        }
      ],
      "name": "SafeERC20FailedOperation",
      "type": "error"
    },
    {
      "inputs": [],
      "name": "ZeroAddressRecipient",
      "type": "error"
    },
    {
      "anonymous": false,
      "inputs": [
        {
          "indexed": true,
          "internalType": "address",
          "name": "payer",
          "type": "address"
        },
        {
          "indexed": false,
          "internalType": "uint256",
          "name": "amount",
          "type": "uint256"
        }
      ],
      "name": "PaymentReceived",
      "type": "event"
    },
    {
      "anonymous": false,
      "inputs": [
        {
          "indexed": true,
          "internalType": "address",
          "name": "to",
          "type": "address"
        },
        {
          "indexed": false,
          "internalType": "uint256",
          "name": "amount",
          "type": "uint256"
        }
      ],
      "name": "PaymentReleased",
      "type": "event"
    },
    {
      "inputs": [],
      "name": "TOTAL_BPS",
      "outputs": [
        {
          "internalType": "uint32",
          "name": "",
          "type": "uint32"
        }
      ],
      "stateMutability": "view",
      "type": "function"
    },
    {
      "inputs": [],
      "name": "marketplace",
      "outputs": [
        {
          "internalType": "address",
          "name": "",
          "type": "address"
        }
      ],
      "stateMutability": "view",
      "type": "function"
    },
    {
      "inputs": [],
      "name": "membership",
      "outputs": [
        {
          "internalType": "address",
          "name": "",
          "type": "address"
        }
      ],
      "stateMutability": "view",
      "type": "function"
    },
    {
      "inputs": [
        {
          "internalType": "address",
          "name": "account",
          "type": "address"
        }
      ],
      "name": "pending",
      "outputs": [
        {
          "internalType": "uint256",
          "name": "",
          "type": "uint256"
        }
      ],
      "stateMutability": "view",
      "type": "function"
    },
    {
      "inputs": [],
      "name": "recipientCount",
      "outputs": [
        {
          "internalType": "uint256",
          "name": "",
          "type": "uint256"
        }
      ],
      "stateMutability": "view",
      "type": "function"
    },
    {
      "inputs": [
        {
          "internalType": "uint256",
          "name": "",
          "type": "uint256"
        }
      ],
      "name": "recipients",
      "outputs": [
        {
          "internalType": "address",
          "name": "",
          "type": "address"
        }
      ],
      "stateMutability": "view",
      "type": "function"
    },
    {
      "inputs": [
        {
          "internalType": "address",
          "name": "payer",
          "type": "address"
        },
        {
          "internalType": "uint256",
          "name": "amount",
          "type": "uint256"
        }
      ],
      "name": "recordPayment",
      "outputs": [],
      "stateMutability": "nonpayable",
      "type": "function"
    },
    {
      "inputs": [
        {
          "internalType": "address",
          "name": "account",
          "type": "address"
        }
      ],
      "name": "release",
      "outputs": [],
      "stateMutability": "nonpayable",
      "type": "function"
    },
    {
      "inputs": [
        {
          "internalType": "address",
          "name": "",
          "type": "address"
        }
      ],
      "name": "released",
      "outputs": [
        {
          "internalType": "uint256",
          "name": "",
          "type": "uint256"
        }
      ],
      "stateMutability": "view",
      "type": "function"
    },
    {
      "inputs": [
        {
          "internalType": "uint256",
          "name": "",
          "type": "uint256"
        }
      ],
      "name": "sharesBps",
      "outputs": [
        {
          "internalType": "uint32",
          "name": "",
          "type": "uint32"
        }
      ],
      "stateMutability": "view",
      "type": "function"
    },
    {
      "inputs": [],
      "name": "totalReceived",
      "outputs": [
        {
          "internalType": "uint256",
          "name": "",
          "type": "uint256"
        }
      ],
      "stateMutability": "view",
      "type": "function"
    },
    {
      "inputs": [],
      "name": "totalReleased",
      "outputs": [
        {
          "internalType": "uint256",
          "name": "",
          "type": "uint256"
        }
      ],
      "stateMutability": "view",
      "type": "function"
    },
    {
      "inputs": [],
      "name": "usdc",
      "outputs": [
        {
          "internalType": "contract IERC20",
          "name": "",
          "type": "address"
        }
      ],
      "stateMutability": "view",
      "type": "function"
    }
  ],
  "bytecode": "0x60e060405234801561001057600080fd5b50604051610e0c380380610e0c83398101604081905261002f9161047d565b60016000556001600160a01b0385166100835760405162461bcd60e51b8152602060048201526011602482015270555344432061646472657373207a65726f60781b60448201526064015b60405180910390fd5b6001600160a01b0384166100d95760405162461bcd60e51b815260206004820152601760248201527f4d656d626572736869702061646472657373207a65726f000000000000000000604482015260640161007a565b6001600160a01b03831661012f5760405162461bcd60e51b815260206004820152601860248201527f4d61726b6574706c6163652061646472657373207a65726f0000000000000000604482015260640161007a565b8151158061013f57508051825114155b1561015d57604051635d5eb16d60e11b815260040160405180910390fd5b6000805b83518110156101eb5760006001600160a01b03168482815181106101875761018761057d565b60200260200101516001600160a01b0316036101b6576040516308c9926560e31b815260040160405180910390fd5b8281815181106101c8576101c861057d565b602002602001015163ffffffff16826101e19190610593565b9150600101610161565b50612710811461020e57604051636edcc52360e01b815260040160405180910390fd5b6001600160a01b0380871660805285811660a052841660c052825161023a90600390602086019061025a565b50815161024e9060049060208501906102bf565b505050505050506105ba565b8280548282559060005260206000209081019282156102af579160200282015b828111156102af57825182546001600160a01b0319166001600160a01b0390911617825560209092019160019091019061027a565b506102bb929150610365565b5090565b828054828255906000526020600020906007016008900481019282156102af5791602002820160005b8382111561032c57835183826101000a81548163ffffffff021916908363ffffffff16021790555092602001926004016020816003010492830192600103026102e8565b801561035c5782816101000a81549063ffffffff021916905560040160208160030104928301926001030261032c565b50506102bb9291505b5b808211156102bb5760008155600101610366565b6001600160a01b038116811461038f57600080fd5b50565b634e487b7160e01b600052604160045260246000fd5b604051601f8201601f191681016001600160401b03811182821017156103d0576103d0610392565b604052919050565b60006001600160401b038211156103f1576103f1610392565b5060051b60200190565b600082601f83011261040c57600080fd5b8151602061042161041c836103d8565b6103a8565b8083825260208201915060208460051b87010193508684111561044357600080fd5b602086015b8481101561047257805163ffffffff811681146104655760008081fd5b8352918301918301610448565b509695505050505050565b600080600080600060a0868803121561049557600080fd5b85516104a08161037a565b809550506020808701516104b38161037a565b60408801519095506104c48161037a565b60608801519094506001600160401b03808211156104e157600080fd5b818901915089601f8301126104f557600080fd5b815161050361041c826103d8565b81815260059190911b8301840190848101908c83111561052257600080fd5b938501935b8285101561054957845161053a8161037a565b82529385019390850190610527565b60808c0151909750945050508083111561056257600080fd5b5050610570888289016103fb565b9150509295509295909350565b634e487b7160e01b600052603260045260246000fd5b808201808211156105b457634e487b7160e01b600052601160045260246000fd5b92915050565b60805160a05160c05161080e6105fe600039600081816101cf015261048001526000818161019f015261044e01526000818161012d0152610316015261080e6000f3fe608060405234801561001057600080fd5b50600436106100cf5760003560e01c8063a2bf68b91161008c578063c11d2d1811610066578063c11d2d18146101f1578063d1bc76a114610204578063d3cd52bc14610217578063e33b7de31461022057600080fd5b8063a2bf68b91461019a578063a3c2c462146101c1578063abc8c7af146101ca57600080fd5b80630750986b146100d4578063191655871461010157806322eabb8e146101165780633e413bee146101285780635eebea20146101675780639852595c1461017a575b600080fd5b6100e76100e23660046106c6565b610229565b60405163ffffffff90911681526020015b60405180910390f35b61011461010f3660046106fb565b610263565b005b6003545b6040519081526020016100f8565b61014f7f000000000000000000000000000000000000000000000000000000000000000081565b6040516001600160a01b0390911681526020016100f8565b61011a6101753660046106fb565b61038e565b61011a6101883660046106fb565b60056020526000908152604090205481565b61014f7f000000000000000000000000000000000000000000000000000000000000000081565b61011a60015481565b61014f7f000000000000000000000000000000000000000000000000000000000000000081565b6101146101ff36600461071d565b610443565b61014f6102123660046106c6565b610547565b6100e761271081565b61011a60025481565b6004818154811061023957600080fd5b9060005260206000209060089182820401919006600402915054906101000a900463ffffffff1681565b61026b610571565b60006102768261038e565b9050600081116102c25760405162461bcd60e51b81526020600482015260126024820152714e6f7468696e6720746f2072656c6561736560701b60448201526064015b60405180910390fd5b6001600160a01b038216600090815260056020526040812080548392906102ea90849061075d565b925050819055508060026000828254610303919061075d565b9091555061033d90506001600160a01b037f000000000000000000000000000000000000000000000000000000000000000016838361059b565b816001600160a01b03167fdf20fd1e76bc69d672e4814fafb2c449bba3a5369d8359adf9e05e6fde87b0568260405161037891815260200190565b60405180910390a25061038b6001600055565b50565b60008061039a836105f2565b905060001981036103ae5750600092915050565b6000600482815481106103c3576103c3610776565b90600052602060002090600891828204019190066004029054906101000a900463ffffffff1663ffffffff169050600061271063ffffffff168260015461040a919061078c565b61041491906107a3565b6001600160a01b03861660009081526005602052604090205490915061043a90826107c5565b95945050505050565b336001600160a01b037f00000000000000000000000000000000000000000000000000000000000000001614806104a25750336001600160a01b037f000000000000000000000000000000000000000000000000000000000000000016145b6104ee5760405162461bcd60e51b815260206004820152601e60248201527f4f6e6c79206d656d62657273686970206f72206d61726b6574706c616365000060448201526064016102b9565b8060016000828254610500919061075d565b90915550506040518181526001600160a01b038316907f6ef95f06320e7a25a04a175ca677b7052bdd97131872c2192525a629f51be7709060200160405180910390a25050565b6003818154811061055757600080fd5b6000918252602090912001546001600160a01b0316905081565b60026000540361059457604051633ee5aeb560e01b815260040160405180910390fd5b6002600055565b604080516001600160a01b038416602482015260448082018490528251808303909101815260649091019091526020810180516001600160e01b031663a9059cbb60e01b1790526105ed90849061064f565b505050565b6000805b60035481101561064557826001600160a01b03166003828154811061061d5761061d610776565b6000918252602090912001546001600160a01b03160361063d5792915050565b6001016105f6565b5060001992915050565b600080602060008451602086016000885af180610672576040513d6000823e3d81fd5b50506000513d9150811561068a578060011415610697565b6001600160a01b0384163b155b156106c057604051635274afe760e01b81526001600160a01b03851660048201526024016102b9565b50505050565b6000602082840312156106d857600080fd5b5035919050565b80356001600160a01b03811681146106f657600080fd5b919050565b60006020828403121561070d57600080fd5b610716826106df565b9392505050565b6000806040838503121561073057600080fd5b610739836106df565b946020939093013593505050565b634e487b7160e01b600052601160045260246000fd5b8082018082111561077057610770610747565b92915050565b634e487b7160e01b600052603260045260246000fd5b808202811582820484141761077057610770610747565b6000826107c057634e487b7160e01b600052601260045260246000fd5b500490565b818103818111156107705761077061074756fea26469706673582212204b9145d54c1fd3914bf37c5b4403153c1c73d9518b9a1dc88a2b5d79f87c7d6564736f6c63430008190033",
  "linkReferences": {},
  "deployedLinkReferences": {}
}