{
  "_format": "hh-sol-artifact-1",
  "contractName": "VestaQuest",
  "sourceName": "contracts/VestaQuest.sol",
  "abi": [
    {
      "anonymous": false,
      "inputs": [
        {
          "indexed": true,
          "internalType": "address",
          "name": "player",
          "type": "address"
        },
        {
          "indexed": true,
          "internalType": "uint256",
          "name": "questId",
          "type": "uint256"
        },
        {
          "indexed": false,
          "internalType": "string",
          "name": "proofUri",
          "type": "string"
        }
      ],
      "name": "QuestCompleted",
      "type": "event"
    },
    {
      "inputs": [
        {
          "internalType": "uint256",
          "name": "questId",
          "type": "uint256"
        },
        {
          "internalType": "string",
          "name": "proofUri",
          "type": "string"
        }
      ],
      "name": "completeQuest",
      "outputs": [],
      "stateMutability": "nonpayable",
      "type": "function"
    },
    {
      "inputs": [
        {
          "internalType": "address",
          "name": "",
          "type": "address"
        },
        {
          "internalType": "uint256",
          "name": "",
          "type": "uint256"
        }
      ],
      "name": "completed",
      "outputs": [
        {
          "internalType": "bool",
          "name": "",
          "type": "bool"
        }
      ],
      "stateMutability": "view",
      "type": "function"
    }
  ],
  "bytecode": "0x6080604052348015600f57600080fd5b506102708061001f6000396000f3fe608060405234801561001057600080fd5b50600436106100365760003560e01c8063aa995c2c1461003b578063fdeacd231461007a575b600080fd5b610066610049366004610155565b600060208181529281526040808220909352908152205460ff1681565b604051901515815260200160405180910390f35b61008d61008836600461018d565b61008f565b005b3360009081526020818152604080832086845290915290205460ff16156100f05760405162461bcd60e51b8152602060048201526011602482015270105b1c9958591e4818dbdb5c1b195d1959607a1b604482015260640160405180910390fd5b3360008181526020818152604080832087845290915290819020805460ff19166001179055518491907ffad4db1b73564d444c9c41b7f82f142c2e0da79705d3aa1a2fb9e3537ba55de390610148908690869061020b565b60405180910390a3505050565b6000806040838503121561016857600080fd5b82356001600160a01b038116811461017f57600080fd5b946020939093013593505050565b6000806000604084860312156101a257600080fd5b83359250602084013567ffffffffffffffff8111156101c057600080fd5b8401601f810186136101d157600080fd5b803567ffffffffffffffff8111156101e857600080fd5b8660208284010111156101fa57600080fd5b939660209190910195509293505050565b60208152816020820152818360408301376000818301604090810191909152601f909201601f1916010191905056fea2646970667358221220a8bb6dc37c8b8127220cea0ddc76365168d6abc763c08687ff297770bea9f25464736f6c634300081c0033",
  "linkReferences": {},
  "deployedLinkReferences": {}
}