{
  "_format": "hh-sol-artifact-1",
  "contractName": "VestaBadge",
  "sourceName": "contracts/VestaBadge.sol",
  "abi": [
    {
      "inputs": [
        {
          "internalType": "address",
          "name": "admin",
          "type": "address"
        }
      ],
      "stateMutability": "nonpayable",
      "type": "constructor"
    },
    {
      "inputs": [],
      "name": "AccessControlBadConfirmation",
      "type": "error"
    },
    {
      "inputs": [
        {
          "internalType": "address",
          "name": "account",
          "type": "address"
        },
        {
          "internalType": "bytes32",
          "name": "neededRole",
          "type": "bytes32"
        }
      ],
      "name": "AccessControlUnauthorizedAccount",
      "type": "error"
    },
    {
      "inputs": [
        {
          "internalType": "address",
          "name": "sender",
          "type": "address"
        },
        {
          "internalType": "uint256",
          "name": "tokenId",
          "type": "uint256"
        },
        {
          "internalType": "address",
          "name": "owner",
          "type": "address"
        }
      ],
      "name": "ERC721IncorrectOwner",
      "type": "error"
    },
    {
      "inputs": [
        {
          "internalType": "address",
          "name": "operator",
          "type": "address"
        },
        {
          "internalType": "uint256",
          "name": "tokenId",
          "type": "uint256"
        }
      ],
      "name": "ERC721InsufficientApproval",
      "type": "error"
    },
    {
      "inputs": [
        {
          "internalType": "address",
          "name": "approver",
          "type": "address"
        }
      ],
      "name": "ERC721InvalidApprover",
      "type": "error"
    },
    {
      "inputs": [
        {
          "internalType": "address",
          "name": "operator",
          "type": "address"
        }
      ],
      "name": "ERC721InvalidOperator",
      "type": "error"
    },
    {
      "inputs": [
        {
          "internalType": "address",
          "name": "owner",
          "type": "address"
        }
      ],
      "name": "ERC721InvalidOwner",
      "type": "error"
    },
    {
      "inputs": [
        {
          "internalType": "address",
          "name": "receiver",
          "type": "address"
        }
      ],
      "name": "ERC721InvalidReceiver",
      "type": "error"
    },
    {
      "inputs": [
        {
          "internalType": "address",
          "name": "sender",
          "type": "address"
        }
      ],
      "name": "ERC721InvalidSender",
      "type": "error"
    },
    {
      "inputs": [
        {
          "internalType": "uint256",
          "name": "tokenId",
          "type": "uint256"
        }
      ],
      "name": "ERC721NonexistentToken",
      "type": "error"
    },
    {
      "anonymous": false,
      "inputs": [
        {
          "indexed": true,
          "internalType": "address",
          "name": "owner",
          "type": "address"
        },
        {
          "indexed": true,
          "internalType": "address",
          "name": "approved",
          "type": "address"
        },
        {
          "indexed": true,
          "internalType": "uint256",
          "name": "tokenId",
          "type": "uint256"
        }
      ],
      "name": "Approval",
      "type": "event"
    },
    {
      "anonymous": false,
      "inputs": [
        {
          "indexed": true,
          "internalType": "address",
          "name": "owner",
          "type": "address"
        },
        {
          "indexed": true,
          "internalType": "address",
          "name": "operator",
          "type": "address"
        },
        {
          "indexed": false,
          "internalType": "bool",
          "name": "approved",
          "type": "bool"
        }
      ],
      "name": "ApprovalForAll",
      "type": "event"
    },
    {
      "anonymous": false,
      "inputs": [
        {
          "indexed": true,
          "internalType": "address",
          "name": "player",
          "type": "address"
        },
        {
          "indexed": true,
          "internalType": "uint256",
          "name": "tokenId",
          "type": "uint256"
        },
        {
          "indexed": false,
          "internalType": "uint256",
          "name": "questId",
          "type": "uint256"
        }
      ],
      "name": "BadgeMinted",
      "type": "event"
    },
    {
      "anonymous": false,
      "inputs": [
        {
          "indexed": true,
          "internalType": "bytes32",
          "name": "role",
          "type": "bytes32"
        },
        {
          "indexed": true,
          "internalType": "bytes32",
          "name": "previousAdminRole",
          "type": "bytes32"
        },
        {
          "indexed": true,
          "internalType": "bytes32",
          "name": "newAdminRole",
          "type": "bytes32"
        }
      ],
      "name": "RoleAdminChanged",
      "type": "event"
    },
    {
      "anonymous": false,
      "inputs": [
        {
          "indexed": true,
          "internalType": "bytes32",
          "name": "role",
          "type": "bytes32"
        },
        {
          "indexed": true,
          "internalType": "address",
          "name": "account",
          "type": "address"
        },
        {
          "indexed": true,
          "internalType": "address",
          "name": "sender",
          "type": "address"
        }
      ],
      "name": "RoleGranted",
      "type": "event"
    },
    {
      "anonymous": false,
      "inputs": [
        {
          "indexed": true,
          "internalType": "bytes32",
          "name": "role",
          "type": "bytes32"
        },
        {
          "indexed": true,
          "internalType": "address",
          "name": "account",
          "type": "address"
        },
        {
          "indexed": true,
          "internalType": "address",
          "name": "sender",
          "type": "address"
        }
      ],
      "name": "RoleRevoked",
      "type": "event"
    },
    {
      "anonymous": false,
      "inputs": [
        {
          "indexed": true,
          "internalType": "address",
          "name": "from",
          "type": "address"
        },
        {
          "indexed": true,
          "internalType": "address",
          "name": "to",
          "type": "address"
        },
        {
          "indexed": true,
          "internalType": "uint256",
          "name": "tokenId",
          "type": "uint256"
        }
      ],
      "name": "Transfer",
      "type": "event"
    },
    {
      "inputs": [],
      "name": "DEFAULT_ADMIN_ROLE",
      "outputs": [
        {
          "internalType": "bytes32",
          "name": "",
          "type": "bytes32"
        }
      ],
      "stateMutability": "view",
      "type": "function"
    },
    {
      "inputs": [],
      "name": "MINTER_ROLE",
      "outputs": [
        {
          "internalType": "bytes32",
          "name": "",
          "type": "bytes32"
        }
      ],
      "stateMutability": "view",
      "type": "function"
    },
    {
      "inputs": [
        {
          "internalType": "address",
          "name": "to",
          "type": "address"
        },
        {
          "internalType": "uint256",
          "name": "tokenId",
          "type": "uint256"
        }
      ],
      "name": "approve",
      "outputs": [],
      "stateMutability": "nonpayable",
      "type": "function"
    },
    {
      "inputs": [
        {
          "internalType": "address",
          "name": "",
          "type": "address"
        },
        {
          "internalType": "uint256",
          "name": "",
          "type": "uint256"
        }
      ],
      "name": "badgeMintedForQuest",
      "outputs": [
        {
          "internalType": "bool",
          "name": "",
          "type": "bool"
        }
      ],
      "stateMutability": "view",
      "type": "function"
    },
    {
      "inputs": [
        {
          "internalType": "address",
          "name": "owner",
          "type": "address"
        }
      ],
      "name": "balanceOf",
      "outputs": [
        {
          "internalType": "uint256",
          "name": "",
          "type": "uint256"
        }
      ],
      "stateMutability": "view",
      "type": "function"
    },
    {
      "inputs": [
        {
          "internalType": "uint256",
          "name": "tokenId",
          "type": "uint256"
        }
      ],
      "name": "getApproved",
      "outputs": [
        {
          "internalType": "address",
          "name": "",
          "type": "address"
        }
      ],
      "stateMutability": "view",
      "type": "function"
    },
    {
      "inputs": [
        {
          "internalType": "bytes32",
          "name": "role",
          "type": "bytes32"
        }
      ],
      "name": "getRoleAdmin",
      "outputs": [
        {
          "internalType": "bytes32",
          "name": "",
          "type": "bytes32"
        }
      ],
      "stateMutability": "view",
      "type": "function"
    },
    {
      "inputs": [
        {
          "internalType": "bytes32",
          "name": "role",
          "type": "bytes32"
        },
        {
          "internalType": "address",
          "name": "account",
          "type": "address"
        }
      ],
      "name": "grantRole",
      "outputs": [],
      "stateMutability": "nonpayable",
      "type": "function"
    },
    {
      "inputs": [
        {
          "internalType": "bytes32",
          "name": "role",
          "type": "bytes32"
        },
        {
          "internalType": "address",
          "name": "account",
          "type": "address"
        }
      ],
      "name": "hasRole",
      "outputs": [
        {
          "internalType": "bool",
          "name": "",
          "type": "bool"
        }
      ],
      "stateMutability": "view",
      "type": "function"
    },
    {
      "inputs": [
        {
          "internalType": "address",
          "name": "owner",
          "type": "address"
        },
        {
          "internalType": "address",
          "name": "operator",
          "type": "address"
        }
      ],
      "name": "isApprovedForAll",
      "outputs": [
        {
          "internalType": "bool",
          "name": "",
          "type": "bool"
        }
      ],
      "stateMutability": "view",
      "type": "function"
    },
    {
      "inputs": [
        {
          "internalType": "address",
          "name": "to",
          "type": "address"
        },
        {
          "internalType": "uint256",
          "name": "questId",
          "type": "uint256"
        }
      ],
      "name": "mintBadge",
      "outputs": [
        {
          "internalType": "uint256",
          "name": "tokenId",
          "type": "uint256"
        }
      ],
      "stateMutability": "nonpayable",
      "type": "function"
    },
    {
      "inputs": [],
      "name": "name",
      "outputs": [
        {
          "internalType": "string",
          "name": "",
          "type": "string"
        }
      ],
      "stateMutability": "view",
      "type": "function"
    },
    {
      "inputs": [],
      "name": "nextId",
      "outputs": [
        {
          "internalType": "uint256",
          "name": "",
          "type": "uint256"
        }
      ],
      "stateMutability": "view",
      "type": "function"
    },
    {
      "inputs": [
        {
          "internalType": "uint256",
          "name": "tokenId",
          "type": "uint256"
        }
      ],
      "name": "ownerOf",
      "outputs": [
        {
          "internalType": "address",
          "name": "",
          "type": "address"
        }
      ],
      "stateMutability": "view",
      "type": "function"
    },
    {
      "inputs": [
        {
          "internalType": "bytes32",
          "name": "role",
          "type": "bytes32"
        },
        {
          "internalType": "address",
          "name": "callerConfirmation",
          "type": "address"
        }
      ],
      "name": "renounceRole",
      "outputs": [],
      "stateMutability": "nonpayable",
      "type": "function"
    },
    {
      "inputs": [
        {
          "internalType": "bytes32",
          "name": "role",
          "type": "bytes32"
        },
        {
          "internalType": "address",
          "name": "account",
          "type": "address"
        }
      ],
      "name": "revokeRole",
      "outputs": [],
      "stateMutability": "nonpayable",
      "type": "function"
    },
    {
      "inputs": [
        {
          "internalType": "address",
          "name": "from",
          "type": "address"
        },
        {
          "internalType": "address",
          "name": "to",
          "type": "address"
        },
        {
          "internalType": "uint256",
          "name": "tokenId",
          "type": "uint256"
        }
      ],
      "name": "safeTransferFrom",
      "outputs": [],
      "stateMutability": "nonpayable",
      "type": "function"
    },
    {
      "inputs": [
        {
          "internalType": "address",
          "name": "from",
          "type": "address"
        },
        {
          "internalType": "address",
          "name": "to",
          "type": "address"
        },
        {
          "internalType": "uint256",
          "name": "tokenId",
          "type": "uint256"
        },
        {
          "internalType": "bytes",
          "name": "data",
          "type": "bytes"
        }
      ],
      "name": "safeTransferFrom",
      "outputs": [],
      "stateMutability": "nonpayable",
      "type": "function"
    },
    {
      "inputs": [
        {
          "internalType": "address",
          "name": "operator",
          "type": "address"
        },
        {
          "internalType": "bool",
          "name": "approved",
          "type": "bool"
        }
      ],
      "name": "setApprovalForAll",
      "outputs": [],
      "stateMutability": "nonpayable",
      "type": "function"
    },
    {
      "inputs": [
        {
          "internalType": "bytes4",
          "name": "interfaceId",
          "type": "bytes4"
        }
      ],
      "name": "supportsInterface",
      "outputs": [
        {
          "internalType": "bool",
          "name": "",
          "type": "bool"
        }
      ],
      "stateMutability": "view",
      "type": "function"
    },
    {
      "inputs": [],
      "name": "symbol",
      "outputs": [
        {
          "internalType": "string",
          "name": "",
          "type": "string"
        }
      ],
      "stateMutability": "view",
      "type": "function"
    },
    {
      "inputs": [
        {
          "internalType": "uint256",
          "name": "tokenId",
          "type": "uint256"
        }
      ],
      "name": "tokenURI",
      "outputs": [
        {
          "internalType": "string",
          "name": "",
          "type": "string"
        }
      ],
      "stateMutability": "view",
      "type": "function"
    },
    {
      "inputs": [
        {
          "internalType": "address",
          "name": "from",
          "type": "address"
        },
        {
          "internalType": "address",
          "name": "to",
          "type": "address"
        },
        {
          "internalType": "uint256",
          "name": "tokenId",
          "type": "uint256"
        }
      ],
      "name": "transferFrom",
      "outputs": [],
      "stateMutability": "nonpayable",
      "type": "function"
    }
  ],
  "bytecode": "0x608060405234801561001057600080fd5b5060405161181738038061181783398101604081905261002f9161017f565b6040518060400160405280600a8152602001695665737461426164676560b01b8152506040518060400160405280600681526020016556424144474560d01b8152508160009081610080919061024e565b50600161008d828261024e565b5061009d915060009050826100cf565b506100c87f9f2df0fed2c77648de5860a4cc508cd0818c85b8b8a1ab4ceeef8d981c8956a6826100cf565b505061030c565b60008281526006602090815260408083206001600160a01b038516845290915281205460ff166101755760008381526006602090815260408083206001600160a01b03861684529091529020805460ff1916600117905561012d3390565b6001600160a01b0316826001600160a01b0316847f2f8788117e7eff1d82e926ec794901d17c78024a50270940304540a733656f0d60405160405180910390a4506001610179565b5060005b92915050565b60006020828403121561019157600080fd5b81516001600160a01b03811681146101a857600080fd5b9392505050565b634e487b7160e01b600052604160045260246000fd5b600181811c908216806101d957607f821691505b6020821081036101f957634e487b7160e01b600052602260045260246000fd5b50919050565b601f82111561024957806000526020600020601f840160051c810160208510156102265750805b601f840160051c820191505b818110156102465760008155600101610232565b50505b505050565b81516001600160401b03811115610267576102676101af565b61027b8161027584546101c5565b846101ff565b6020601f8211600181146102af57600083156102975750848201515b600019600385901b1c1916600184901b178455610246565b600084815260208120601f198516915b828110156102df57878501518255602094850194600190920191016102bf565b50848210156102fd5786840151600019600387901b60f8161c191681555b50505050600190811b01905550565b6114fc8061031b6000396000f3fe608060405234801561001057600080fd5b506004361061014d5760003560e01c806370a08231116100c3578063ba36437e1161007c578063ba36437e146102c4578063c87b56dd146102f2578063d539139314610305578063d547741f1461032c578063e42bff661461033f578063e985e9c51461035257600080fd5b806370a082311461026857806391d148541461027b57806395d89b411461028e578063a217fddf14610296578063a22cb4651461029e578063b88d4fde146102b157600080fd5b8063248a9ca311610115578063248a9ca3146101e25780632f2ff15d1461021357806336568abe1461022657806342842e0e1461023957806361b8ce8c1461024c5780636352211e1461025557600080fd5b806301ffc9a71461015257806306fdde031461017a578063081812fc1461018f578063095ea7b3146101ba57806323b872dd146101cf575b600080fd5b610165610160366004611119565b610365565b60405190151581526020015b60405180910390f35b610182610376565b6040516101719190611186565b6101a261019d366004611199565b610408565b6040516001600160a01b039091168152602001610171565b6101cd6101c83660046111ce565b610431565b005b6101cd6101dd3660046111f8565b610440565b6102056101f0366004611199565b60009081526006602052604090206001015490565b604051908152602001610171565b6101cd610221366004611235565b6104d0565b6101cd610234366004611235565b6104f5565b6101cd6102473660046111f8565b61052d565b61020560075481565b6101a2610263366004611199565b610548565b610205610276366004611261565b610553565b610165610289366004611235565b61059b565b6101826105c6565b610205600081565b6101cd6102ac36600461127c565b6105d5565b6101cd6102bf3660046112ce565b6105e0565b6101656102d23660046111ce565b600860209081526000928352604080842090915290825290205460ff1681565b610182610300366004611199565b6105f8565b6102057f9f2df0fed2c77648de5860a4cc508cd0818c85b8b8a1ab4ceeef8d981c8956a681565b6101cd61033a366004611235565b61066d565b61020561034d3660046111ce565b610692565b6101656103603660046113b2565b6107c2565b6000610370826107f0565b92915050565b606060008054610385906113dc565b80601f01602080910402602001604051908101604052809291908181526020018280546103b1906113dc565b80156103fe5780601f106103d3576101008083540402835291602001916103fe565b820191906000526020600020905b8154815290600101906020018083116103e157829003601f168201915b5050505050905090565b600061041382610815565b506000828152600460205260409020546001600160a01b0316610370565b61043c82823361084e565b5050565b6001600160a01b03821661046f57604051633250574960e11b8152600060048201526024015b60405180910390fd5b600061047c83833361085b565b9050836001600160a01b0316816001600160a01b0316146104ca576040516364283d7b60e01b81526001600160a01b0380861660048301526024820184905282166044820152606401610466565b50505050565b6000828152600660205260409020600101546104eb816108d7565b6104ca83836108e4565b6001600160a01b038116331461051e5760405163334bd91960e11b815260040160405180910390fd5b6105288282610978565b505050565b610528838383604051806020016040528060008152506105e0565b600061037082610815565b60006001600160a01b03821661057f576040516322718ad960e21b815260006004820152602401610466565b506001600160a01b031660009081526003602052604090205490565b60009182526006602090815260408084206001600160a01b0393909316845291905290205460ff1690565b606060018054610385906113dc565b61043c3383836109e5565b6105eb848484610440565b6104ca3385858585610a84565b606061060382610815565b50600061061b60408051602081019091526000815290565b9050600081511161063b5760405180602001604052806000815250610666565b8061064584610baf565b604051602001610656929190611416565b6040516020818303038152906040525b9392505050565b600082815260066020526040902060010154610688816108d7565b6104ca8383610978565b60007f9f2df0fed2c77648de5860a4cc508cd0818c85b8b8a1ab4ceeef8d981c8956a66106be816108d7565b6001600160a01b038416600090815260086020908152604080832086845290915290205460ff16156107295760405162461bcd60e51b815260206004820152601460248201527310985919d948185b1c9958591e481b5a5b9d195960621b6044820152606401610466565b60076000815461073890611445565b91829055506001600160a01b03851660009081526008602090815260408083208784529091529020805460ff1916600117905591506107778483610c42565b81846001600160a01b03167f7e6f783c7d2fd31e9979cbb09639e191e20de085caf64b2875d53ff862aa3baa856040516107b391815260200190565b60405180910390a35092915050565b6001600160a01b03918216600090815260056020908152604080832093909416825291909152205460ff1690565b60006001600160e01b03198216637965db0b60e01b1480610370575061037082610c5c565b6000818152600260205260408120546001600160a01b03168061037057604051637e27328960e01b815260048101849052602401610466565b6105288383836001610cac565b6000828152600260205260408120546001600160a01b0316801580159061088a57506001600160a01b03851615155b156108c35760405162461bcd60e51b815260206004820152600960248201526814dbdd5b189bdd5b9960ba1b6044820152606401610466565b6108ce858585610db2565b95945050505050565b6108e18133610eab565b50565b60006108f0838361059b565b6109705760008381526006602090815260408083206001600160a01b03861684529091529020805460ff191660011790556109283390565b6001600160a01b0316826001600160a01b0316847f2f8788117e7eff1d82e926ec794901d17c78024a50270940304540a733656f0d60405160405180910390a4506001610370565b506000610370565b6000610984838361059b565b156109705760008381526006602090815260408083206001600160a01b0386168085529252808320805460ff1916905551339286917ff6391f5c32d9c69d2a47ea670b442974b53935d1edc7fd64eb21e047a839171b9190a4506001610370565b6001600160a01b038216610a1757604051630b61174360e31b81526001600160a01b0383166004820152602401610466565b6001600160a01b03838116600081815260056020908152604080832094871680845294825291829020805460ff191686151590811790915591519182527f17307eab39ab6107e8899845ad3d59bd9653f200f220920489ca2b5937696c31910160405180910390a3505050565b6001600160a01b0383163b15610ba857604051630a85bd0160e11b81526001600160a01b0384169063150b7a0290610ac690889088908790879060040161146c565b6020604051808303816000875af1925050508015610b01575060408051601f3d908101601f19168201909252610afe918101906114a9565b60015b610b6a573d808015610b2f576040519150601f19603f3d011682016040523d82523d6000602084013e610b34565b606091505b508051600003610b6257604051633250574960e11b81526001600160a01b0385166004820152602401610466565b805181602001fd5b6001600160e01b03198116630a85bd0160e11b14610ba657604051633250574960e11b81526001600160a01b0385166004820152602401610466565b505b5050505050565b60606000610bbc83610ee4565b600101905060008167ffffffffffffffff811115610bdc57610bdc6112b8565b6040519080825280601f01601f191660200182016040528015610c06576020820181803683370190505b5090508181016020015b600019016f181899199a1a9b1b9c1cb0b131b232b360811b600a86061a8153600a8504945084610c1057509392505050565b61043c828260405180602001604052806000815250610fbc565b60006001600160e01b031982166380ac58cd60e01b1480610c8d57506001600160e01b03198216635b5e139f60e01b145b8061037057506301ffc9a760e01b6001600160e01b0319831614610370565b8080610cc057506001600160a01b03821615155b15610d82576000610cd084610815565b90506001600160a01b03831615801590610cfc5750826001600160a01b0316816001600160a01b031614155b8015610d0f5750610d0d81846107c2565b155b15610d385760405163a9fbf51f60e01b81526001600160a01b0384166004820152602401610466565b8115610d805783856001600160a01b0316826001600160a01b03167f8c5be1e5ebec7d5bd14f71427d1e84f3dd0314c0f7b2291e5b200ac8c7c3b92560405160405180910390a45b505b5050600090815260046020526040902080546001600160a01b0319166001600160a01b0392909216919091179055565b6000828152600260205260408120546001600160a01b0390811690831615610ddf57610ddf818486610fd4565b6001600160a01b03811615610e1d57610dfc600085600080610cac565b6001600160a01b038116600090815260036020526040902080546000190190555b6001600160a01b03851615610e4c576001600160a01b0385166000908152600360205260409020805460010190555b60008481526002602052604080822080546001600160a01b0319166001600160a01b0389811691821790925591518793918516917fddf252ad1be2c89b69c2b068fc378daa952ba7f163c4a11628f55a4df523b3ef91a4949350505050565b610eb5828261059b565b61043c5760405163e2517d3f60e01b81526001600160a01b038216600482015260248101839052604401610466565b60008072184f03e93ff9f4daa797ed6e38ed64bf6a1f0160401b8310610f235772184f03e93ff9f4daa797ed6e38ed64bf6a1f0160401b830492506040015b6d04ee2d6d415b85acef81000000008310610f4f576d04ee2d6d415b85acef8100000000830492506020015b662386f26fc100008310610f6d57662386f26fc10000830492506010015b6305f5e1008310610f85576305f5e100830492506008015b6127108310610f9957612710830492506004015b60648310610fab576064830492506002015b600a83106103705760010192915050565b610fc68383611038565b610528336000858585610a84565b610fdf83838361109d565b610528576001600160a01b03831661100d57604051637e27328960e01b815260048101829052602401610466565b60405163177e802f60e01b81526001600160a01b038316600482015260248101829052604401610466565b6001600160a01b03821661106257604051633250574960e11b815260006004820152602401610466565b60006110708383600061085b565b90506001600160a01b03811615610528576040516339e3563760e11b815260006004820152602401610466565b60006001600160a01b038316158015906110fb5750826001600160a01b0316846001600160a01b031614806110d757506110d784846107c2565b806110fb57506000828152600460205260409020546001600160a01b038481169116145b949350505050565b6001600160e01b0319811681146108e157600080fd5b60006020828403121561112b57600080fd5b813561066681611103565b60005b83811015611151578181015183820152602001611139565b50506000910152565b60008151808452611172816020860160208601611136565b601f01601f19169290920160200192915050565b602081526000610666602083018461115a565b6000602082840312156111ab57600080fd5b5035919050565b80356001600160a01b03811681146111c957600080fd5b919050565b600080604083850312156111e157600080fd5b6111ea836111b2565b946020939093013593505050565b60008060006060848603121561120d57600080fd5b611216846111b2565b9250611224602085016111b2565b929592945050506040919091013590565b6000806040838503121561124857600080fd5b82359150611258602084016111b2565b90509250929050565b60006020828403121561127357600080fd5b610666826111b2565b6000806040838503121561128f57600080fd5b611298836111b2565b9150602083013580151581146112ad57600080fd5b809150509250929050565b634e487b7160e01b600052604160045260246000fd5b600080600080608085870312156112e457600080fd5b6112ed856111b2565b93506112fb602086016111b2565b925060408501359150606085013567ffffffffffffffff81111561131e57600080fd5b8501601f8101871361132f57600080fd5b803567ffffffffffffffff811115611349576113496112b8565b604051601f8201601f19908116603f0116810167ffffffffffffffff81118282101715611378576113786112b8565b60405281815282820160200189101561139057600080fd5b8160208401602083013760006020838301015280935050505092959194509250565b600080604083850312156113c557600080fd5b6113ce836111b2565b9150611258602084016111b2565b600181811c908216806113f057607f821691505b60208210810361141057634e487b7160e01b600052602260045260246000fd5b50919050565b60008351611428818460208801611136565b83519083019061143c818360208801611136565b01949350505050565b60006001820161146557634e487b7160e01b600052601160045260246000fd5b5060010190565b6001600160a01b038581168252841660208201526040810183905260806060820181905260009061149f9083018461115a565b9695505050505050565b6000602082840312156114bb57600080fd5b81516106668161110356fea26469706673582212205c9162e3d98b8e6cd3fccb9b0338996c7178859fc8feb10621b1a6c5a163d0f664736f6c634300081c0033",
  "linkReferences": {},
  "deployedLinkReferences": {}
}